:1000000087C00000A4C00000A2C00000A0C0000083
:100010009EC000009CC000009AC0000098C0000074
:1000200096C0000094C00000CEC4000090C0000044
:100030008EC000008CC000008AC0000088C0000094
:1000400086C0000048C3000082C0000080C00000DD
:100050007EC000007CC000007AC0000078C00000B4
:1000600076C0000074C0000072C0000070C00000C4
:100070006EC000006CC000006AC0000068C00000D4
:1000800066C0000064C0000062C0000060C00000E4
:100090005EC000005CC000005AC0000058C00000F4
:1000A00056C0000054C0000052C0000050C0000004
:1000B0004EC000004CC000004AC0000048C0000014
:1000C00046C0000044C0000042C0000040C0000024
:1000D0003EC000003CC000003AC0000038C0000034
:1000E00036C0000016041B04200425042A042F0433
:1000F000340439043E044804520457045C04610487
:100100006B048F04910493049504970499049B0451
:1001100011241FBECFEFD1E2DEBFCDBF00E00CBF88
:1001200012E0A0E0B2E0EEE6FAE000E00BBF02C0B1
:1001300007900D92A834B107D9F722E0A8E4B2E005
:1001400001C01D92AD35B207E1F7FAD38EC458CF86
:10015000159885E08A95F1F70000159A95E09A9533
:10016000F1F7000015988FE891E00197F1F700C0D2
:1001700000000895E2E5F2E020E030E090E0A1E048
:10018000B0E0AC01022E02C0559547950A94E2F703
:1001900040FF0AC062B1AD01008002C0440F551F8C
:1001A0000A94E2F7462B0BC052B1BD01008002C099
:1001B000660F771F0A94E2F7462F4095452342B910
:1001C0002F5F3F4F319624303105D9F6C1CF869548
:1001D0008170E2E5F2E061E070E0882359F092B1CD
:1001E0009B01008002C0220F331F0A94E2F7292BE3
:1001F00022B90CC022B1AB01008002C0440F551FD0
:100200000A94E2F7942F9095922392B9319692E056
:10021000EA35F90711F79CCFCF93662311F0179AAF
:1002200001C01798169890915B0294FF02C0CF917D
:10023000CECFC82F82958F709DDF8C2FCF919ACF14
:1002400060E0EACF81E0FCDF8FE39FE10197F1F707
:1002500000C00000089510924C0290E490934D026B
:1002600094E190934E0294E590934F02643008F02D
:1002700063E090915102691710F06FEF690FE62F5C
:10028000F0E0E45BFD4F9081890F8068D9CF8091C9
:100290005002982F9460909350028C60D1CF83E0ED
:1002A0008093520282E08093530291E09093540233
:1002B0001092550210925602109257021092580254
:1002C0001092590298E090935B02809351020F9A2A
:1002D0000E9A0D9A0C9A149AE2E5F2E041E050E091
:1002E0009F012255324080915B0284FD03C084E06F
:1002F00090E002C088E090E0281739075CF421B153
:10030000CA01019002C0880F991F0A94E2F7822B5C
:1003100081B9E6CF2FEF80E792E0215080409040F6
:10032000E1F700C0000017981598169880915B02BD
:1003300084FD1BC083E01EDF8FE496E40197F1F794
:1003400000C0000083E016DF8FE496E40197F1F728
:1003500000C0000083E00EDF87E592E00197F1F72F
:1003600000C0000082E006DF16C0806269DF8FE413
:1003700096E40197F1F700C0000080915B02806273
:100380005FDF87E592E00197F1F700C00000809100
:100390005B02806255DF80915B02806251DF84E006
:1003A0008093500274DF4EDF82E080935A0286E031
:1003B00047CF61E031DF81E00895CF93DF93EC0117
:1003C0008991882311F0F5DFFBCFDF91CF9108955C
:1003D000CF93DF93EC01862F642F3DDFCE01DF91B9
:1003E000CF91EBCF82E08093B800E9EBF0E0808121
:1003F00083608083ECEBF0E08081846080830895EB
:1004000084EA8093BC008091BC0087FFFCCF0895F4
:1004100084E98093BC008091BC0084FDFCCF0895EA
:100420008093BB0084E88093BC008091BC0087FF70
:10043000FCCF8091B900887F883169F08091B90044
:10044000887F883241F09091B900987F81E09034A4
:1004500019F080E0089581E00895FC019091BC00BE
:10046000662311F0906401C09F7B9093BC00909133
:10047000BC0090689093BC008091BC0087FFFCCFCB
:100480009091B900987F983529F09091B900987FA4
:10049000903529F48091BB00808381E0089580E04D
:1004A00008951F93CF93DF93182FEB01A9DF80ED01
:1004B000B7DF811102C080E010C0812FB1DF882337
:1004C000D1F39EDF81EDACDF8823A9F360E0CE019C
:1004D000C4DF882381F39CDF81E0DF91CF911F91FE
:1004E0000895CF93DF93D82FC62F8ADF80ED98DF52
:1004F000811102C080E00AC08D2F92DF8823D1F3E2
:100500008C2F8EDF8823B1F383DF81E0DF91CF91E1
:100510000895CF93DF931F92CDB7DEB763DFBE019F
:100520006F5F7F4F80E0BDDF8823B1F069816F7717
:10053000698380E0D6DF882379F0BE016F5F7F4F4B
:1005400082E0AFDF882341F069816064698382E0E3
:10055000C8DF91E0811101C090E0892F0F90DF91F9
:10056000CF910895CF93DF931F92CDB7DEB7BE0131
:100570006F5F7F4F80E095DF9981892F8077869527
:1005800086958695282F220F220F820F9F70890F44
:100590000F90DF91CF910895FF920F931F93CF9308
:1005A000DF931F92CDB7DEB78C01BE016F5F7F4F27
:1005B00080E077DF811102C080E040C0F80113863F
:1005C0008DE4828780E280878981982F9F70905D7B
:1005D0009783807782958F70805D86838AE3F82E7B
:1005E000F582BE016F5F7F4F81E05BDF882321F3DF
:1005F0008981982F9F70905DF80194838077829510
:100600008F70805D8383F282BE016F5F7F4F82E0D7
:1006100048DF882389F28981982F9F70905DF801C7
:10062000918384FB992790F9905D908385FF02C0A8
:1006300080E502C081E4F801818781E00F90DF91BD
:10064000CF911F910F91FF9008958AB1806F8AB961
:100650005F9A08955E9A5E9808955D9A81E0982F5A
:100660009A95F1F75D988A95F1F70895CF93DF9306
:10067000D82FC8E0D7FF02C05C9A01C05C98EADFBF
:10068000DD0FC150B9F7DF91CF91E7CF8A3018F075
:1006900080910B0205C0E82FF0E0E050FE4F808112
:1006A000E5CFF89410928000E1E8F0E010828081BC
:1006B0008A60808387E08093890080ED8093880042
:1006C000EFE6F0E0808182608083109285001092D6
:1006D0008400789408951F920F920FB60F92112400
:1006E0008F939F93AF93BF9380914802909149025B
:1006F000A0914A02B0914B02809148029091490228
:10070000A0914A02B0914B02809148029091490217
:10071000A0914A02B0914B020196A11DB11D809398
:10072000480290934902A0934A02B0934B02BF91B2
:10073000AF919F918F910F900FBE0F901F901895C2
:100740008FE087B98FEF88B90895CF938EEF88B97E
:100750008AE08A95F1F700C086B1807F803E41F043
:10076000803D41F0803B41F0803741F4CCE007C050
:10077000C1E005C0C2E003C0C3E001C0CFEF8DEF10
:1007800088B98AE08A95F1F700C086B1807F803E03
:1007900041F0803D41F0803B41F0803739F4CDE0BD
:1007A00005C0C4E003C0C5E001C0C6E08BEF88B956
:1007B0008AE08A95F1F700C086B1807F803E41F0E3
:1007C000803D41F0803B41F0803739F4CEE005C0F8
:1007D000C7E003C0C8E001C0C9E087EF88B98AE07C
:1007E0008A95F1F700C086B1807F803E09F44BC046
:1007F000803D09F475C0803B09F44FC0803709F48F
:1008000065C0CF3F09F476C043E060E08CE092E041
:10081000DFDD8C2F90E0FC013197EF30F10508F01F
:1008200069C08827EE58FF4F8F4F17C143E069E03A
:1008300087E192E05EC043E069E089E192E059C05F
:1008400043E069E08BE192E054C043E069E08DE170
:1008500092E04FC043E069E08FE192E04AC043E09C
:1008600069E081E292E045C043E069E083E292E022
:1008700040C043E069E085E292E03BC043E069E0CC
:1008800087E292E036C043E060E08CE092E0A0DDD9
:1008900043E069E089E292E02CC043E060E08CE054
:1008A00092E096DD43E069E08BE292E022C043E013
:1008B00069E08DE292E01DC043E069E08FE292E0E2
:1008C00018C043E069E081E392E013C043E060E0D8
:1008D0008CE092E07DDD43E069E083E392E009C0D3
:1008E00043E060E08CE092E073DD43E069E085E3A3
:1008F00092E06EDD80E0CF910895E7E0F1E0808145
:100900008F6780830895FC013197E730F105B8F4D3
:10091000909108018827EF57FF4F8F4F9EC081E0CD
:100920000BC082E009C084E007C088E005C080E118
:1009300003C080E201C080E4892780930801089504
:10094000CF93DF93CDB7DEB72B970FB6F894DEBF0A
:100950000FBECDBFA4DCF4DED0DFA3DEDADD75DEB2
:10096000F894109204018FEF809305018091680044
:10097000826080936800D99A80916C008867809328
:100980006C0078945FDC6F9A779A2FEF87EA91E694
:10099000215080409040E1F700C0000077981AE0B5
:1009A00040E060E087E392E013DDCE010196F4DDE4
:1009B00041E062E0CE0101960BDDD4DD612F41D034
:1009C00065DEC3DEEDCF1F920F920FB60F9211249A
:1009D0000BB60F922F933F934F935F936F937F9339
:1009E0008F939F93AF93BF93EF93FF9380910301F6
:1009F00082FF06C09091080181E089278093080159
:100A00008091030183FF03C082E090E07CDF80914E
:100A1000030184FF03C083E090E075DFFF91EF9155
:100A2000BF91AF919F918F917F916F915F914F9106
:100A30003F912F910F900BBE0F900FBE0F901F9004
:100A40001895991B79E004C0991F961708F0961B1A
:100A5000881F7A95C9F780950895EE0FFF1F881FAC
:0E0A60008BBF0790F691E02D1994F894FFCF0C
:100A6E00C0F9A4B0999282F880907FBF4B657950FF
:100A7E00726573733A200039004300380023004436
:100A8E000030003600420035003300320037002AB5
:100A9E00003400310041004D435520545241494E1F
:080AAE00494E47204B4954005A
:00000001FF
