S00E0000544B323536302E73726563AA
S11300003DC10000C6C50000EFC5000018C60000D1
S113001041C600006AC6000093C60000BCC60000CA
S1130020E5C600000C9470080C94E8080C9465096B
S113003046C1000044C1000042C1000040C10000AC
S11300403EC100003CC100003AC1000038C10000BC
S113005036C1000034C1000032C100000C94C70B4B
S11300602EC10000CAC40000EFC4000028C1000073
S113007026C1000024C1000022C1000020C10000EC
S11300800C94CF0F1CC100001AC1000018C100005D
S113009016C1000014C1000012C1000010C100000C
S11300A00EC100000CC100000AC1000008C100001C
S11300B006C1000004C1000002C1000000C100002C
S11300C0FEC00000FCC00000FAC000000C94F70A57
S11300D00C941E0BF4C00000F2C00000F0C000003D
S11300E0EEC0000063056B057705850596059E0542
S11300F0AA05B805150A1A0A1F0A290A330AA70A03
S11301003D0A450A4D0A570A610A6B0A750A7F0AB5
S1130110A70A890A930A9D0A0002000000090A0B33
S1130120000000000000000C0D0E08000000000795
S11301300304010000000000000000000000101192
S11301401200000000000000000000000000000099
S1130150000000000000000000000000000000009B
S1130160000000000000000000000000000000008B
S1130170000000000000000000000000000020015A
S113018002040810204080000001020408102040EE
S113019001020408102040808008100000000000C4
S11301A0010204081020408001020408102040804D
S11301B0010201020408102040800000010204082A
S11301C010204004804020100804020180000080B8
S11301D0402010080402018040201008040201009D
S11301E000000007050505050505050500000808CC
S11301F008080808080202020202020202080707AD
S113020000000000000C0C0C0C0C0C0C0C0404047E
S113021004040404040707030303030303030300A0
S1130220000A0A0A0A0A0A0A070101010101010176
S1130230010A00000B0B0B0B0B0B0B0B060606063F
S11302400606060600000000002200250028002BF8
S1130250002E003100340002010000050108010BEA
S11302600100002100240027002A002D0030003363
S11302700001010000040107010A010311241FBE4B
S1130280CFEFD1E2DEBFCDBF00E00CBF12E0A0E0B3
S1130290B2E0E4EDF5E200E00BBF02C007900D927E
S11302A0A436B107D9F724E0A4E6B2E001C01D9258
S11302B0A130B207E1F70E9472100C94E812A0CEAC
S11302C0159885E08A95F1F70000159A95E09A95BE
S11302D0F1F7000015988FE891E00197F1F700C05D
S11302E000000895CF93DF93ECE7F2E020E030E0E4
S11302F0A82FB0E0C1E0D0E0AD01022E02C05595B8
S113030047950A94E2F740FF0BC082B1AE0100802A
S113031002C0440F551F0A94E2F7482B42B90CC09F
S113032042B1BE01008002C0660F771F0A94E2F753
S1130330962F9095942392B92F5F3F4F3196243096
S11303403105D1F6BDDFDF91CF9108958695817097
S1130350ECE7F2E064E872E0A1E0B0E0882359F051
S113036092B19D01008002C0220F331F0A94E2F76C
S1130370292B22B90CC022B1AD01008002C0440F68
S1130380551F0A94E2F7942F9095922392B93196CF
S1130390E617F70719F794CF0895CF93C82F66236C
S11303A011F0179A01C0179816988091850284FF5E
S11303B003C08C2FCBDF06C08C2F82958F7092DF09
S11303C08C2F90DFCF91089560E0E7CF089581E00E
S11303D0FBDF8FE39FE10197F1F700C00000089570
S11303E0E6E7F2E0108290E4918394E1928394E54D
S11303F09383643008F063E090917B02691710F0F6
S11304006FEF690FE62FF0E0EA58FD4F9081890FF6
S11304108068DACF089580917A02982F946090933F
S11304207A028C60D1CF0895CF93ECE7F2E083E0B9
S1130430808382E0818391E0928313821482158207
S11304401682178298E09093850280937B020F9A1C
S11304500E9A0D9A0C9A149A20E030E0C8E0B0E0AD
S1130460A4E050E061E070E00CC041B1CB01019028
S113047002C0880F991F0A94E2F7842B81B92F5F79
S11304803F4F8091850284FD03C08A2F952F02C0BF
S11304908C2F9B2F2817390744F32FEF80E792E026
S11304A0215080409040E1F700C000001798159853
S11304B016988091850284FD1BC083E013DF8FE4CE
S11304C096E40197F1F700C0000083E00BDF8FE4AE
S11304D096E40197F1F700C0000083E003DF87E5AD
S11304E092E00197F1F700C0000082E0FBDE16C045
S11304F080626ADF8FE496E40197F1F700C00000A0
S113050080918502806260DF87E592E00197F1F7D0
S113051000C0000080918502806256DF80918502D0
S1130520806252DF84E080937A0275DF50DF82E0DC
S11305308093840286E048DFCF91089561E02DDF47
S113054081E00895CF93DF93EC018881882329F01B
S11305502196F4DF89918111FCCFDF91CF91089529
S1130560CF93DF93EC01862F642F3ADFCE01EADFCD
S1130570DF91CF910895EAE7F0E080818460808381
S113058080818260808380818160808380818068B3
S11305908083089596EA980F983020F491E6981B8A
S11305A0892F09C09EEA980F983020F491E6981B91
S11305B0892F01C08FEFEBE7F0E09081282F28709E
S11305C0977F922B90832091000290E4299F9001C1
S11305D011248F70822B80937C00EAE7F0E0808105
S11305E080648083808186FDFDCF80917800909126
S11305F079000895CF93DF9390E0FC01E358FE4F18
S11306002491FC01EE51FE4F8491882379F190E00E
S1130610880F991FFC01EF59FD4FA591B491FC017E
S1130620E95BFD4FC591D49161110CC09FB7F8945B
S11306308C91E22FE0958E238C932881E223E8832A
S11306409FBF14C0623061F49FB7F8948C91322F2D
S1130650309583238C93E881E22BE8839FBF06C007
S11306608FB7F894EC91E22BEC938FBFDF91CF918D
S1130670089590E0FC01E358FE4F2491FC01EE51F3
S1130680FE4F84918823B1F0E82FF0E0EE0FFF1FB6
S1130690E95BFD4FA591B4918FB7F894611106C041
S11306A09C91E22FE095E923EC9303C0EC91E22BBB
S11306B0EC938FBF089590E0FC01E358FE4F249122
S11306C0FC01EE51FE4F8491882371F0E82FF0E095
S11306D0EE0FFF1FE95BFD4FA591B4918FB7F8941E
S11306E0EC91E227EC938FBF0895CF92DF92EF92C3
S11306F0FF92CF936B017C01C42F109213031092CD
S11307009002109287021092D20288EE93E0A0E049
S1130710B0E08093A3039093A403A093A503B093A4
S1130720A60382E08093C000C11481EED806E104E0
S1130730F104B1F060E079E08DE390E0A701960167
S11307400E945E12DA01C9010197A109B109B695A7
S1130750A795979587959C01211580E13807A0F00E
S11307601092C00060E874E88EE190E0A701960161
S11307700E945E12DA01C9010197A109B109B69577
S1130780A795979587959C013093C5002093C40045
S1130790C093C200E1ECF0E08081806180838081BD
S11307A08860808380818068808380818F7D80835E
S11307B0CF91FF90EF90DF90CF9008958091130335
S11307C02091900290E0805C9F4F821B91098F736F
S11307D0992708959091130380919002981771F0CE
S11307E0E0919002F0E0E75AFC4F808190919002F2
S11307F09F5F9F739093900290E008958FEF9FEF17
S113080008950F931F9354D760938C0270938D02B5
S113081080938E0290938F02DDDF9923F4F448D7FE
S113082000918C0210918D0220918E0230918F02E2
S1130830DC01CB01801B910BA20BB30B0091A30332
S11308401091A4032091A5033091A603801791076A
S1130850A207B30708F38FEF9FEF1F910F9108953D
S1130860EF92FF920F931F93CF93DF937B01672B3C
S113087081F0082F192FC0E0D0E0C3DF992344F0A2
S1130880F80181938F012196EC16FD06B1F701C0A2
S11308907E01C701DF91CF911F910F91FF90EF90DF
S11308A00895E091D202F0E0EC5EFC4F208180914B
S11308B0D20290E001968F739078992324F40197E3
S11308C0806C9F6F01968093D2022093C600E0EC67
S11308D0F0E08081837080648083909187028091AE
S11308E0D202981305C0E1ECF0E080818F7D808313
S11308F008950F931F93CF93DF93209187029091D4
S1130900D202291310C09091C00095FF0CC09FB76C
S1130910F8948093C600E0ECF0E0808183708064FA
S113092080839FBF2FC02091870230E02F5F3F4F0D
S11309302F733078332334F421503109206C3F6F06
S11309402F5F3F4FD82FC22F00EC10E007C00FB627
S113095007FC04C0F801808185FDA3DF9091D202D9
S1130960C917A9F3E0918702F0E0EC5EFC4FD08355
S11309709FB7F894C0938702E1ECF0E08081806235
S113098080839FBF81E090E0DF91CF911F910F9111
S113099008950F931F93CF93DF93EC0188818823ED
S11309A051F0219600E010E0A4DF0F5F1F4F899102
S11309B08111FACF02C000E010E0C801DF91CF91AD
S11309C01F910F9108958091C00082FD13C0209162
S11309D0C600809113038F5F8F73909190028917E3
S11309E059F0E0911303F0E0E75AFC4F2083809321
S11309F0130308958091C60008951F920F920FB6B5
S1130A000F9211240BB60F922F933F934F935F9342
S1130A106F937F938F939F93AF93BF93EF93FF93C2
S1130A20D2DFFF91EF91BF91AF919F918F917F9111
S1130A306F915F914F913F912F910F900BBE0F904B
S1130A400FBE0F901F9018951F920F920FB60F9222
S1130A5011240BB60F922F933F934F935F936F9391
S1130A607F938F939F93AF93BF93EF93FF9319DF7C
S1130A70FF91EF91BF91AF919F918F917F916F9172
S1130A805F914F913F912F910F900BBE0F900FBE2E
S1130A900F901F9018950895883008F079C0E82FBA
S1130AA0F0E0EE0FFF1FEF5FFD4F7183608390E076
S1130AB08830910508F06CC0FC018827EE58FF4F80
S1130AC08F4F0C948012E9E6F0E080818C7F482BF4
S1130AD04083E89A0895E9E6F0E08081837F440F3B
S1130AE0551F440F551F482B4083E99A0895E9E6A2
S1130AF0F0E080818F7C42955295507F5427407F4F
S1130B005427482B4083EA9A0895E9E6F0E080816F
S1130B108F730024569547950794569547950794E7
S1130B20542F402D482B4083EB9A0895EAE6F0E0D9
S1130B3080818C7F482B4083EC9A0895EAE6F0E0AC
S1130B408081837F440F551F440F551F482B4083DA
S1130B50ED9A0895EAE6F0E080818F7C4295529503
S1130B60507F5427407F5427482B4083EE9A0895A2
S1130B70EAE6F0E080818F73002456954795079448
S1130B80569547950794542F402D482B4083EF9A50
S1130B9008951F920F920FB60F9211240BB60F9265
S1130BA02F933F934F935F936F937F938F939F9371
S1130BB0AF93BF93EF93FF93E0910102F091020290
S1130BC01995FF91EF91BF91AF919F918F917F9173
S1130BD06F915F914F913F912F910F900BBE0F90AA
S1130BE00FBE0F901F9018951F920F920FB60F9281
S1130BF011240BB60F922F933F934F935F936F93F0
S1130C007F938F939F93AF93BF93EF93FF93E09161
S1130C100302F09104021995FF91EF91BF91AF91F6
S1130C209F918F917F916F915F914F913F912F9100
S1130C300F900BBE0F900FBE0F901F9018951F9230
S1130C400F920FB60F9211240BB60F922F933F936E
S1130C504F935F936F937F938F939F93AF93BF93C0
S1130C60EF93FF93E0910502F09106021995FF912D
S1130C70EF91BF91AF919F918F917F916F915F9110
S1130C804F913F912F910F900BBE0F900FBE0F907D
S1130C901F9018951F920F920FB60F9211240BB646
S1130CA00F922F933F934F935F936F937F938F9301
S1130CB09F93AF93BF93EF93FF93E0910702F0915B
S1130CC008021995FF91EF91BF91AF919F918F9178
S1130CD07F916F915F914F913F912F910F900BBE38
S1130CE00F900FBE0F901F9018951F920F920FB682
S1130CF00F9211240BB60F922F933F934F935F9350
S1130D006F937F938F939F93AF93BF93EF93FF93CF
S1130D10E0910902F0910A021995FF91EF91BF91B8
S1130D20AF919F918F917F916F915F914F913F917F
S1130D302F910F900BBE0F900FBE0F901F90189520
S1130D401F920F920FB60F9211240BB60F922F938E
S1130D503F934F935F936F937F938F939F93AF933F
S1130D60BF93EF93FF93E0910B02F0910C0219955E
S1130D70FF91EF91BF91AF919F918F917F916F916F
S1130D805F914F913F912F910F900BBE0F900FBE2B
S1130D900F901F9018951F920F920FB60F92112467
S1130DA00BB60F922F933F934F935F936F937F9361
S1130DB08F939F93AF93BF93EF93FF93E0910D02B3
S1130DC0F0910E021995FF91EF91BF91AF919F9110
S1130DD08F917F916F915F914F913F912F910F90E0
S1130DE00BBE0F900FBE0F901F9018951F920F927D
S1130DF00FB60F9211240BB60F922F933F934F937C
S1130E005F936F937F938F939F93AF93BF93EF936E
S1130E10FF93E0910F02F09110021995FF91EF9169
S1130E20BF91AF919F918F917F916F915F914F91FE
S1130E303F912F910F900BBE0F900FBE0F901F90FC
S1130E401895982F813059F018F08230A1F01BC00A
S1130E5083B1E42FF0E0E659FD4F80831AC02CB132
S1130E6080910301E42FF0E0E659FD4F2170880FD3
S1130E70822B808314C080910601E42FF0E0E659B0
S1130E80FD4F808312C0813051F018F0823091F40C
S1130E900CC0EBE6F0E08081682B60830BC0ECE6CD
S1130EA0F0E08081682B608305C0EDE6F0E080818E
S1130EB0682B6083E8E6F0E0408121E030E0B9018E
S1130EC002C0660F771F9A95E2F7CB01842B8083CB
S1130ED00895982F969596959695282F277078942F
S1130EE0911139C0811105C07093A8036093A703C1
S1130EF00EC0813029F47093AE036093AD030EC02D
S1130F00823029F47093C0036093BF030EC0833012
S1130F1029F47093D2036093D1030EC0843029F472
S1130F207093C2036093C1030EC0853029F470939B
S1130F30CC036093CB0384C0863029F47093BC0344
S1130F406093BB037DC0873009F07AC07093B0030F
S1130F506093AF0375C09130C9F5883029F470935C
S1130F60BE036093BD030EC0893029F47093B603A9
S1130F706093B5030EC08A3029F47093C80360935C
S1130F80C7030EC08B3029F47093BA036093B9037E
S1130F900EC08C3029F47093D4036093D3030EC035
S1130FA08D3029F47093C6036093C50349C08E3015
S1130FB029F47093C4036093C30342C08F3009F0D3
S1130FC03FC07093D0036093CF033AC0923009F0CE
S1130FD056C0803129F47093B2036093B1030EC0FC
S1130FE0813129F47093CA036093C9030EC082311E
S1130FF029F47093AA036093A9030EC0833129F4E2
S11310007093B4036093B3030EC0843129F47093D6
S1131010D6036093D5030EC0853129F47093AC03D5
S11310206093AB030DC0863129F47093CE036093B3
S1131030CD0306C0873121F47093B8036093B703DE
S113104061E070E002C0660F771F2A95E2F7842FF3
S11310508D7F813039F4E92FF0E0EC59FD4F808128
S1131060862B80834150423038F4E92FF0E0E9596F
S1131070FD4F8081862B8083492F892FE2CE0895EE
S1131080E091A703F091A80319950895E091AD03A9
S1131090F091AE0319950895E091BF03F091C00358
S11310A019950895E091D103F091D203199508950B
S11310B0E091C103F091C20319950895E091CB0327
S11310C0F091CC0319950895E091BB03F091BC0312
S11310D019950895E091AF03F091B003199508951F
S11310E01F920F920FB60F9211240BB60F922F93EB
S11310F03F934F935F936F937F938F939F93AF939C
S1131100BF93CF93EF93FF9323B1EAE6F2E0C0815C
S1131110822F8C2790916402922330916702C3231B
S1131120C92BC8232083C4FDC3DFC5FDC7DFC6FDAB
S1131130CBDFCC230CF4CEDFC0FDA2DFC1FDA6DFE4
S1131140C2FDAADFC3FDAEDFFF91EF91CF91BF9146
S1131150AF919F918F917F916F915F914F913F914B
S11311602F910F900BBE0F900FBE0F901F901895EC
S1131170E091BD03F091BE0319950895E091B50384
S1131180F091B60319950895E091C703F091C8034F
S113119019950895E091B903F091BA03199508954A
S11311A0E091D303F091D40319950895E091C50318
S11311B0F091C60319950895E091C303F091C40317
S11311C019950895E091CF03F091D00319950895EE
S11311D01F920F920FB60F9211240BB60F922F93FA
S11311E03F934F935F936F937F938F939F93AF93AB
S11311F0BF93CF93EF93FF938CB1909103018170D0
S1131200990F982BEAE6F2E0C181892F8C2720916F
S11312106502292330916802C323C22BC82391831A
S1131220C0FDA6DFC1FDAADFC2FDAEDFC3FDB2DF94
S1131230C4FDB6DFC5FDBADFC6FDBEDFCC230CF4AA
S1131240C1DFFF91EF91CF91BF91AF919F918F91AA
S11312507F916F915F914F913F912F910F900BBEB2
S11312600F900FBE0F901F901895E091B103F0916D
S1131270B20319950895E091C903F091CA03199531
S11312800895E091A903F091AA0319950895E091B6
S1131290B303F091B40319950895E091D503F09147
S11312A0D60319950895E091AB03F091AC03199519
S11312B00895E091CD03F091CE0319950895E0913E
S11312C0B703F091B803199508951F920F920FB6C2
S11312D00F9211240BB60F922F933F934F935F936A
S11312E06F937F938F939F93AF93BF93CF93EF931A
S11312F0FF9320910601EAE6F2E0C281822F8C2757
S113130090916602922330916902C323C92BC823AA
S11313102283C0FDAADFC1FDAEDFC2FDB2DFC3FD83
S1131320B6DFC4FDBADFC5FDBEDFC6FDC2DFCC2318
S11313300CF4C5DFFF91EF91CF91BF91AF919F91D5
S11313408F917F916F915F914F913F912F910F906A
S11313500BBE0F900FBE0F901F901895E1E8F0E0C0
S11313601082808182608083808181608083E0E854
S1131370F0E0808181608083E1EBF0E08081846033
S11313808083E0EBF0E0808181608083E1E9F0E03C
S1131390808182608083808181608083E0E9F0E0E5
S11313A0808181608083E1EAF0E0808182608083D3
S11313B0808181608083E0EAF0E0808181608083C5
S11313C0E1E2F1E0808182608083808181608083BA
S11313D0E0E2F1E080818160808308951F93CF93E0
S11313E0DF93182FEB0161E005D9209721F460E029
S11313F0812F3FD9B6C0CF3FD10521F461E0812FC1
S113140038D9AFC0E12FF0E0E85EFE4FE4918E2FB3
S113141090E0FC013197E231F10508F098C088278B
S1131420E658FF4F8F4F0C94801284B5806884BDBA
S1131430C7BD97C085B5806285BDC8BD92C0E0E8D0
S1131440F0E0808180688083D0938900C093880015
S113145088C0E0E8F0E0808180628083D0938B00D4
S1131460C0938A007EC0E0E8F0E0808188608083D9
S1131470D0938D00C0938C0074C0E0EBF0E08081C9
S113148080688083C093B3006CC0E0EBF0E080819F
S113149080628083C093B40064C0E0E9F0E080819E
S11314A080688083D0939900C09398005AC0E0E983
S11314B0F0E0808180628083D0939B00C0939A0087
S11314C050C0E0E9F0E0808188608083D0939D0083
S11314D0C0939C0046C0E0EAF0E08081806880838D
S11314E0D093A900C093A8003CC0E0EAF0E080815A
S11314F080628083D093AB00C093AA0032C0E0EA3C
S1131500F0E0808188608083D093AD00C093AC000C
S113151028C0E0E2F1E0808180688083D0932901D3
S1131520C09328011EC0E0E2F1E0808180628083E4
S1131530D0932B01C0932A0114C0E0E2F1E0808132
S113154088608083D0932D01C0932C010AC0C038D9
S1131550D10524F460E0812F8CD803C061E0812F91
S113156088D8DF91CF911F910895E0919102F0E026
S1131570EE56FD4F20818091910290E001968F7389
S11315809078992324F40197806C9F6F019680933F
S113159091022093D600E0EDF0E0808183708064B6
S11315A080839091540380919102981305C0E1EDDA
S11315B0F0E080818F7D808308958091D00082FD4A
S11315C013C02091D6008091A2038F5F8F739091F6
S11315D09903891759F0E091A203F0E0ED52FD4F11
S11315E020838093A20308958091D60008951F92CA
S11315F00F920FB60F9211240BB60F922F933F93B5
S11316004F935F936F937F938F939F93AF93BF9306
S1131610EF93FF93D2DFFF91EF91BF91AF919F9131
S11316208F917F916F915F914F913F912F910F9087
S11316300BBE0F900FBE0F901F9018951F920F9224
S11316400FB60F9211240BB60F922F933F934F9323
S11316505F936F937F938F939F93AF93BF93EF9316
S1131660FF9383DFFF91EF91BF91AF919F918F9192
S11316707F916F915F914F913F912F910F900BBE8E
S11316800F900FBE0F901F901895789484B58260C8
S113169084BD84B5816084BD85B5826085BD85B512
S11316A0816085BDEEE6F0E08081816080830895ED
S11316B02FB7F89460916E0270916F02809170025E
S11316C0909171022FBF08953FB7F89480917202F0
S11316D090917302A0917402B091750226B5A89BF3
S11316E005C02F3F19F00196A11DB11D3FBFBA2FB0
S11316F0A92F982F8827820F911DA11DB11DBC0110
S1131700CD01660F771F881F991F660F771F881FEB
S1131710991F08958F929F92AF92BF92CF92DF92BA
S1131720EF92FF926B017C01CFDF4B015C01C1148E
S1131730D104E104F10489F421C021E0C21AD108E2
S1131740E108F10888EE880E83E0981EA11CB11C04
S1131750C114D104E104F10489F0B6DFDC01CB014A
S113176088199909AA09BB09883E9340A105B105C6
S113177020F7C114D104E104F10479F7FF90EF904C
S1131780DF90CF90BF90AF909F908F9008951F925D
S11317900F920FB60F9211242F933F938F939F9321
S11317A0AF93BF9380916E0290916F02A0917002EB
S11317B0B091710230916D0223E0230F2D3720F494
S11317C00196A11DB11D05C026E8230F0296A11D97
S11317D0B11D20936D0280936E0290936F02A093CB
S11317E07002B09371028091720290917302A09181
S11317F07402B09175020196A11DB11D809372020D
S113180090937302A0937402B0937502BF91AF9149
S11318109F918F913F912F910F900FBE0F901F902A
S113182018958F929F92AF92BF92CF92DF92EF92D0
S1131830FF920F931F93CF938B0149015A01789420
S11318409091110289130AC3EBE7F2E0C491F6C048
S113185080931102EBE7F2E0C491CF3F09F444C353
S1131860C23009F457C028F4CC2361F0C13071F1BF
S1131870E5C0C43009F49AC008F474C0C53009F452
S1131880B9C0DCC014BC15BC94B5926094BD95B5C8
S1131890916095BD282F30E0F901EE51FE4FE4919F
S11318A0F0E0EE0FFF1FE95BFD4F4591549150931B
S11318B0F0034093EF03F901E358FE4F2491209382
S11318C0D70361E00E94FA02C0E090C21092800047
S11318D0E1E8F0E0108290819860908390819160BB
S11318E09083282F30E0F901EE51FE4FE491F0E0AF
S11318F0EE0FFF1FE95BFD4F459154915093F703A1
S11319004093F603F901E358FE4F24912093F50325
S1131910C1E0E6C2A0EBB0E01C92E1EBF0E0108283
S11319209C9192609C93908191609083282F30E0E9
S1131930F901EE51FE4FE491F0E0EE0FFF1FE95B79
S1131940FD4F459154915093DE034093DD03F9011B
S1131950E358FE4F24912093EA0361E00E94FA02C7
S1131960C2E00BC210929000E1E9F0E01082908195
S113197098609083908191609083282F30E0F901E2
S1131980EE51FE4FE491F0E0EE0FFF1FE95BFD4FD7
S1131990459154915093E1034093E003F901E358D6
S11319A0FE4F24912093D803C3E09AC21092A00062
S11319B0E1EAF0E0108290819860908390819160D8
S11319C09083282F30E0F901EE51FE4FE491F0E0CE
S11319D0EE0FFF1FE95BFD4F459154915093EE03C9
S11319E04093ED03F901E358FE4F24912093DF0364
S11319F0C4E076C210922001E1E2F1E0108290810D
S1131A0098609083908191609083282F30E0F90151
S1131A10EE51FE4FE491F0E0EE0FFF1FE95BFD4F46
S1131A20459154915093EC034093EB03F901E3582F
S1131A30FE4F24912093FC03C5E052C2CC230CF446
S1131A4053C261E00E94FA02CC2309F4CFC1C23030
S1131A5009F077C092C16801E12CF12C60E970EDC6
S1131A6083E090E0A701960129D569017A0181E01C
S1131A70C81AD108E108F1089FEFC916D104E1049E
S1131A80F10411F008F0CCC183E054C098013695FC
S1131A90322F22273795279540E050E060E074E22A
S1131AA084EF90E00BD569017A0181E0C81AD1086E
S1131AB0E108F10883E011C0302F222740E050E014
S1131AC060E074E284EF90E0F9D469017A0191E076
S1131AD0C91AD108E108F10885E09FEFC916D104BD
S1131AE0E104F104B9F0B0F09801322F2227330F4A
S1131AF040E050E060E074E284EF90E0DFD46901FC
S1131B007A0181E0C81AD108E108F108CC2309F46C
S1131B10BFC1DDC1C1110EC095B5987F892B85BDAC
S1131B2081149104A104B10409F082C02FEF3FEFA6
S1131B30A9019DC0E1EBF0E09081987F892B80831F
S1131B4072C09801220F331F40E050E060E074E25D
S1131B5084EF90E0B3D469017A0191E0C91AD10805
S1131B60E108F108C114D10481E0E806F104B0F001
S1131B7098013695322F22273795279540E050E07B
S1131B8060E074E284EF90E099D469017A0191E015
S1131B90C91AD108E108F10883E001C081E0C1302D
S1131BA079F4E1E8F0E09081987F892B80838114B7
S1131BB09104A104B104E1F52FEF3FEFA90166C040
S1131BC0C33079F4E1E9F0E09081987F892B808338
S1131BD081149104A104B10459F52FEF3FEFA90139
S1131BE077C0C43079F4E1EAF0E09081987F892BE2
S1131BF0808381149104A104B104D1F42FEF3FEF49
S1131C00A90178C0C53079F4E1E2F1E09081987FD0
S1131C10892B808381149104A104B10449F42FEF2A
S1131C203FEFA90179C081149104A104B10461F0CA
S1131C30D801AA0FBB1FA50194016AD428EE33E092
S1131C4040E050E03BD403C02FEF3FEFA901C23086
S1131C5079F12CF4CC2359F0C130C1F045C1C43022
S1131C6009F448C0ACF1C53009F456C03DC1C7BC45
S1131C702093F8033093F9034093FA035093FB0342
S1131C80EEE6F0E08081826080832EC1D0928900EC
S1131C90C09288002093F1033093F2034093F3033E
S1131CA05093F403EFE6F0E08081826080831CC1EE
S1131CB0C092B3002093FD033093FE034093FF03CF
S1131CC050930004E0E7F0E08081826080830CC1DF
S1131CD0D0929900C09298002093E6033093E703D2
S1131CE04093E8035093E903E1E7F0E080818260E8
S1131CF08083FAC0D092A900C092A8002093E20386
S1131D003093E3034093E4035093E503E2E7F0E008
S1131D10808182608083E8C0D0922901C09228012A
S1131D202093D9033093DA034093DB035093DC030D
S1131D30E3E7F0E0808182608083D6C09801229539
S1131D403295307F3227207F322740E050E060E038
S1131D5074E284EF90E0B2D369017A0181E0C81A99
S1131D60D108E108F1089FEFC916D104E104F10498
S1131D7011F008F070CE82E0DDCE9801220F331FFF
S1131D8040E050E060E074E284EF90E097D36901B2
S1131D907A0181E0C81AD108E108F1089FEFC91659
S1131DA0D104E104F10409F048F681E0C3CE9801BE
S1131DB022953295307F3227207F322740E050E051
S1131DC060E074E284EF90E079D369017A0181E004
S1131DD0C81AD108E108F1089FEFC916D104E1043B
S1131DE0F10411F008F052CE82E096CE9801220F51
S1131DF0331F40E050E060E074E284EF90E05ED393
S1131E0069017A0181E0C81AD108E108F1089FEF5D
S1131E10C916D104E104F10409F048F681E07CCE4E
S1131E2098013695322F22273795279540E050E0C8
S1131E3060E074E284EF90E041D369017A0181E0CB
S1131E40C81AD108E108F1089FEFC916D104E104CA
S1131E50F10411F008F030CE84E06CCE9F3F09F01D
S1131E6043C0F6CC9801322F2227330F330F330FA0
S1131E7040E050E060E074E284EF90E01FD3690139
S1131E807A0181E0C81AD108E108F10885E044CE5E
S1131E909FEFC916D104E104F10409F018F784E0B6
S1131EA039CE9801322F2227330F330F330F40E0FE
S1131EB050E060E074E284EF90E000D369017A01BD
S1131EC081E0C81AD108E108F10887E033CE9FEF1A
S1131ED0C916D104E104F10409F018F786E01ACE1A
S1131EE061E00E94FA022DCECF911F910F91FF90D5
S1131EF0EF90DF90CF90BF90AF909F908F90089518
S1131F008230A9F028F4882349F0813051F00895F3
S1131F10843021F1E8F0853039F1089510926E0093
S1131F200895EFE6F0E080818D7F80830895E0E7F7
S1131F30F0E080818D7F808381E08093B000E1EBCD
S1131F40F0E08081887F846080831092B3000895DC
S1131F50E1E7F0E080818D7F80830895E2E7F0E09F
S1131F6080818D7F80830895E3E7F0E080818D7F19
S1131F7080830895CF93C82F80911102C81307C09E
S1131F80EBE7F2E084919FEF9093110201C08FEF91
S1131F90B7DF60E08C2F0E943903CF9108951F9220
S1131FA00F920FB60F9211240BB60F922F933F93FB
S1131FB04F935F936F937F938F939F93AF93BF934D
S1131FC0EF93FF938091E6039091E703A091E803D8
S1131FD0B091E903892B8A2B8B2B51F19091D80373
S1131FE0E091E003F091E10380818927808380916F
S1131FF0E6039091E703A091E803B091E903181672
S113200019061A061B0604F58091E6039091E7036E
S1132010A091E803B091E9030197A109B109809364
S1132020E6039093E703A093E803B093E9030CC09D
S113203083E066DF8091D803E091E003F091E1034F
S11320409081809589238083FF91EF91BF91AF9117
S11320509F918F917F916F915F914F913F912F91BC
S11320600F900BBE0F900FBE0F901F90189541E07C
S113207060E082E392E00C94B002089589E50E9446
S11320805B038EE392E00C94C904089588E50C94F4
S11320905B03089587E50C945B0308950F931F93E6
S11320A0CF93DF93CDB7DEB72A970FB6F894DEBF90
S11320B00FBECDBF162F042F4AE0BE016F5F7F4FC6
S11320C054D2402F612FCE0101960E94B0022A966D
S11320D00FB6F894DEBF0FBECDBFDF91CF911F9135
S11320E00F910895CF93DF93CDB7DEB72A970FB63C
S11320F0F894DEBF0FBECDBFC8DA30D90E94BB0250
S113210046E060E875E280E090E00E9475030E947A
S113211014020E94E70140E060E089E492E00E943A
S1132120B00261E089E50E94FA0261E088E50E945C
S1132130FA0261E087E50E94FA0260E081E40E940D
S1132140FA0260E082E40E94FA0260E083E40E9402
S1132150FA0243E06EE370E18BE00E94690743E01A
S113216066E470E18CE00E94690743E06AE470E190
S11321708DE00E94690743E050E067E370E185E089
S11321800E944C056FE370E08FE028D902E112E071
S11321900F2EF2E2AF2EF2E0BF2EF02D0F2EF2E260
S11321A0CF2EF2E0DF2EF02D0F2EF8EEEF2EF3E01F
S11321B0FF2EF02DF801619171918F01C7016BD150
S11321C0CB01F501619171915F012C01990F6608B2
S11321D07708A301920185E024DBC301B2016CD02E
S11321E026E636E646EA5FE3CBD033D0072E000C72
S11321F0880B990B8FDA85E0BDDE0C151D05D1F631
S113220081E60E94CA0241E064E048DF62E370E0D4
S113221080E090E07FDA41E060E08AE592E00E94AD
S1132220B00261E080E00E94F0010E94DE03892B8D
S113223039F368EE73E080E090E06CDA6AE070E015
S1132240CE0101960E943004CE0101960E94C90479
S1132250D7CF04D06894B1118DC0089570D088F0A0
S11322609F5790F0B92F9927B751A0F0D1F0660F7E
S1132270771F881F991F1AF0BA95C9F712C0B13099
S113228081F077D0B1E0089574C0672F782F882744
S1132290B85F39F0B93FCCF3869577956795B395D8
S11322A0D9F73EF490958095709561957F4F8F4F47
S11322B09F4F0895E89409C097FB3EF4909580954C
S11322C0709561957F4F8F4F9F4F9923A9F0F92FF8
S11322D096E9BB279395F695879577956795B79576
S11322E0F111F8CFFAF4BB0F11F460FF1BC06F5F5C
S11322F07F4F8F4F9F4F16C0882311F096E911C06E
S1132300772321F09EE8872F762F05C0662371F08E
S113231096E8862F70E060E02AF09A95660F771FA2
S1132320881FDAF7880F9695879597F9089557FDD2
S11323309058440F551F59F05F3F71F04795880F2F
S113234097FB991F61F09F3F79F0879508951216C6
S113235013061406551FF2CF4695F1DF08C0161672
S113236017061806991FF1CF869571056105089423
S11323700895E894BB2766277727CB0197F908953A
S11323800BD078C069D028F06ED018F0952309F0EE
S11323905AC05FC01124EECFCADFA0F3959FD1F3DA
S11323A0950F50E0551F629FF001729FBB27F00DFF
S11323B0B11D639FAA27F00DB11DAA1F649F662754
S11323C0B00DA11D661F829F2227B00DA11D621FA3
S11323D0739FB00DA11D621F839FA00D611D221F5D
S11323E0749F3327A00D611D231F849F600D211D41
S11323F0822F762F6A2F11249F5750408AF0E1F0E4
S113240088234AF0EE0FFF1FBB1F661F771F881F2C
S113241091505040A9F79E3F510570F014C0AACFC7
S11324205F3FECF3983EDCF3869577956795B79517
S1132430F795E7959F5FC1F7FE2B880F911D969541
S1132440879597F9089597F99F6780E870E060E0B1
S113245008959FEF80EC089500240A941616170639
S113246018060906089500240A9412161306140681
S113247005060895092E0394000C11F4882352F0E4
S1132480BB0F40F4BF2B11F460FF04C06F5F7F4F9C
S11324908F4F9F4F089597FB072E16F4009406D094
S11324A077FD08D03FD007FC05D03EF49095819588
S11324B09F4F0895709561957F4F0895A1E21A2E5C
S11324C0AA1BBB1BFD010DC0AA1FBB1FEE1FFF1FD4
S11324D0A217B307E407F50720F0A21BB30BE40B24
S11324E0F50B661F771F881F991F1A9469F760956B
S11324F07095809590959B01AC01BD01CF01089525
S1132500EE0FFF1F881F8BBF0790F691E02D1994E3
S11325101DD0A59F900DB49F900DA49F800D911D7B
S113252011240895AA1BBB1B51E107C0AA1FBB1F9E
S1132530A617B70710F0A61BB70B881F991F5A954B
S1132540A9F780959095BC01CD010895A29FB00193
S1132550B39FC001A39F700D811D1124911DB29FD3
S1132560700D811D1124911D0895BB274A3031F44B
S1132570992322F4BDE2909581959F4F01C0BB271A
S1132580FB015527AA27880F991FAA1FA41710F02B
S1132590A41B83955051B9F7A05DAA3308F0A95D37
S11325A0A193009779F7B111B1931192CB0100C0B7
S11325B0DC01FC01672F71917723E1F7329704C0A6
S11325C07C916D9370836291AE17BF07C8F3089531
S10725D0F894FFCFA9
S11325D4014B054B054B054B054B054B054B054B77
S11325E405FF0400080008000400040004000400BB
S11325F404000601C400C400DC00C4000000F700A9
S11326040601534420446574656374656400476F2C
S11326146F64207374756666004D435520545241AB
S1132624494E494E47204B4954004144433A2020E3
S1072634202000005E
S9030000FC
