S00E0000544B323536302E73726563AA
S11300003DC10000F0C3000019C4000042C4000058
S11300106BC4000094C40000BDC40000E6C400002A
S11300200FC5000087C60000FDC6000078C70000A9
S113003046C1000044C1000042C1000040C10000AC
S11300403EC100003CC100003AC1000038C10000BC
S113005036C1000034C1000032C100000C948F0A84
S11300602EC100002CC100002AC1000028C10000DC
S113007026C1000024C1000022C1000020C10000EC
S11300800C94130B1CC100001AC1000018C100001D
S113009016C1000014C1000012C1000010C100000C
S11300A00EC100000CC100000AC1000008C100001C
S11300B006C1000004C1000002C1000000C100002C
S11300C0FEC00000FCC00000FAC000000C94CB0984
S11300D00C94F209F4C00000F2C00000F0C000006B
S11300E0EEC000008D039503A103AF03C003C80352
S11300F0D403E2033E084308480852085C08D008C9
S113010066086E08760880088A0894089E08A8087D
S1130110D008B208BC08C6080002000000090A0B97
S1130120000000000000000C0D0E08000000000795
S11301300304010000000000000000000000101192
S11301401200000000000000000000000000000099
S1130150000000000000000000000000000000009B
S1130160000000000000000000000000000000008B
S1130170000000000000000000000000000020015A
S113018002040810204080000001020408102040EE
S113019001020408102040808008100000000000C4
S11301A0010204081020408001020408102040804D
S11301B0010201020408102040800000010204082A
S11301C010204004804020100804020180000080B8
S11301D0402010080402018040201008040201009D
S11301E000000007050505050505050500000808CC
S11301F008080808080202020202020202080707AD
S113020000000000000C0C0C0C0C0C0C0C0404047E
S113021004040404040707030303030303030300A0
S1130220000A0A0A0A0A0A0A070101010101010176
S1130230010A00000B0B0B0B0B0B0B0B060606063F
S11302400606060600000000002200250028002BF8
S1130250002E003100340002010000050108010BEA
S11302600100002100240027002A002D0030003363
S11302700001010000040107010A010011241FBE4E
S1130280CFEFD1E2DEBFCDBF00E00CBF12E0A0E0B3
S1130290B2E0EEEDF8E100E00BBF02C007900D9272
S11302A0A833B107D9F723E0A8E3B2E001C01D9257
S11302B0A933B207E1F70E94B80B0C946D0CA0CEE1
S11302C0159885E08A95F1F70000159A95E09A95BE
S11302D0F1F7000015988FE891E00197F1F700C05D
S11302E000000895CF93DF93E0E5F2E020E030E0F2
S11302F0A82FB0E0C1E0D0E0AD01022E02C05595B8
S113030047950A94E2F740FF0BC082B1AE0100802A
S113031002C0440F551F0A94E2F7482B42B90CC09F
S113032042B1BE01008002C0660F771F0A94E2F753
S1130330962F9095942392B92F5F3F4F3196243096
S11303403105D1F6BDDFDF91CF9108958695817097
S1130350E0E5F2E068E572E0A1E0B0E0882359F05E
S113036092B19D01008002C0220F331F0A94E2F76C
S1130370292B22B90CC022B1AD01008002C0440F68
S1130380551F0A94E2F7942F9095922392B93196CF
S1130390E617F70719F794CF0895CF93C82F66236C
S11303A011F0179A01C0179816988091590284FF8A
S11303B003C08C2FCBDF06C08C2F82958F7092DF09
S11303C08C2F90DFCF91089560E0E7CF089581E00E
S11303D0FBDF8FE39FE10197F1F700C00000089570
S11303E0EAE4F2E0108290E4918394E1928394E54C
S11303F09383643008F063E090914F02691710F022
S11304006FEF690FE62FF0E0E65BFD4F9081890FF7
S11304108068DACF089580914E02982F946090936B
S11304204E028C60D1CF0895CF93E0E5F2E083E0F3
S1130430808382E0818391E0928313821482158207
S11304401682178298E09093590280934F020F9A74
S11304500E9A0D9A0C9A149A20E030E0C8E0B0E0AD
S1130460A4E050E061E070E00CC041B1CB01019028
S113047002C0880F991F0A94E2F7842B81B92F5F79
S11304803F4F8091590284FD03C08A2F952F02C0EB
S11304908C2F9B2F2817390744F32FEF80E792E026
S11304A0215080409040E1F700C000001798159853
S11304B016988091590284FD1BC083E013DF8FE4FA
S11304C096E40197F1F700C0000083E00BDF8FE4AE
S11304D096E40197F1F700C0000083E003DF87E5AD
S11304E092E00197F1F700C0000082E0FBDE16C045
S11304F080626ADF8FE496E40197F1F700C00000A0
S113050080915902806260DF87E592E00197F1F7FC
S113051000C0000080915902806256DF8091590228
S1130520806252DF84E080934E0275DF50DF82E008
S11305308093580286E048DFCF91089561E02DDF73
S113054081E00895CF93DF93EC018881882329F01B
S11305502196F4DF89918111FCCFDF91CF91089529
S1130560CF93DF93EC01862F642F3ADFCE01EADFCD
S1130570DF91CF910895EAE7F0E080818460808381
S113058080818260808380818160808380818068B3
S11305908083089596EA980F983020F491E6981B8A
S11305A0892F09C09EEA980F983020F491E6981B91
S11305B0892F01C08FEFEBE7F0E09081282F28709E
S11305C0977F922B90832091000290E4299F9001C1
S11305D011248F70822B80937C00EAE7F0E0808105
S11305E080648083808186FDFDCF80917800909126
S11305F079000895CF93DF9390E0FC01E358FE4F18
S11306002491FC01EE51FE4F8491882379F190E00E
S1130610880F991FFC01EF59FD4FA591B491FC017E
S1130620E95BFD4FC591D49161110CC09FB7F8945B
S11306308C91E22FE0958E238C932881E223E8832A
S11306409FBF14C0623061F49FB7F8948C91322F2D
S1130650309583238C93E881E22BE8839FBF06C007
S11306608FB7F894EC91E22BEC938FBFDF91CF918D
S1130670089590E0FC01E358FE4F2491FC01EE51F3
S1130680FE4F84918823B1F0E82FF0E0EE0FFF1FB6
S1130690E95BFD4FA591B4918FB7F894611106C041
S11306A09C91E22FE095E923EC9303C0EC91E22BBB
S11306B0EC938FBF089590E0FC01E358FE4F249122
S11306C0FC01EE51FE4F8491882371F0E82FF0E095
S11306D0EE0FFF1FE95BFD4FA591B4918FB7F8941E
S11306E0EC91E227EC938FBF08950895883008F0C9
S11306F079C0E82FF0E0EE0FFF1FEF5FFD4F71832D
S1130700608390E08830910508F06CC0FC01882774
S1130710EE58FF4F8F4F0C94320CE9E6F0E08081E5
S11307208C7F482B4083E89A0895E9E6F0E08081C5
S1130730837F440F551F440F551F482B4083E99A6C
S11307400895E9E6F0E080818F7C42955295507FD0
S11307505427407F5427482B4083EA9A0895E9E6BA
S1130760F0E080818F730024569547950794569541
S113077047950794542F402D482B4083EB9A0895B6
S1130780EAE6F0E080818C7F482B4083EC9A089560
S1130790EAE6F0E08081837F440F551F440F551F24
S11307A0482B4083ED9A0895EAE6F0E080818F7C3F
S11307B042955295507F5427407F5427482B4083BD
S11307C0EE9A0895EAE6F0E080818F73002456954E
S11307D047950794569547950794542F402D482BD9
S11307E04083EF9A08951F920F920FB60F9211242F
S11307F00BB60F922F933F934F935F936F937F9317
S11308008F939F93AF93BF93EF93FF93E091010274
S1130810F09102021995FF91EF91BF91AF919F91D1
S11308208F917F916F915F914F913F912F910F9095
S11308300BBE0F900FBE0F901F9018951F920F9232
S11308400FB60F9211240BB60F922F933F934F9331
S11308505F936F937F938F939F93AF93BF93EF9324
S1130860FF93E0910302F09104021995FF91EF9137
S1130870BF91AF919F918F917F916F915F914F91B4
S11308803F912F910F900BBE0F900FBE0F901F90B2
S113089018951F920F920FB60F9211240BB60F9258
S11308A02F933F934F935F936F937F938F939F9374
S11308B0AF93BF93EF93FF93E0910502F09106028B
S11308C01995FF91EF91BF91AF919F918F917F9176
S11308D06F915F914F913F912F910F900BBE0F90AD
S11308E00FBE0F901F9018951F920F920FB60F9284
S11308F011240BB60F922F933F934F935F936F93F3
S11309007F938F939F93AF93BF93EF93FF93E09164
S11309100702F09108021995FF91EF91BF91AF91F1
S11309209F918F917F916F915F914F913F912F9103
S11309300F900BBE0F900FBE0F901F9018951F9233
S11309400F920FB60F9211240BB60F922F933F9371
S11309504F935F936F937F938F939F93AF93BF93C3
S1130960EF93FF93E0910902F0910A021995FF9128
S1130970EF91BF91AF919F918F917F916F915F9113
S11309804F913F912F910F900BBE0F900FBE0F9080
S11309901F9018951F920F920FB60F9211240BB649
S11309A00F922F933F934F935F936F937F938F9304
S11309B09F93AF93BF93EF93FF93E0910B02F0915A
S11309C00C021995FF91EF91BF91AF919F918F9177
S11309D07F916F915F914F913F912F910F900BBE3B
S11309E00F900FBE0F901F9018951F920F920FB685
S11309F00F9211240BB60F922F933F934F935F9353
S1130A006F937F938F939F93AF93BF93EF93FF93D2
S1130A10E0910D02F0910E021995FF91EF91BF91B3
S1130A20AF919F918F917F916F915F914F913F9182
S1130A302F910F900BBE0F900FBE0F901F90189523
S1130A401F920F920FB60F9211240BB60F922F9391
S1130A503F934F935F936F937F938F939F93AF9342
S1130A60BF93EF93FF93E0910F02F0911002199559
S1130A70FF91EF91BF91AF919F918F917F916F9172
S1130A805F914F913F912F910F900BBE0F900FBE2E
S1130A900F901F901895982F813059F018F08230DC
S1130AA0A1F01BC083B1E42FF0E0E25CFD4F808332
S1130AB01AC02CB180910301E42FF0E0E25CFD4FF9
S1130AC02170880F822B808314C080910601E42F4B
S1130AD0F0E0E25CFD4F808312C0813051F018F0E9
S1130AE0823091F40CC0EBE6F0E08081682B6083E7
S1130AF00BC0ECE6F0E08081682B608305C0EDE676
S1130B00F0E08081682B6083E8E6F0E0408121E03A
S1130B1030E0B90102C0660F771F9A95E2F7CB0166
S1130B20842B80830895982F969596959695282FD3
S1130B3027707894911139C0811105C07093E00237
S1130B406093DF020EC0813029F47093E602609353
S1130B50E5020EC0823029F47093F8026093F70224
S1130B600EC0833029F470930A03609309030EC006
S1130B70843029F47093FA026093F9020EC0853030
S1130B8029F4709304036093030384C0863029F42A
S1130B907093F4026093F3027DC0873009F07AC049
S1130BA07093E8026093E70275C09130C9F588300C
S1130BB029F47093F6026093F5020EC0893029F48B
S1130BC07093EE026093ED020EC08A3029F47093A4
S1130BD000036093FF020EC08B3029F47093F2027D
S1130BE06093F1020EC08C3029F470930C0360936F
S1130BF00B030EC08D3029F47093FE026093FD0246
S1130C0049C08E3029F47093FC026093FB0242C009
S1130C108F3009F03FC070930803609307033AC014
S1130C20923009F056C0803129F47093EA0260933F
S1130C30E9020EC0813129F4709302036093010329
S1130C400EC0823129F47093E2026093E1020EC077
S1130C50833129F47093EC026093EB020EC084316B
S1130C6029F470930E0360930D030EC0853129F4AB
S1130C707093E4026093E3020DC0863129F470930B
S1130C8006036093050306C0873121F47093F002D4
S1130C906093EF0261E070E002C0660F771F2A954F
S1130CA0E2F7842F8D7F813039F4E92FF0E0E85C9E
S1130CB0FD4F8081862B80834150423038F4E92FE8
S1130CC0F0E0E55CFD4F8081862B8083492F892FDE
S1130CD0E2CE0895E091DF02F091E00219950895C3
S1130CE0E091E502F091E60219950895E091F7028A
S1130CF0F091F80219950895E0910903F0910A031F
S1130D0019950895E091F902F091FA021995089560
S1130D10E0910303F091040319950895E091F3021F
S1130D20F091F40219950895E091E702F091E80238
S1130D30199508951F920F920FB60F9211240BB6B6
S1130D400F922F933F934F935F936F937F938F9360
S1130D509F93AF93BF93CF93EF93FF9323B1EEE3AE
S1130D60F2E0C081822F8C27909138029223309137
S1130D703B02C323C92BC8232083C4FDC3DFC5FDA5
S1130D80C7DFC6FDCBDFCC230CF4CEDFC0FDA2DF72
S1130D90C1FDA6DFC2FDAADFC3FDAEDFFF91EF9167
S1130DA0CF91BF91AF919F918F917F916F915F91FF
S1130DB04F913F912F910F900BBE0F900FBE0F904C
S1130DC01F901895E091F502F091F6021995089597
S1130DD0E091ED02F091EE0219950895E091FF0281
S1130DE0F091000319950895E091F102F091F20257
S1130DF019950895E0910B03F0910C03199508954A
S1130E00E091FD02F091FE0219950895E091FB0234
S1130E10F091FC0219950895E0910703F0910803FD
S1130E20199508951F920F920FB60F9211240BB6C5
S1130E300F922F933F934F935F936F937F938F936F
S1130E409F93AF93BF93CF93EF93FF938CB1909104
S1130E5003018170990F982BEEE3F2E0C181892F91
S1130E608C2720913902292330913C02C323C22BC1
S1130E70C8239183C0FDA6DFC1FDAADFC2FDAEDF9A
S1130E80C3FDB2DFC4FDB6DFC5FDBADFC6FDBEDFFC
S1130E90CC230CF4C1DFFF91EF91CF91BF91AF91BF
S1130EA09F918F917F916F915F914F913F912F917E
S1130EB00F900BBE0F900FBE0F901F901895E091EE
S1130EC0E902F091EA0219950895E0910103F09185
S1130ED0020319950895E091E102F091E202199557
S1130EE00895E091EB02F091EC0219950895E091D8
S1130EF00D03F0910E0319950895E091E302F0912A
S1130F00E40219950895E0910503F09106031995FB
S1130F100895E091EF02F091F002199508951F925F
S1130F200F920FB60F9211240BB60F922F933F938B
S1130F304F935F936F937F938F939F93AF93BF93DD
S1130F40CF93EF93FF9320910601EEE3F2E0C28189
S1130F50822F8C2790913A02922330913D02C32331
S1130F60C92BC8232283C0FDAADFC1FDAEDFC2FDA9
S1130F70B2DFC3FDB6DFC4FDBADFC5FDBEDFC6FD0B
S1130F80C2DFCC230CF4C5DFFF91EF91CF91BF9169
S1130F90AF919F918F917F916F915F914F913F910D
S1130FA02F910F900BBE0F900FBE0F901F901895AE
S1130FB0E1E8F0E01082808182608083808181603A
S1130FC08083E0E8F0E0808181608083E1EBF0E001
S1130FD0808184608083E0EBF0E0808181608083A5
S1130FE0E1E9F0E080818260808380818160808398
S1130FF0E0E9F0E0808181608083E1EAF0E08081D3
S113100082608083808181608083E0EAF0E0808177
S113101081608083E1E2F1E080818260808380816D
S113102081608083E0E2F1E08081816080830895C3
S11310301F93CF93DF93182FEB0161E0DBDA209746
S113104021F460E0812F15DBB5C0CF3FD10521F439
S113105061E0812F0EDBAEC0E12FF0E0E85EFE4FD1
S1131060E4918E2F90E0FC013197E231F10508F014
S113107097C08827E658FF4F8F4FF4C384B5806824
S113108084BDC7BD97C085B5806285BDC8BD92C00B
S1131090E0E8F0E0808180688083D0938900C09389
S11310A0880088C0E0E8F0E0808180628083D0938B
S11310B08B00C0938A007EC0E0E8F0E08081886005
S11310C08083D0938D00C0938C0074C0E0EBF0E07B
S11310D0808180688083C093B3006CC0E0EBF0E053
S11310E0808180628083C093B40064C0E0E9F0E052
S11310F0808180688083D0939900C09398005AC0FF
S1131100E0E9F0E0808180628083D0939B00C0930B
S11311109A0050C0E0E9F0E0808188608083D09339
S11311209D00C0939C0046C0E0EAF0E080818068A6
S11311308083D093A900C093A8003CC0E0EAF0E00B
S1131140808180628083D093AB00C093AA0032C0B8
S1131150E0EAF0E0808188608083D093AD00C093A2
S1131160AC0028C0E0E2F1E0808180688083D09305
S11311702901C09328011EC0E0E2F1E08081806271
S11311808083D0932B01C0932A0114C0E0E2F1E0E4
S1131190808188608083D0932D01C0932C010AC084
S11311A0C038D10524F460E0812F63DA03C061E024
S11311B0812F5FDADF91CF911F910895CF92DF9253
S11311C0EF92FF92CF936B017C01C42F1092DE0249
S11311D01092DD021092DC0210925B0282E0809396
S11311E0D000C11481EED806E104F104A9F060E056
S11311F079E08DE390E0A701960112D3DA01C901E9
S11312000197A109B109B695A795979587959C0172
S1131210211580E1380798F01092D00060E874E856
S11312208EE190E0A7019601FBD2DA01C901019792
S1131230A109B109B695A795979587959C01309317
S1131240D5002093D400C093D200E1EDF0E080817A
S113125080618083808188608083808180688083CE
S113126080818F7D8083CF91FF90EF90DF90CF902E
S11312700895E0915B02F0E0E45AFD4F20818091F3
S11312805B0290E001968F739078992324F4019780
S1131290806C9F6F019680935B022093D600E0EDF3
S11312A0F0E080818370806480839091DC0280917F
S11312B05B02981305C0E1EDF0E0808180628083D9
S11312C008950F931F93CF93DF932091DC029091A5
S11312D05B02291310C09091D00095FF0CC09FB7FA
S11312E0F8948093D600E0EDF0E080818370806410
S11312F080839FBF2FC02091DC0230E02F5F3F4FDF
S11313002F733078332334F421503109206C3F6F2C
S11313102F5F3F4FD82FC22F00ED10E007C00FB64C
S113132007FC04C0F801808185FDA3DF90915B0276
S1131330C917A9F3E091DC02F0E0E45AFD4FD08331
S11313409FB7F894C093DC02E1EDF0E08081806205
S113135080839FBF81E090E0DF91CF911F910F9137
S113136008958091D00082FD13C02091D600809111
S1131370DE028F5F8F739091DD02891759F0E0913F
S1131380DE02F0E0E456FD4F20838093DE020895F0
S11313908091D60008951F920F920FB60F921124D8
S11313A00BB60F922F933F934F935F936F937F935B
S11313B08F939F93AF93BF93EF93FF93D2DFFF91EC
S11313C0EF91BF91AF919F918F917F916F915F91B9
S11313D04F913F912F910F900BBE0F900FBE0F9026
S11313E01F9018951F920F920FB60F9211240BB6EF
S11313F00F922F933F934F935F936F937F938F93AA
S11314009F93AF93BF93EF93FF9333DFFF91EF91DC
S1131410BF91AF919F918F917F916F915F914F9108
S11314203F912F910F900BBE0F900FBE0F901F9006
S11314301895789484B5826084BD84B5816084BD38
S113144085B5826085BD85B5816085BDEEE6F0E039
S113145080818160808308953FB7F894809146022B
S113146090914702A0914802B091490226B5A89BE9
S113147005C02F3F19F00196A11DB11D3FBFBA2F22
S1131480A92F982F8827820F911DA11DB11DBC0182
S1131490CD01660F771F881F991F660F771F881F5E
S11314A0991F08958F929F92AF92BF92CF92DF922D
S11314B0EF92FF926B017C01CFDF4B015C01C11401
S11314C0D104E104F10489F421C021E0C21AD10855
S11314D0E108F10888EE880E83E0981EA11CB11C77
S11314E0C114D104E104F10489F0B6DFDC01CB01BD
S11314F088199909AA09BB09883E9340A105B10539
S113150020F7C114D104E104F10479F7FF90EF90BE
S1131510DF90CF90BF90AF909F908F9008951F92CF
S11315200F920FB60F9211242F933F938F939F9393
S1131530AF93BF938091420290914302A0914402E1
S1131540B09145023091410223E0230F2D3720F45E
S11315500196A11DB11D05C026E8230F0296A11D09
S1131560B11D209341028093420290934302A093C1
S11315704402B09345028091460290914702A091A3
S11315804802B09149020196A11DB11D8093460203
S113159090934702A0934802B0934902BF91AF9140
S11315A09F918F913F912F910F900FBE0F901F909D
S11315B018958230A9F028F4882349F0813051F03D
S11315C00895843021F1E8F0853039F108951092BE
S11315D06E000895EFE6F0E080818D7F80830895AA
S11315E0E0E7F0E080818D7F808381E08093B0002C
S11315F0E1EBF0E08081887F846080831092B30007
S11316000895E1E7F0E080818D7F80830895E2E72B
S1131610F0E080818D7F80830895E3E7F0E08081AE
S11316208D7F808308951F920F920FB60F9211241D
S11316300BB60F922F933F934F935F936F937F93C8
S11316408F939F93AF93BF93EF93FF9380911E0368
S113165090911F03A0912003B0912103892B8A2B21
S11316608B2B51F190911003E0911803F091190321
S113167080818927808380911E0390911F03A0910C
S11316802003B0912103181619061A061B0604F547
S113169080911E0390911F03A0912003B091210318
S11316A00197A109B10980931E0390931F03A0938E
S11316B02003B09321030CC083E07BDF80911003EF
S11316C0E0911803F0911903908180958923808318
S11316D0FF91EF91BF91AF919F918F917F916F9106
S11316E05F914F913F912F910F900BBE0F900FBEC2
S11316F00F901F90189541E060E081E192E00C9416
S1131700B002089588E50C945B03089587E50C9472
S11317105B03089589E50E945B0387E4D2DD8FE6CD
S1131720D0DD8FE6CECD08950F931F93CF93DF9333
S1131730CDB7DEB72A970FB6F894DEBF0FBECDBF84
S1131740162F042F4AE0BE016F5F7F4F93D0402FC6
S1131750612FCE0101960E94B0022A960FB6F8942A
S1131760DEBF0FBECDBFDF91CF911F910F910895C2
S113177060DE1EDC0E94BB0246E060E875E280E0A9
S113178090E01CDD0E9414020E94E70140E060E04A
S11317908DE192E00E94B00261E089E50E94FA02C4
S11317A061E088E50E94FA0261E087E50E94FA029E
S11317B060E081E40E94FA0260E082E40E94FA029E
S11317C060E083E40E94FA0243E06AE87BE08BE095
S11317D0AAD943E062E87BE08CE0A5D943E066E85F
S11317E07BE08DE0A0D943E050E06BE77BE085E04F
S11317F00E9476036FE370E08FE01ADC81E60E94BA
S1131800CA0241E064E090DF62E370E080E090E0CF
S113181049DE41E060E08EE292E00E94B002EECF49
S1131820A1E21A2EAA1BBB1BFD010DC0AA1FBB1FE0
S1131830EE1FFF1FA217B307E407F50720F0A21B52
S1131840B30BE40BF50B661F771F881F991F1A94BF
S113185069F760957095809590959B01AC01BD01E9
S1131860CF010895EE0FFF1F881F8BBF0790F691DD
S1131870E02D1994BB274A3031F4992322F4BDE2B8
S1131880909581959F4F01C0BB27FB015527AA273F
S1131890880F991FAA1FA41710F0A41B83955051F9
S11318A0B9F7A05DAA3308F0A95DA193009779F771
S11318B0B111B1931192CB0100C0DC01FC01672F7F
S11318C071917723E1F7329704C07C916D93708313
S11118D06291AE17BF07C8F30895F894FFCFD6
S11318DE0175037503750375037503750375037538
S11318EE035344204465746563746564004D435525
S11318FE20545241494E494E47204B4954004144CD
S10B190E433A202020200000D0
S9030000FC
