:100000003DC10000B1C30000DAC3000003C400001A
:100010002CC4000055C400007EC40000A7C400002A
:10002000D0C4000048C60000BEC6000039C70000AA
:1000300046C1000044C1000042C1000040C10000B0
:100040003EC100003CC100003AC1000038C10000C0
:1000500036C1000034C1000032C100000C94150903
:100060002EC100002CC100002AC1000028C10000E0
:1000700026C1000024C1000022C1000020C10000F0
:100080000C941A0D1CC100001AC1000018C1000018
:1000900016C1000014C1000012C1000010C1000010
:1000A0000EC100000CC100000AC1000008C1000020
:1000B00006C1000004C1000002C1000000C1000030
:1000C000FEC00000FCC00000FAC00000F8C0000044
:1000D000F6C00000F4C00000F2C00000F0C0000054
:1000E000EEC000004E0356036203700381038903D0
:1000F0009503A303FF070408090813081D089108C6
:1001000027082F08370841084B0855085F08690879
:10011000910873087D0887080002000000090A0B97
:10012000000000000000000C0D0E08000000000799
:100130000304010000000000000000000000101196
:10014000120000000000000000000000000000009D
:10015000000000000000000000000000000000009F
:10016000000000000000000000000000000000008F
:10017000000000000000000000000000000020015E
:1001800002040810204080000001020408102040F2
:1001900001020408102040808008100000000000C8
:1001A0000102040810204080010204081020408051
:1001B000010201020408102040800000010204082E
:1001C00010204004804020100804020180000080BC
:1001D00040201008040201804020100804020100A1
:1001E00000000007050505050505050500000808D0
:1001F00008080808080202020202020202080707B1
:1002000000000000000C0C0C0C0C0C0C0C04040482
:1002100004040404040707030303030303030300A4
:10022000000A0A0A0A0A0A0A07010101010101017A
:10023000010A00000B0B0B0B0B0B0B0B0606060643
:100240000606060600000000002200250028002BFC
:10025000002E003100340002010000050108010BEE
:100260000100002100240027002A002D0030003367
:100270000001010000040107010A010311241FBE4F
:10028000CFEFD1E2DEBFCDBF00E00CBF12E0A0E0B7
:10029000B2E0E2E3FFE100E00BBF02C007900D9285
:1002A000AE34B107D9F722E0AEE4B2E001C01D924E
:1002B000AB3CB207E1F70E94950D0C94970FA0CECE
:1002C000159885E08A95F1F70000159A95E09A95C2
:1002D000F1F7000015988FE891E00197F1F700C061
:1002E00000000895CF93DF93E6E6F2E020E030E0EF
:1002F000A82FB0E0C1E0D0E0AD01022E02C05595BC
:1003000047950A94E2F740FF0BC082B1AE0100802E
:1003100002C0440F551F0A94E2F7482B42B90CC0A3
:1003200042B1BE01008002C0660F771F0A94E2F757
:10033000962F9095942392B92F5F3F4F319624309A
:100340003105D1F6BDDFDF91CF910895869581709B
:10035000E6E6F2E06EE672E0A1E0B0E0882359F054
:1003600092B19D01008002C0220F331F0A94E2F770
:10037000292B22B90CC022B1AD01008002C0440F6C
:10038000551F0A94E2F7942F9095922392B93196D3
:10039000E617F70719F794CF0895CF93C82F662370
:1003A00011F0179A01C01798169880916F0284FF78
:1003B00003C08C2FCBDF06C08C2F82958F7092DF0D
:1003C0008C2F90DFCF91089560E0E7CF089581E012
:1003D000FBDF8FE39FE10197F1F700C00000089574
:1003E000E0E6F2E0108290E4918394E1928394E558
:1003F0009383643008F063E090916502691710F010
:100400006FEF690FE62FF0E0E05AFD4F9081890F02
:100410008068DACF089580916402982F9460909359
:1004200064028C60D1CF0895CF93E6E6F2E083E0DA
:10043000808382E0818391E092831382148215820B
:100440001682178298E090936F02809365020F9A4C
:100450000E9A0D9A0C9A149A20E030E0C8E0B0E0B1
:10046000A4E050E061E070E00CC041B1CB0101902C
:1004700002C0880F991F0A94E2F7842B81B92F5F7D
:100480003F4F80916F0284FD03C08A2F952F02C0D9
:100490008C2F9B2F2817390744F32FEF80E792E02A
:1004A000215080409040E1F700C000001798159857
:1004B000169880916F0284FD1BC083E013DF8FE4E8
:1004C00096E40197F1F700C0000083E00BDF8FE4B2
:1004D00096E40197F1F700C0000083E003DF87E5B1
:1004E00092E00197F1F700C0000082E0FBDE16C049
:1004F00080626ADF8FE496E40197F1F700C00000A4
:1005000080916F02806260DF87E592E00197F1F7EA
:1005100000C0000080916F02806256DF80916F0200
:10052000806252DF84E08093640275DF50DF82E0F6
:1005300080936E0286E048DFCF91089561E02DDF61
:1005400081E00895CF93DF93EC018881882329F01F
:100550002196F4DF89918111FCCFDF91CF9108952D
:10056000CF93DF93EC01862F642F3ADFCE01EADFD1
:10057000DF91CF910895CF93DF9390E0FC01E35892
:10058000FE4F2491FC01EE51FE4F8491882379F1B6
:1005900090E0880F991FFC01EF59FD4FA591B49190
:1005A000FC01E95BFD4FC591D49161110CC09FB76F
:1005B000F8948C91E22FE0958E238C932881E2238E
:1005C000E8839FBF14C0623061F49FB7F8948C91A8
:1005D000322F309583238C93E881E22BE8839FBFF1
:1005E00006C08FB7F894EC91E22BEC938FBFDF91AC
:1005F000CF91089590E0FC01E358FE4F2491FC0157
:10060000EE51FE4F84918823B1F0E82FF0E0EE0F19
:10061000FF1FE95BFD4FA591B4918FB7F89461116D
:1006200006C09C91E22FE095E923EC9303C0EC9186
:10063000E22BEC938FBF089590E0FC01E358FE4F4E
:100640002491FC01EE51FE4F8491882371F0E82F34
:10065000F0E0EE0FFF1FE95BFD4FA591B4918FB75E
:10066000F894EC91E227EC938FBF089508958830B9
:1006700008F079C0E82FF0E0EE0FFF1FE050FE4FCA
:100680007183608390E08830910508F06CC0FC01B4
:100690008827EE58FF4F8F4F0C94620FE9E6F0E089
:1006A00080818C7F482B4083E89A0895E9E6F0E04A
:1006B0008081837F440F551F440F551F482B408373
:1006C000E99A0895E9E6F0E080818F7C42955295A1
:1006D000507F5427407F5427482B4083EA9A08953F
:1006E000E9E6F0E080818F730024569547950794E2
:1006F000569547950794542F402D482B4083EB9AED
:100700000895EAE6F0E080818C7F482B4083EC9AE4
:100710000895EAE6F0E08081837F440F551F440F7F
:10072000551F482B4083ED9A0895EAE6F0E080815A
:100730008F7C42955295507F5427407F5427482BF9
:100740004083EE9A0895EAE6F0E080818F730024FA
:10075000569547950794569547950794542F402DE5
:10076000482B4083EF9A08951F920F920FB60F9275
:1007700011240BB60F922F933F934F935F936F9378
:100780007F938F939F93AF93BF93EF93FF93E091EA
:100790000002F09101021995FF91EF91BF91AF9185
:1007A0009F918F917F916F915F914F913F912F9189
:1007B0000F900BBE0F900FBE0F901F9018951F92B9
:1007C0000F920FB60F9211240BB60F922F933F93F7
:1007D0004F935F936F937F938F939F93AF93BF9349
:1007E000EF93FF93E0910202F09103021995FF91BC
:1007F000EF91BF91AF919F918F917F916F915F9199
:100800004F913F912F910F900BBE0F900FBE0F9005
:100810001F9018951F920F920FB60F9211240BB6CE
:100820000F922F933F934F935F936F937F938F9389
:100830009F93AF93BF93EF93FF93E0910402F091E6
:1008400005021995FF91EF91BF91AF919F918F9103
:100850007F916F915F914F913F912F910F900BBEC0
:100860000F900FBE0F901F9018951F920F920FB60A
:100870000F9211240BB60F922F933F934F935F93D8
:100880006F937F938F939F93AF93BF93EF93FF9358
:10089000E0910602F09107021995FF91EF91BF9147
:1008A000AF919F918F917F916F915F914F913F9108
:1008B0002F910F900BBE0F900FBE0F901F901895A9
:1008C0001F920F920FB60F9211240BB60F922F9317
:1008D0003F934F935F936F937F938F939F93AF93C8
:1008E000BF93EF93FF93E0910802F09109021995ED
:1008F000FF91EF91BF91AF919F918F917F916F91F8
:100900005F914F913F912F910F900BBE0F900FBEB3
:100910000F901F9018951F920F920FB60F921124EF
:100920000BB60F922F933F934F935F936F937F93E9
:100930008F939F93AF93BF93EF93FF93E0910A023E
:10094000F0910B021995FF91EF91BF91AF919F919B
:100950008F917F916F915F914F913F912F910F9068
:100960000BBE0F900FBE0F901F9018951F920F9205
:100970000FB60F9211240BB60F922F933F934F9304
:100980005F936F937F938F939F93AF93BF93EF93F7
:10099000FF93E0910C02F0910D021995FF91EF91F8
:1009A000BF91AF919F918F917F916F915F914F9187
:1009B0003F912F910F900BBE0F900FBE0F901F9085
:1009C00018951F920F920FB60F9211240BB60F922B
:1009D0002F933F934F935F936F937F938F939F9347
:1009E000AF93BF93EF93FF93E0910E02F0910F024C
:1009F0001995FF91EF91BF91AF919F918F917F9149
:100A00006F915F914F913F912F910F900BBE0F907F
:100A10000FBE0F901F901895982F813059F018F045
:100A20008230A1F01BC083B1E42FF0E0EC5AFD4FFF
:100A300080831AC02CB180910301E42FF0E0EC5ABE
:100A4000FD4F2170880F822B808314C08091060196
:100A5000E42FF0E0EC5AFD4F808312C0813051F05A
:100A600018F0823091F40CC0EBE6F0E08081682B46
:100A700060830BC0ECE6F0E08081682B608305C0EA
:100A8000EDE6F0E08081682B6083E8E6F0E04081ED
:100A900021E030E0B90102C0660F771F9A95E2F7B6
:100AA000CB01842B80830895982F969596959695E3
:100AB000282F27707894911139C0811105C0709347
:100AC0007202609371020EC0813029F47093780233
:100AD000609377020EC0823029F470938A0260938B
:100AE00089020EC0833029F470939C0260939B02AC
:100AF0000EC0843029F470938C0260938B020EC078
:100B0000853029F4709396026093950284C08630F4
:100B100029F470938602609385027DC0873009F0C6
:100B20007AC070937A026093790275C09130C9F5EA
:100B3000883029F470938802609387020EC0893050
:100B400029F47093800260937F020EC08A3029F4EA
:100B500070939202609391020EC08B3029F47093CF
:100B60008402609383020EC08C3029F470939E023D
:100B700060939D020EC08D3029F4709390026093B3
:100B80008F0249C08E3029F470938E0260938D02DB
:100B900042C08F3009F03FC070939A02609399026F
:100BA0003AC0923009F056C0803129F470937C022B
:100BB00060937B020EC0813129F47093940260939C
:100BC00093020EC0823129F4709374026093730211
:100BD0000EC0833129F470937E0260937D020EC0B3
:100BE000843129F47093A00260939F020EC0853176
:100BF00029F470937602609375020DC0863129F452
:100C0000709398026093970206C0873121F4709325
:100C100082026093810261E070E002C0660F771F7C
:100C20002A95E2F7842F8D7F813039F4E92FF0E0A7
:100C3000E25BFD4F8081862B80834150423038F447
:100C4000E92FF0E0EF5AFD4F8081862B8083492FFA
:100C5000892FE2CE0895E0917102F0917202199508
:100C60000895E0917702F091780219950895E09146
:100C70008902F0918A0219950895E0919B02F09102
:100C80009C0219950895E0918B02F0918C021995C0
:100C90000895E0919502F091960219950895E091DA
:100CA0008502F091860219950895E0917902F091FC
:100CB0007A02199508951F920F920FB60F92112480
:100CC0000BB60F922F933F934F935F936F937F9346
:100CD0008F939F93AF93BF93CF93EF93FF9323B1E2
:100CE000E4E5F2E0C081822F8C2790914E0292239E
:100CF00030915102C323C92BC8232083C4FDC3DF15
:100D0000C5FDC7DFC6FDCBDFCC230CF4CEDFC0FDB5
:100D1000A2DFC1FDA6DFC2FDAADFC3FDAEDFFF91EA
:100D2000EF91CF91BF91AF919F918F917F916F91F3
:100D30005F914F913F912F910F900BBE0F900FBE7F
:100D40000F901F901895E0918702F09188021995F5
:100D50000895E0917F02F091800219950895E09145
:100D60009102F091920219950895E0918302F09119
:100D7000840219950895E0919D02F0919E021995C3
:100D80000895E0918F02F091900219950895E091F5
:100D90008D02F0918E0219950895E0919902F091DB
:100DA0009A02199508951F920F920FB60F9211246F
:100DB0000BB60F922F933F934F935F936F937F9355
:100DC0008F939F93AF93BF93CF93EF93FF938CB188
:100DD000909103018170990F982BE4E5F2E0C181B5
:100DE000892F8C2720914F02292330915202C3234F
:100DF000C22BC8239183C0FDA6DFC1FDAADFC2FDBF
:100E0000AEDFC3FDB2DFC4FDB6DFC5FDBADFC6FD90
:100E1000BEDFCC230CF4C1DFFF91EF91CF91BF91E6
:100E2000AF919F918F917F916F915F914F913F9182
:100E30002F910F900BBE0F900FBE0F901F90189523
:100E4000E0917B02F0917C0219950895E091930264
:100E5000F091940219950895E0917302F091740253
:100E600019950895E0917D02F0917E0219950895FB
:100E7000E0919F02F091A00219950895E09175020A
:100E8000F091760219950895E0919702F0919802F9
:100E900019950895E0918102F091820219950895C3
:100EA0001F920F920FB60F9211240BB60F922F9331
:100EB0003F934F935F936F937F938F939F93AF93E2
:100EC000BF93CF93EF93FF9320910601E4E5F2E007
:100ED000C281822F8C27909150029223309153022D
:100EE000C323C92BC8232283C0FDAADFC1FDAEDF07
:100EF000C2FDB2DFC3FDB6DFC4FDBADFC5FDBEDF94
:100F0000C6FDC2DFCC230CF4C5DFFF91EF91CF917A
:100F1000BF91AF919F918F917F916F915F914F9111
:100F20003F912F910F900BBE0F900FBE0F901F900F
:100F30001895E1E8F0E010828081826080838081F2
:100F400081608083E0E8F0E0808181608083E1EB74
:100F5000F0E0808184608083E0EBF0E0808181605C
:100F60008083E1E9F0E0808182608083808181601C
:100F70008083E0E9F0E0808181608083E1EAF0E055
:100F8000808182608083808181608083E0EAF0E0FC
:100F9000808181608083E1E2F1E0808182608083F2
:100FA000808181608083E0E2F1E0808181608083E4
:100FB00008951F93CF93DF93182FEB0161E0DBDAE5
:100FC000209721F460E0812F15DBB5C0CF3FD1051C
:100FD00021F461E0812F0EDBAEC0E12FF0E0E85E8E
:100FE000FE4FE4918E2F90E0FC013197E231F10544
:100FF00008F097C08827E658FF4F8F4F63C784B526
:10100000806884BDC7BD97C085B5806285BDC8BDF9
:1010100092C0E0E8F0E0808180688083D09389000E
:10102000C093880088C0E0E8F0E08081806280831F
:10103000D0938B00C0938A007EC0E0E8F0E080810E
:1010400088608083D0938D00C0938C0074C0E0EBE7
:10105000F0E0808180688083C093B3006CC0E0EBD7
:10106000F0E0808180628083C093B40064C0E0E9D6
:10107000F0E0808180688083D0939900C0939800CD
:101080005AC0E0E9F0E0808180628083D0939B00C9
:10109000C0939A0050C0E0E9F0E0808188608083CE
:1010A000D0939D00C0939C0046C0E0EAF0E08081B0
:1010B00080688083D093A900C093A8003CC0E0EA78
:1010C000F0E0808180628083D093AB00C093AA005F
:1010D00032C0E0EAF0E0808188608083D093AD0088
:1010E000C093AC0028C0E0E2F1E08081806880839A
:1010F000D0932901C09328011EC0E0E2F1E0808175
:1011000080628083D0932B01C0932A0114C0E0E257
:10111000F1E0808188608083D0932D01C0932C0101
:101120000AC0C038D10524F460E0812F63DA03C01F
:1011300061E0812F5FDADF91CF911F91089578945C
:1011400084B5826084BD84B5816084BD85B58260CC
:1011500085BD85B5816085BDEEE6F0E0808181606A
:10116000808308953FB7F89480915C0290915D026E
:10117000A0915E02B0915F0226B5A89B05C02F3FEB
:1011800019F00196A11DB11D3FBFBA2FA92F982FAD
:101190008827820F911DA11DB11DBC01CD01660FD5
:1011A000771F881F991F660F771F881F991F089543
:1011B0008F929F92AF92BF92CF92DF92EF92FF9267
:1011C0006B017C01CFDF4B015C01C114D104E10450
:1011D000F10489F421C021E0C21AD108E108F10824
:1011E00088EE880E83E0981EA11CB11CC114D104A6
:1011F000E104F10489F0B6DFDC01CB01881999091B
:10120000AA09BB09883E9340A105B10520F7C11486
:10121000D104E104F10479F7FF90EF90DF90CF90D3
:10122000BF90AF909F908F9008951F920F920FB62E
:101230000F9211242F933F938F939F93AF93BF935C
:101240008091580290915902A0915A02B0915B028C
:101250003091570223E0230F2D3720F40196A11D72
:10126000B11D05C026E8230F0296A11DB11D2093D4
:1012700057028093580290935902A0935A02B09358
:101280005B0280915C0290915D02A0915E02B09140
:101290005F020196A11DB11D80935C0290935D02D7
:1012A000A0935E02B0935F02BF91AF919F918F9127
:1012B0003F912F910F900FBE0F901F9018958F9216
:1012C0009F92AF92BF92CF92DF92EF92FF920F93D5
:1012D0001F93CF938B0149015A017894909110028A
:1012E000891307C3EBE7F2E0C491F4C080931002C6
:1012F000EBE7F2E0C491CF3F09F441C3C23009F4F7
:1013000056C028F4CC2361F0C13069F1E3C0C43089
:1013100009F498C008F472C0C53009F4B7C0DAC047
:1013200014BC15BC94B5926094BD95B5916095BD03
:10133000282F30E0F901EE51FE4FE491F0E0EE0F7E
:10134000FF1FE95BFD4F459154915093BA024093C2
:10135000B902F901E358FE4F24912093A10261E004
:101360000AD9C0E08EC210928000E1E8F0E010825D
:10137000908198609083908191609083282F30E0D5
:10138000F901EE51FE4FE491F0E0EE0FFF1FE95B33
:10139000FD4F459154915093C1024093C002F90111
:1013A000E358FE4F24912093BF02C1E0E4C2A0EBBA
:1013B000B0E01C92E1EBF0E010829C9192609C9373
:1013C000908191609083282F30E0F901EE51FE4F1B
:1013D000E491F0E0EE0FFF1FE95BFD4F4591549162
:1013E0005093A8024093A702F901E358FE4F2491BD
:1013F0002093B40261E0BFD8C2E00AC2109290000C
:10140000E1E9F0E010829081986090839081916092
:101410009083282F30E0F901EE51FE4FE491F0E087
:10142000EE0FFF1FE95BFD4F459154915093AB02C6
:101430004093AA02F901E358FE4F24912093A2029F
:10144000C3E099C21092A000E1EAF0E0108290811E
:1014500098609083908191609083282F30E0F9010B
:10146000EE51FE4FE491F0E0EE0FFF1FE95BFD4F00
:10147000459154915093B8024093B702F901E35853
:10148000FE4F24912093A902C4E075C2109220015E
:10149000E1E2F1E010829081986090839081916008
:1014A0009083282F30E0F901EE51FE4FE491F0E0F7
:1014B000EE0FFF1FE95BFD4F459154915093B6022B
:1014C0004093B502F901E358FE4F24912093C602E0
:1014D000C5E051C2CC230CF452C261E04CD8CC23FD
:1014E00009F4CFC1C23009F077C092C16801E12C84
:1014F000F12C60E970ED83E090E0A7019601C0D483
:1015000069017A0181E0C81AD108E108F1089FEF6A
:10151000C916D104E104F10411F008F0CCC183E054
:1015200054C098013695322F22273795279540E0F1
:1015300050E060E074E284EF90E0A2D469017A01A7
:1015400081E0C81AD108E108F10883E011C0302F0A
:10155000222740E050E060E074E284EF90E090D415
:1015600069017A0191E0C91AD108E108F10885E022
:101570009FEFC916D104E104F104B9F0B0F098016D
:10158000322F2227330F40E050E060E074E284EF16
:1015900090E076D469017A0181E0C81AD108E108A7
:1015A000F108CC2309F4BFC1DDC1C1110EC095B54E
:1015B000987F892B85BD81149104A104B10409F0A1
:1015C00082C02FEF3FEFA9019DC0E1EBF0E09081D9
:1015D000987F892B808372C09801220F331F40E0CF
:1015E00050E060E074E284EF90E04AD469017A014F
:1015F00091E0C91AD108E108F108C114D10481E0D1
:10160000E806F104B0F098013695322F222737957D
:10161000279540E050E060E074E284EF90E030D441
:1016200069017A0191E0C91AD108E108F10883E063
:1016300001C081E0C13079F4E1E8F0E09081987F69
:10164000892B808381149104A104B104E1F52FEF6B
:101650003FEFA90166C0C33079F4E1E9F0E0908181
:10166000987F892B808381149104A104B10459F5DA
:101670002FEF3FEFA90177C0C43079F4E1EAF0E041
:101680009081987F892B808381149104A104B104F7
:10169000D1F42FEF3FEFA90178C0C53079F4E1E232
:1016A000F1E09081987F892B808381149104A104BB
:1016B000B10449F42FEF3FEFA90179C081149104DF
:1016C000A104B10461F0D801AA0FBB1FA5019401C8
:1016D00001D428EE33E040E050E0D2D303C02FEF36
:1016E0003FEFA901C23079F12CF4CC2359F0C1307D
:1016F000C1F045C1C43009F448C0ACF1C53009F4AB
:1017000056C03DC1C7BC2093C2023093C302409370
:10171000C4025093C502EEE6F0E0808182608083CF
:101720002EC1D0928900C09288002093BB023093D2
:10173000BC024093BD025093BE02EFE6F0E0808110
:10174000826080831CC1C092B3002093C702309393
:10175000C8024093C9025093CA02E0E7F0E08081DA
:10176000826080830CC1D0929900C092980020932F
:10177000B0023093B1024093B2025093B302E1E75A
:10178000F0E0808182608083FAC0D092A900C0928C
:10179000A8002093AC023093AD024093AE02509368
:1017A000AF02E2E7F0E0808182608083E8C0D092FF
:1017B0002901C09228012093A3023093A4024093F0
:1017C000A5025093A602E3E7F0E080818260808367
:1017D000D6C0980122953295307F3227207F32275C
:1017E00040E050E060E074E284EF90E049D36901AA
:1017F0007A0181E0C81AD108E108F1089FEFC91603
:10180000D104E104F10411F008F070CE82E0DDCEE5
:101810009801220F331F40E050E060E074E284EF53
:1018200090E02ED369017A0181E0C81AD108E1085D
:10183000F1089FEFC916D104E104F10409F048F65C
:1018400081E0C3CE980122953295307F3227207FE8
:10185000322740E050E060E074E284EF90E010D383
:1018600069017A0181E0C81AD108E108F1089FEF07
:10187000C916D104E104F10411F008F052CE82E05F
:1018800096CE9801220F331F40E050E060E074E2F2
:1018900084EF90E0F5D269017A0181E0C81AD1089D
:1018A000E108F1089FEFC916D104E104F10409F041
:1018B00048F681E07CCE98013695322F2227379565
:1018C000279540E050E060E074E284EF90E0D8D2E9
:1018D00069017A0181E0C81AD108E108F1089FEF97
:1018E000C916D104E104F10411F008F030CE84E00F
:1018F0006CCE9F3F09F043C0F9CC9801322F2227CC
:10190000330F330F330F40E050E060E074E284EFB8
:1019100090E0B6D269017A0181E0C81AD108E108E5
:10192000F10885E044CE9FEFC916D104E104F1042B
:1019300009F018F784E039CE9801322F2227330FAF
:10194000330F330F40E050E060E074E284EF90E04A
:1019500097D269017A0181E0C81AD108E108F1083B
:1019600087E033CE9FEFC916D104E104F10409F0FA
:1019700018F786E01ACE61E00E94BB022DCECF910F
:101980001F910F91FF90EF90DF90CF90BF90AF909D
:101990009F908F9008958230A9F028F4882349F011
:1019A000813051F00895843021F1E8F0853039F12B
:1019B000089510926E000895EFE6F0E080818D7F2B
:1019C00080830895E0E7F0E080818D7F808381E06F
:1019D0008093B000E1EBF0E08081887F84608083B9
:1019E0001092B3000895E1E7F0E080818D7F80835D
:1019F0000895E2E7F0E080818D7F80830895E3E73A
:101A0000F0E080818D7F80830895CF93C82F8091EF
:101A10001002C81307C0EBE7F2E084919FEF9093A8
:101A2000100201C08FEFB7DF60E08C2F0E94FA0236
:101A3000CF9108951F920F920FB60F9211240BB6FB
:101A40000F922F933F934F935F936F937F938F9357
:101A50009F93AF93BF93EF93FF938091B0029091C8
:101A6000B102A091B202B091B302892B8A2B8B2BC9
:101A700051F19091A202E091AA02F091AB02808113
:101A8000892780838091B0029091B102A091B20227
:101A9000B091B302181619061A061B0604F58091B8
:101AA000B0029091B102A091B202B091B30201973D
:101AB000A109B1098093B0029093B102A093B20240
:101AC000B093B3020CC083E066DF8091A202E09184
:101AD000AA02F091AB029081809589238083FF91C7
:101AE000EF91BF91AF919F918F917F916F915F9196
:101AF0004F913F912F910F900BBE0F900FBE0F9003
:101B00001F90189541E060E081E392E00C94B002F0
:101B1000089589E50C941C03089588E50C941C0332
:101B2000089587E50C941C03089509DB02DA0E94EE
:101B300014020E94E70140E060E08DE392E00E9421
:101B4000B00261E089E50E94BB0261E088E50E9485
:101B5000BB0261E087E50E94BB0260E081E40E9475
:101B6000BB0260E082E40E94BB0260E083E40E946A
:101B7000BB0243E069E87DE08BE00E94540543E04E
:101B80006DE87DE08CE00E94540543E061E97DE072
:101B90008DE00E94540543E050E062E87DE085E07E
:101BA0000E9437036FE370E08FE003DAC1E1D2E017
:101BB00001E212E00F2EF1E2CF2EF2E0DF2EF02D47
:101BC0000F2EF8EEEF2EF3E0FF2EF02D69917991B4
:101BD000C70143D1CB01F801619171918F014C0193
:101BE000990FAA08BB08A501940185E068DBC5012F
:101BF000B40144D026E636E646EA5FE3A3D00BD034
:101C0000072E000C880B990BD3DA85E0FEDECC158D
:101C1000DD05E1F6FFCF04D06894B1118DC00895C1
:101C200070D088F09F5790F0B92F9927B751A0F046
:101C3000D1F0660F771F881F991F1AF0BA95C9F760
:101C400012C0B13081F077D0B1E0089574C0672F31
:101C5000782F8827B85F39F0B93FCCF38695779510
:101C60006795B395D9F73EF49095809570956195F9
:101C70007F4F8F4F9F4F0895E89409C097FB3EF424
:101C800090958095709561957F4F8F4F9F4F9923C9
:101C9000A9F0F92F96E9BB279395F6958795779547
:101CA0006795B795F111F8CFFAF4BB0F11F460FF07
:101CB0001BC06F5F7F4F8F4F9F4F16C0882311F05F
:101CC00096E911C0772321F09EE8872F762F05C073
:101CD000662371F096E8862F70E060E02AF09A950E
:101CE000660F771F881FDAF7880F9695879597F903
:101CF000089557FD9058440F551F59F05F3F71F0FC
:101D00004795880F97FB991F61F09F3F79F0879562
:101D10000895121613061406551FF2CF4695F1DFEB
:101D200008C0161617061806991FF1CF869571057B
:101D3000610508940895E894BB2766277727CB01AF
:101D400097F908950BD078C069D028F06ED018F0BC
:101D5000952309F05AC05FC01124EECFCADFA0F36B
:101D6000959FD1F3950F50E0551F629FF001729F30
:101D7000BB27F00DB11D639FAA27F00DB11DAA1F4F
:101D8000649F6627B00DA11D661F829F2227B00D9C
:101D9000A11D621F739FB00DA11D621F839FA00D27
:101DA000611D221F749F3327A00D611D231F849F77
:101DB000600D211D822F762F6A2F11249F575040CE
:101DC0008AF0E1F088234AF0EE0FFF1FBB1F661F69
:101DD000771F881F91505040A9F79E3F510570F022
:101DE00014C0AACF5F3FECF3983EDCF3869577955D
:101DF0006795B795F795E7959F5FC1F7FE2B880F1D
:101E0000911D9695879597F9089597F99F6780E8B2
:101E100070E060E008959FEF80EC089500240A943C
:101E20001616170618060906089500240A941216B5
:101E30001306140605060895092E0394000C11F4E8
:101E4000882352F0BB0F40F4BF2B11F460FF04C095
:101E50006F5F7F4F8F4F9F4F089597FB072E16F4AC
:101E6000009406D077FD08D03FD007FC05D03EF4A3
:101E7000909581959F4F0895709561957F4F089536
:101E8000A1E21A2EAA1BBB1BFD010DC0AA1FBB1F7E
:101E9000EE1FFF1FA217B307E407F50720F0A21BF0
:101EA000B30BE40BF50B661F771F881F991F1A945D
:101EB00069F760957095809590959B01AC01BD0187
:101EC000CF010895EE0FFF1F881F8BBF0790F6917B
:101ED000E02D19941DD0A59F900DB49F900DA49F47
:101EE000800D911D11240895AA1BBB1B51E107C051
:101EF000AA1FBB1FA617B70710F0A61BB70B881F9A
:101F0000991F5A95A9F780959095BC01CD01089528
:101F1000A29FB001B39FC001A39F700D811D11242A
:101F2000911DB29F700D811D1124911D0895F8948B
:021F3000FFCFE1
:101F320036033603360336033603360336033603D7
:101F4200FF04000800080004000400040004000468
:101F5200000601C400C400DC00C4000000F7000653
:101F6200015344204465746563746564004D4355B0
:0E1F720020545241494E494E47204B495400DD
:00000001FF
