:1000000035C1000053C1000051C100004FC10000C4
:100010004DC100004BC1000049C1000047C10000B4
:1000200045C1000043C1000041C100003FC10000C4
:100030003DC100003BC1000039C1000037C10000D4
:1000400035C1000033C1000031C100002FC10000E4
:100050002DC100002BC1000029C100007AC400009E
:1000600025C1000023C1000021C100001FC1000004
:100070001DC100001BC1000019C1000017C1000014
:100080000C94AC0813C1000011C100000FC10000A6
:100090000DC100000BC1000009C1000007C1000034
:1000A00005C1000003C1000001C10000FFC0000045
:1000B000FDC00000FBC00000F9C00000F7C0000058
:1000C000F5C00000F3C00000F1C00000EFC0000068
:1000D000EDC00000EBC00000E9C00000E7C0000078
:1000E000E5C00000930398039D03A703B103250413
:1000F000BB03C303CB03D503DF03E903F303FD0312
:100100002504070411041B040002000000090A0B67
:10011000000000000000000C0D0E080000000007A9
:1001200003040100000000000000000000001011A6
:1001300012000000000000000000000000000000AD
:1001400000000000000000000000000000000000AF
:10015000000000000000000000000000000000009F
:10016000000000000000000000000000000020016E
:100170000204081020408000000102040810204002
:1001800001020408102040808008100000000000D8
:100190000102040810204080010204081020408061
:1001A000010201020408102040800000010204083E
:1001B00010204004804020100804020180000080CC
:1001C00040201008040201804020100804020100B1
:1001D00000000007050505050505050500000808E0
:1001E00008080808080202020202020202080707C1
:1001F00000000000000C0C0C0C0C0C0C0C04040493
:1002000004040404040707030303030303030300B4
:10021000000A0A0A0A0A0A0A07010101010101018A
:10022000010A00000B0B0B0B0B0B0B0B0606060653
:100230000606060600000000002200250028002B0C
:10024000002E003100340002010000050108010BFE
:100250000100002100240027002A002D0030003377
:100260000001010000040107010A010311241FBE5F
:10027000CFEFD1E2DEBFCDBF00E00CBF12E0A0E0C7
:10028000B2E0E8EEF5E100E00BBF02C007900D928E
:10029000A233B107D9F722E0A2E3B2E001C01D9278
:1002A000A637B207E1F7C0D70C94F20AA9CE159889
:1002B00085E08A95F1F70000159A95E09A95F1F797
:1002C000000015988FE891E00197F1F700C0000059
:1002D0000895CF93DF93E1E4F2E020E030E0A82F2F
:1002E000B0E0C1E0D0E0AD01022E02C055954795C7
:1002F0000A94E2F740FF0BC082B1AE01008002C059
:10030000440F551F0A94E2F7482B42B90CC042B182
:10031000BE01008002C0660F771F0A94E2F7962F95
:100320009095942392B92F5F3F4F31962430310539
:10033000D1F6BDDFDF91CF91089586958170E1E41C
:10034000F2E069E472E0A1E0B0E0882359F092B1F4
:100350009D01008002C0220F331F0A94E2F7292B6F
:1003600022B90CC022B1AD01008002C0440F551F5C
:100370000A94E2F7942F9095922392B93196E6175A
:10038000F70719F794CF0895CF93C82F662311F07C
:10039000179A01C01798169880914A0284FF03C0EB
:1003A0008C2FCBDF06C08C2F82958F7092DF8C2F25
:1003B00090DFCF91089560E0E7CF089581E0FBDF03
:1003C0008FE39FE10197F1F700C000000895EBE390
:1003D000F2E0108290E4918394E1928394E5938318
:1003E000643008F063E090914002691710F06FEFFD
:1003F000690FE62FF0E0E55CFD4F9081890F806882
:10040000DACF089580913F02982F946090933F0235
:100410008C60D1CF0895CF93E1E4F2E083E0808354
:1004200082E0818391E09283138214821582168286
:10043000178298E090934A02809340020F9A0E9A96
:100440000D9A0C9A149A20E030E0C8E0B0E0A4E0E5
:1004500050E061E070E00CC041B1CB01019002C0FE
:10046000880F991F0A94E2F7842B81B92F5F3F4FC1
:1004700080914A0284FD03C08A2F952F02C08C2FE1
:100480009B2F2817390744F32FEF80E792E0215084
:1004900080409040E1F700C000001798159816982A
:1004A00080914A0284FD1BC083E013DF8FE496E451
:1004B0000197F1F700C0000083E00BDF8FE496E4C2
:1004C0000197F1F700C0000083E003DF87E592E0C9
:1004D0000197F1F700C0000082E0FBDE16C08062E9
:1004E0006ADF8FE496E40197F1F700C00000809185
:1004F0004A02806260DF87E592E00197F1F700C071
:10050000000080914A02806256DF80914A02806238
:1005100052DF84E080933F0275DF50DF82E08093FA
:10052000490286E048DFCF91089561E02DDF81E048
:100530000895CF93DF93EC018881882329F02196D9
:10054000F4DF89918111FCCFDF91CF910895CF9392
:10055000DF93EC01862F642F3ADFCE01EADFDF91D3
:10056000CF910895CF93DF9390E0FC01E359FE4FC4
:100570002491FC01EE52FE4F8491882379F190E0A2
:10058000880F991FFC01EF5AFD4FA591B491FC0112
:10059000E95CFD4FC591D49161110CC09FB7F894EF
:1005A0008C91E22FE0958E238C932881E223E883BF
:1005B0009FBF14C0623061F49FB7F8948C91322FC2
:1005C000309583238C93E881E22BE8839FBF06C09C
:1005D0008FB7F894EC91E22BEC938FBFDF91CF9122
:1005E000089590E0FC01E359FE4F2491FC01EE5286
:1005F000FE4F84918823B1F0E82FF0E0EE0FFF1F4B
:10060000E95CFD4FA591B4918FB7F894611106C0D4
:100610009C91E22FE095E923EC9303C0EC91E22B4F
:10062000EC938FBF089590E0FC01E359FE4F2491B5
:10063000FC01EE52FE4F8491882371F0E82FF0E028
:10064000EE0FFF1FE95CFD4FA591B4918FB7F894B1
:10065000EC91E227EC938FBF0895E1E8F0E010827F
:10066000808182608083808181608083E0E8F0E027
:10067000808181608083E1EBF0E080818460808311
:10068000E0EBF0E0808181608083E1E9F0E080814F
:1006900082608083808181608083E0E9F0E08081F6
:1006A00081608083E1EAF0E08081826080838081E4
:1006B00081608083E0EAF0E0808181608083E1E214
:1006C000F1E0808182608083808181608083E0E2CC
:1006D000F1E080818160808308951F93CF93DF9341
:1006E000182FEB0161E03EDF209721F460E0812FBD
:1006F00078DFB5C0CF3FD10521F461E0812F71DFF4
:10070000AEC0E12FF0E0E85FFE4FE4918E2F90E065
:10071000FC013197E231F10508F097C08827EE58C7
:10072000FF4F8F4F2AC784B5806884BDC7BD97C06F
:1007300085B5806285BDC8BD92C0E0E8F0E08081EB
:1007400080688083D0938900C093880088C0E0E8E7
:10075000F0E0808180628083D0938B00C0938A0018
:100760007EC0E0E8F0E0808188608083D0938D00D7
:10077000C0938C0074C0E0EBF0E0808180688083DF
:10078000C093B3006CC0E0EBF0E0808180628083B6
:10079000C093B40064C0E0E9F0E0808180688083A9
:1007A000D0939900C09398005AC0E0E9F0E08081AE
:1007B00080628083D0939B00C0939A0050C0E0E990
:1007C000F0E0808188608083D0939D00C0939C007E
:1007D00046C0E0EAF0E0808180688083D093A90081
:1007E000C093A8003CC0E0EAF0E080818062808392
:1007F000D093AB00C093AA0032C0E0EAF0E0808161
:1008000088608083D093AD00C093AC0028C0E0E244
:10081000F1E0808180688083D0932901C093280112
:100820001EC0E0E2F1E0808180628083D0932B01E2
:10083000C0932A0114C0E0E2F1E0808188608083E7
:10084000D0932D01C0932C010AC0C038D10524F4E7
:1008500060E0812FC6DE03C061E0812FC2DEDF9140
:10086000CF911F910895789484B5826084BD84B53A
:10087000816084BD85B5826085BD85B5816085BD9B
:10088000EEE6F0E080818160808308953FB7F894C0
:100890008091370290913802A0913902B0913A02CA
:1008A00026B5A89B05C02F3F19F00196A11DB11DCB
:1008B0003FBFBA2FA92F982F8827820F911DA11D06
:1008C000B11DBC01CD01660F771F881F991F660FF0
:1008D000771F881F991F08958F929F92AF92BF92A2
:1008E000CF92DF92EF92FF926B017C01CFDF4B0141
:1008F0005C01C114D104E104F10489F421C021E0B8
:10090000C21AD108E108F10888EE880E83E0981E2B
:10091000A11CB11CC114D104E104F10489F0B6DFBB
:10092000DC01CB0188199909AA09BB09883E9340CB
:10093000A105B10520F7C114D104E104F10479F750
:10094000FF90EF90DF90CF90BF90AF909F908F90EF
:1009500008951F920F920FB60F9211242F933F9379
:100960008F939F93AF93BF93809133029091340202
:10097000A0913502B09136023091320223E0230F6C
:100980002D3720F40196A11DB11D05C026E8230FC7
:100990000296A11DB11D20933202809333029093E1
:1009A0003402A0933502B0933602809137029091C1
:1009B0003802A0913902B0913A020196A11DB11DF1
:1009C0008093370290933802A0933902B0933A0291
:1009D000BF91AF919F918F913F912F910F900FBE3B
:1009E0000F901F9018958F929F92AF92BF92CF92C7
:1009F000DF92EF92FF920F931F93CF938B014901E8
:100A00005A01789490910002891307C3EBE6F2E053
:100A1000C491F4C080930002EBE6F2E0C491CF3FB2
:100A200009F440C3C23009F456C028F4CC2361F065
:100A3000C13069F1E3C0C43009F498C008F472C051
:100A4000C53009F4B7C0DAC014BC15BC94B59260C7
:100A500094BD95B5916095BD282F30E0F901EE5217
:100A6000FE4FE491F0E0EE0FFF1FE95CFD4F459172
:100A700054915093650240936402F901E359FE4F8B
:100A8000249120934C0261E06DDDC0E08EC2109293
:100A90008000E1E8F0E0108290819860908390817E
:100AA00091609083282F30E0F901EE52FE4FE491DF
:100AB000F0E0EE0FFF1FE95CFD4F4591549150931C
:100AC0006C0240936B02F901E359FE4F249120938D
:100AD0006A02C1E0E4C2A0EBB0E01C92E1EBF0E0FE
:100AE00010829C9192609C93908191609083282FBA
:100AF00030E0F901EE52FE4FE491F0E0EE0FFF1FFF
:100B0000E95CFD4F4591549150935302409352023A
:100B1000F901E359FE4F249120935F0261E022DD49
:100B2000C2E00AC210929000E1E9F0E010829081E8
:100B300098609083908191609083282F30E0F90134
:100B4000EE52FE4FE491F0E0EE0FFF1FE95CFD4F27
:100B5000459154915093560240935502F901E3593F
:100B6000FE4F249120934D02C3E099C21092A00041
:100B7000E1EAF0E01082908198609083908191602A
:100B80009083282F30E0F901EE52FE4FE491F0E01F
:100B9000EE0FFF1FE95CFD4F4591549150936302A6
:100BA00040936202F901E359FE4F249120935402CD
:100BB000C4E075C210922001E1E2F1E01082908160
:100BC00098609083908191609083282F30E0F901A4
:100BD000EE52FE4FE491F0E0EE0FFF1FE95CFD4F97
:100BE000459154915093610240936002F901E35999
:100BF000FE4F249120937102C5E051C2CC230CF426
:100C000051C261E0AFDCCC2309F4CFC1C23009F09E
:100C100077C092C16801E12CF12C60E970ED83E0AE
:100C200090E0A701960187D469017A0181E0C81A92
:100C3000D108E108F1089FEFC916D104E104F104DD
:100C400011F008F0CCC183E054C098013695322FE2
:100C500022273795279540E050E060E074E284EF6A
:100C600090E069D469017A0181E0C81AD108E108ED
:100C7000F10883E011C0302F222740E050E060E00F
:100C800074E284EF90E057D469017A0191E0C91AC7
:100C9000D108E108F10885E09FEFC916D104E1040D
:100CA000F104B9F0B0F09801322F2227330F40E061
:100CB00050E060E074E284EF90E03DD469017A0195
:100CC00081E0C81AD108E108F108CC2309F4BFC1BA
:100CD000DDC1C1110EC095B5987F892B85BD8114EA
:100CE0009104A104B10409F082C02FEF3FEFA901E4
:100CF0009DC0E1EBF0E09081987F892B808372C0EA
:100D00009801220F331F40E050E060E074E284EF6E
:100D100090E011D469017A0191E0C91AD108E10883
:100D2000F108C114D10481E0E806F104B0F09801A3
:100D30003695322F22273795279540E050E060E026
:100D400074E284EF90E0F7D369017A0191E0C91A67
:100D5000D108E108F10883E001C081E0C13079F4F5
:100D6000E1E8F0E09081987F892B808381149104E1
:100D7000A104B104E1F52FEF3FEFA90166C0C33034
:100D800079F4E1E9F0E09081987F892B80838114E8
:100D90009104A104B10459F52FEF3FEFA90177C0E9
:100DA000C43079F4E1EAF0E09081987F892B808368
:100DB00081149104A104B104D1F42FEF3FEFA901F4
:100DC00078C0C53079F4E1E2F1E09081987F892B19
:100DD000808381149104A104B10449F42FEF3FEF03
:100DE000A90179C081149104A104B10461F0D80172
:100DF000AA0FBB1FA5019401C8D328EE33E040E041
:100E000050E099D303C02FEF3FEFA901C23079F131
:100E10002CF4CC2359F0C130C1F044C1C43009F4E2
:100E200048C0ACF1C53009F456C03CC1C7BC2093E2
:100E30006D0230936E0240936F0250937002EEE6A3
:100E4000F0E08081826080832DC1D0928900C092C1
:100E500088002093660230936702409368025093A3
:100E60006902EFE6F0E08081826080831BC1C0925E
:100E7000B300209372023093730240937402509334
:100E80007502E0E7F0E08081826080830BC1D09240
:100E90009900C092980020935B0230935C024093CB
:100EA0005D0250935E02E1E7F0E080818260808322
:100EB000F9C0D092A900C092A800209357023093A5
:100EC00058024093590250935A02E2E7F0E08081C1
:100ED00082608083E7C0D0922901C09228012093CC
:100EE0004E0230934F024093500250935102E3E779
:100EF000F0E0808182608083D5C098012295329590
:100F0000307F3227207F322740E050E060E074E2FB
:100F100084EF90E010D369017A0181E0C81AD1080A
:100F2000E108F1089FEFC916D104E104F10411F0C2
:100F300008F070CE82E0DDCE9801220F331F40E032
:100F400050E060E074E284EF90E0F5D269017A014C
:100F500081E0C81AD108E108F1089FEFC916D10451
:100F6000E104F10409F048F681E0C3CE980122952E
:100F70003295307F3227207F322740E050E060E01A
:100F800074E284EF90E0D7D269017A0181E0C81A57
:100F9000D108E108F1089FEFC916D104E104F1047A
:100FA00011F008F052CE82E096CE9801220F331F46
:100FB00040E050E060E074E284EF90E0BCD2690170
:100FC0007A0181E0C81AD108E108F1089FEFC9163B
:100FD000D104E104F10409F048F681E07CCE9801E7
:100FE0003695322F22273795279540E050E060E074
:100FF00074E284EF90E09FD269017A0181E0C81A1F
:10100000D108E108F1089FEFC916D104E104F10409
:1010100011F008F030CE84E06CCE9F3F09F042C062
:10102000F9CC9801322F2227330F330F330F40E0D2
:1010300050E060E074E284EF90E07DD269017A01D3
:1010400081E0C81AD108E108F10885E044CE9FEF9D
:10105000C916D104E104F10409F018F784E039CE8F
:101060009801322F2227330F330F330F40E050E027
:1010700060E074E284EF90E05ED269017A0181E081
:10108000C81AD108E108F10887E033CE9FEFC916EE
:10109000D104E104F10409F018F786E01ACE61E00A
:1010A00061DA2ECECF911F910F91FF90EF90DF90DC
:1010B000CF90BF90AF909F908F9008958230A9F00D
:1010C00028F4882349F0813051F00895843021F1CB
:1010D000E8F0853039F1089510926E000895EFE63A
:1010E000F0E080818D7F80830895E0E7F0E08081EB
:1010F0008D7F808381E08093B000E1EBF0E0808120
:10110000887F846080831092B3000895E1E7F0E067
:1011100080818D7F80830895E2E7F0E080818D7F7C
:1011200080830895E3E7F0E080818D7F80830895D8
:10113000CF93C82F80910002C81307C0EBE6F2E0FE
:1011400084919FEF9093000201C08FEFB7DF60E0C2
:101150008C2F47DACF9108951F920F920FB60F92FE
:1011600011240BB60F922F933F934F935F936F937E
:101170007F938F939F93AF93BF93EF93FF93809150
:101180005B0290915C02A0915D02B0915E02892B9E
:101190008A2B8B2B51F190914D02E0915502F091E9
:1011A000560280818927808380915B0290915C0246
:1011B000A0915D02B0915E02181619061A061B0670
:1011C00004F580915B0290915C02A0915D02B09168
:1011D0005E020197A109B10980935B0290935C02C2
:1011E000A0935D02B0935E020CC083E067DF809144
:1011F0004D02E0915502F09156029081809589232D
:101200008083FF91EF91BF91AF919F918F917F91DB
:101210006F915F914F913F912F910F900BBE0F9067
:101220000FBE0F901F9018951EDB17DAF4D8C6D8A2
:1012300040E060E081E292E08AD961E085E592D900
:1012400061E086E58FD960E081E48CD96FE370E0DE
:101250008FE043DAC1E0D2E001E112E00F2EF1E1CC
:10126000CF2EF2E0DF2EF02D0F2EF8EEEF2EF3E072
:10127000FF2EF02D69917991C7014AD1CB01F80178
:10128000619171918F014C01990FAA08BB08A501CA
:10129000940185E0A8DBC501B4014BD026E636E613
:1012A00046EA5FE3AAD012D0072E000C880B990BF8
:1012B00013DB85E03DDFCC15DD05E1F668EE73E07C
:1012C00080E090E009DB86E5AED9F8CF04D06894E1
:1012D000B1118DC0089570D088F09F5790F0B92F4C
:1012E0009927B751A0F0D1F0660F771F881F991F7B
:1012F0001AF0BA95C9F712C0B13081F077D0B1E0D9
:10130000089574C0672F782F8827B85F39F0B93FE8
:10131000CCF3869577956795B395D9F73EF490957C
:101320008095709561957F4F8F4F9F4F0895E894FA
:1013300009C097FB3EF490958095709561957F4F1D
:101340008F4F9F4F9923A9F0F92F96E9BB279395CB
:10135000F695879577956795B795F111F8CFFAF4DB
:10136000BB0F11F460FF1BC06F5F7F4F8F4F9F4F0C
:1013700016C0882311F096E911C0772321F09EE86A
:10138000872F762F05C0662371F096E8862F70E0D0
:1013900060E02AF09A95660F771F881FDAF7880FAA
:1013A0009695879597F9089557FD9058440F551FC6
:1013B00059F05F3F71F04795880F97FB991F61F0D7
:1013C0009F3F79F087950895121613061406551F4E
:1013D000F2CF4695F1DF08C0161617061806991FBA
:1013E000F1CF86957105610508940895E894BB27AF
:1013F00066277727CB0197F908950BD078C069D07D
:1014000028F06ED018F0952309F05AC05FC011245F
:10141000EECFCADFA0F3959FD1F3950F50E0551F93
:10142000629FF001729FBB27F00DB11D639FAA2739
:10143000F00DB11DAA1F649F6627B00DA11D661F88
:10144000829F2227B00DA11D621F739FB00DA11DA9
:10145000621F839FA00D611D221F749F3327A00D63
:10146000611D231F849F600D211D822F762F6A2FFF
:1014700011249F5750408AF0E1F088234AF0EE0F84
:10148000FF1FBB1F661F771F881F91505040A9F791
:101490009E3F510570F014C0AACF5F3FECF3983E19
:1014A000DCF3869577956795B795F795E7959F5FF8
:1014B000C1F7FE2B880F911D9695879597F9089592
:1014C00097F99F6780E870E060E008959FEF80ECF7
:1014D000089500240A94161617061806090608959A
:1014E00000240A9412161306140605060895092E00
:1014F0000394000C11F4882352F0BB0F40F4BF2B6F
:1015000011F460FF04C06F5F7F4F8F4F9F4F0895AE
:1015100097FB072E16F4009406D077FD08D03FD035
:1015200007FC05D03EF4909581959F4F08957095E6
:1015300061957F4F0895A1E21A2EAA1BBB1BFD01E6
:101540000DC0AA1FBB1FEE1FFF1FA217B307E407A2
:10155000F50720F0A21BB30BE40BF50B661F771FFA
:10156000881F991F1A9469F76095709580959095DA
:101570009B01AC01BD01CF010895EE0FFF1F881F35
:101580008BBF0790F691E02D19941DD0A59F900D6B
:10159000B49F900DA49F800D911D11240895AA1B46
:1015A000BB1B51E107C0AA1FBB1FA617B70710F04E
:1015B000A61BB70B881F991F5A95A9F78095909580
:1015C000BC01CD010895A29FB001B39FC001A39FAC
:1015D000700D811D1124911DB29F700D811D11246C
:0815E000911D0895F894FFCF5E
:1015E800FF040008000800040004000400040004CC
:1015F800000601C400C400DC00C4000000F70006B7
:10160800014D435520545241494E494E47204B49BC
:0216180054007C
:00000001FF
