S00E0000544B323536302E73726563AA
S113000006C200003CC7000065C700008EC70000A0
S1130010B7C70000E0C700000C9416080C94410810
S11300200C946C080C94E6090C945E0A0C94DB0A9C
S11300300FC200000DC200000BC2000009C2000084
S113004007C2000005C2000003C2000001C2000094
S1130050FFC10000FDC10000FBC100000C949C0D19
S11300600C94BB0C40C6000065C60000F1C1000042
S1130070EFC10000EDC10000EBC10000E9C10000C8
S11300800C94A711E5C10000E3C10000E1C1000028
S1130090DFC10000DDC10000DBC100000C9491143D
S11300A0D7C10000D5C10000D3C10000D1C10000F8
S11300B0CFC10000CDC10000CBC10000C9C1000008
S11300C0C7C10000C5C10000C3C100000C946D0C81
S11300D00C94940CBDC10000BBC10000B9C1000068
S11300E0B7C10000D906E106ED06FB060C071407AC
S11300F020072E078B0B900B950B9F0BA90B1D0C48
S1130100B30BBB0BC30BCD0BD70BE10BEB0BF50BFD
S11301101D0CFF0B090C130C97159A159A159A15BB
S11301209A159A159A159A15B2149A159A159A153C
S11301309A159A159A159A15B2149A159A159A152C
S11301409A159A159A159A15BA149A159A159A1514
S11301509A159A159A159A15DF149A159A159A15DF
S11301609A159A159A159A15BA149A159A159A15F4
S11301709A159A159A159A15E4149A159A159A15BA
S11301809A159A159A159A15E9149A159A159A15A5
S11301909A159A159A159A15FA149A159A159A1584
S11301A09A159A159A159A1523159A159A159A154A
S11301B09A159A159A159A15EE149A159A159A1570
S11301C09A159A159A159A1508159A159A159A1545
S11301D09A159A159A159A1525159A159A159A1518
S11301E09A159A159A159A1525159A159A159A1508
S11301F09A159A159A159A1525159A159A159A15F8
S11302009A159A159A159A1525159A159A159A15E7
S11302109A159A159A159A152E159A159A159A15CE
S11302209A159A159A159A155E159A159A159A158E
S11302309A159A159A159A152E159A159A159A15AE
S11302409A159A159A159A155E159A159A159A156E
S11302509A159A159A159A1546159A159A159A1576
S11302609A159A159A159A1562159A159A159A154A
S11302709A159A159A159A1562159A159A159A153A
S11302809A159A159A159A1577159A159A159A1515
S11302909A159A159A159A1591159A159A159A15EB
S11302A09A159A159A159A159115000200000009DD
S11302B00A0B000000000000000C0D0E08000000F6
S11302C0000703040100000000000000000000001B
S11302D010111200000000000000000000000000E7
S11302E0000000000000000000000000000000000A
S11302F000000000000000000000000000000000FA
S113030000000000000000000000000000000000E9
S1130310200102040810204080000001020408109B
S113032020400102040810204080800810000000D2
S1130330000001020408102040800102040810207B
S113034040800102010204081020408000000102E4
S1130350040810204004804020100804020180009A
S1130360008040201008040201804020100804028C
S11303700100000000070505050505050505000049
S11303800808080808080802020202020202020819
S1130390070700000000000C0C0C0C0C0C0C0C04E7
S11303A0040404040404040707030303030303030A
S11303B00300000A0A0A0A0A0A0A070101010101E4
S11303C00101010A00000B0B0B0B0B0B0B0B0606B8
S11303D00606060606060000000000220025002886
S11303E0002B002E0031003400020100000501083A
S11303F0010B0100002100240027002A002D0030F9
S113040000330001010000040107010A0103112463
S11304101FBECFEFD1E2DEBFCDBF00E00CBF12E0C4
S1130420A0E0B2E0E8E2FFE200E00BBF02C0079008
S11304300D92A634B107D9F724E0A6E4B2E001C0D6
S11304401D92AD3DB207E1F70E94D2160C949217AB
S1130450D7CD159885E08A95F1F70000159A95E0B7
S11304609A95F1F7000015988FE891E00197F1F75C
S113047000C000000895CF93DF93E8E5F3E020E0A7
S113048030E0A82FB0E0C1E0D0E0AD01022E02C000
S1130490559547950A94E2F740FF0BC082B1AE012F
S11304A0008002C0440F551F0A94E2F7482B42B95A
S11304B00CC042B1BE01008002C0660F771F0A94CF
S11304C0E2F7962F9095942392B92F5F3F4F319680
S11304D024303105D1F6BDDFDF91CF9108958695A3
S11304E08170E8E5F3E060E673E0A1E0B0E0882322
S11304F059F092B19D01008002C0220F331F0A946B
S1130500E2F7292B22B90CC022B1AD01008002C050
S1130510440F551F0A94E2F7942F9095922392B9B1
S11305203196E617F70719F794CF0895CF93C82F9C
S1130530662311F0179A01C01798169880916103E9
S113054084FF03C08C2FCBDF06C08C2F82958F7065
S113055092DF8C2F90DFCF91089560E0E7CF08956C
S113056081E0FBDF8FE39FE10197F1F700C000001A
S11305700895E2E5F3E0108290E4918394E192839C
S113058094E59383643008F063E09091570369170E
S113059010F06FEF690FE62FF0E0EE5AFC4F9081F8
S11305A0890F8068DACF089580915603982F94605C
S11305B0909356038C60D1CF0895CF93E8E5F3E090
S11305C083E0808382E0818391E0928313821482AA
S11305D015821682178298E09093610380935703E3
S11305E00F9A0E9A0D9A0C9A149A20E030E0C8E003
S11305F0B0E0A4E050E061E070E00CC041B1CB0198
S1130600019002C0880F991F0A94E2F7842B81B9E4
S11306102F5F3F4F8091610384FD03C08A2F952F84
S113062002C08C2F9B2F2817390744F32FEF80E744
S113063092E0215080409040E1F700C000001798FC
S1130640159816988091610384FD1BC083E013DF25
S11306508FE496E40197F1F700C0000083E00BDF1C
S11306608FE496E40197F1F700C0000083E003DF14
S113067087E592E00197F1F700C0000082E0FBDE1D
S113068016C080626ADF8FE496E40197F1F700C038
S1130690000080916103806260DF87E592E001974A
S11306A0F1F700C0000080916103806256DF809101
S11306B06103806252DF84E08093560375DF50DF6C
S11306C082E08093600386E048DFCF91089561E083
S11306D02DDF81E00895CF93DF93EC018881882397
S11306E029F02196F4DF89918111FCCFDF91CF911C
S11306F00895CF93DF93EC01862F642F3ADFCE0168
S1130700EADFDF91CF910895EF92FF920F93CF9399
S1130710DF931F92CDB7DEB789837B0100E021E030
S113072041E0BE016F5F7F4F88E60E944013811154
S11307300BC021E041E0B70188E60E94541291E029
S1130740811103C090E001C090E0892F0F90DF91E8
S1130750CF910F91FF90EF9008950F93CF93DF9374
S11307601F921F92CDB7DEB789836A8300E021E030
S113077041E0BE016F5F7F4F88E60E944013811104
S11307800EC001E021E041E0BE016E5F7F4F88E6CC
S11307900E94401391E0882319F090E001C090E09A
S11307A0892F0F900F90DF91CF910F910895CF93E0
S11307B0DF931F92CDB7DEB70E940F12BE016F5FA9
S11307C07F4F80E0A1DF982F8823F1F041E062E0C1
S11307D081E192E08EDF69816F77698380E0BDDF1C
S11307E0982F882389F0BE016F5F7F4F82E08CDFF2
S11307F0982F882349F069816064698382E0ADDFC2
S113080091E0811101C090E0892F0F90DF91CF9189
S113081008950F931F93CF93DF931F92CDB7DEB745
S11308208C01BE016F5F7F4F80E06EDF882309F487
S113083042C0F80113868DE4828780E28087898133
S1130840982F9F70905D9783807782958F70805DDD
S113085086838AE38583BE016F5F7F4F81E054DF27
S1130860882349F18981982F9F70905DF8019483C2
S1130870807782958F70805D83838AE38283BE0153
S11308806F5F7F4F82E040DF8823A9F08981982F32
S11308909F70905DF801918384FB992790F9905D96
S11308A0908385FF04C080E5818781E004C081E4F2
S11308B0F801818781E00F90DF91CF911F910F9113
S11308C00895EAE7F0E0808184608083808182601B
S11308D080838081816080838081806880830895A3
S11308E0CF93DF9390E0FC01E15FFC4F2491FC0186
S11308F0EC58FC4F8491882379F190E0880F991F7C
S1130900FC01ED50FC4FA591B491FC01E752FC4F62
S1130910C591D49161110CC09FB7F8948C91E22FCA
S1130920E0958E238C932881E223E8839FBF14C033
S1130930623061F49FB7F8948C91322F3095832301
S11309408C93E881E22BE8839FBF06C08FB7F894AD
S1130950EC91E22BEC938FBFDF91CF91089590E05F
S1130960FC01E15FFC4F2491FC01EC58FC4F8491A5
S11309708823B1F0E82FF0E0EE0FFF1FE752FC4FA1
S1130980A591B4918FB7F894611106C09C91E22FA0
S1130990E095E923EC9303C0EC91E22BEC938FBF39
S11309A0089590E0FC01E15FFC4F2491FC01EC58B8
S11309B0FC4F8491882371F0E82FF0E0EE0FFF1FC5
S11309C0E752FC4FA591B4918FB7F894EC91E227CC
S11309D0EC938FBF0895CF92DF92EF92FF92CF9363
S11309E06B017C01C42F1092EF0310926C031092E0
S11309F063031092AE0388EE93E0A0E0B0E080932E
S1130A007F0490938004A0938104B093820482E0D5
S1130A108093C000C11481EED806E104F104B1F062
S1130A2060E079E08DE390E0A70196010E944F1702
S1130A30DA01C9010197A109B109B695A79597955E
S1130A4087959C01211580E13807A0F01092C00021
S1130A5060E874E88EE190E0A70196010E944F17C8
S1130A60DA01C9010197A109B109B695A79597952E
S1130A7087959C013093C5002093C400C093C200A5
S1130A80E1ECF0E0808180618083808188608083F4
S1130A9080818068808380818F7D8083CF91FF9067
S1130AA0EF90DF90CF9008958091EF0320916C0335
S1130AB090E0805C9F4F821B91098F739927089562
S1130AC09091EF0380916C03981771F0E0916C039F
S1130AD0F0E0EB5CFB4F808190916C039F5F9F7310
S1130AE090936C0390E008958FEF9FEF08950F9318
S1130AF01F93B3D7609368037093690380936A0369
S1130B0090936B03DDDF9923F4F4A7D70091680376
S1130B101091690320916A0330916B03DC01CB01CE
S1130B20801B910BA20BB30B00917F0410918004E6
S1130B30209181043091820480179107A207B307A2
S1130B4008F38FEF9FEF1F910F910895EF92FF929B
S1130B500F931F93CF93DF937B01672B81F0082FB3
S1130B60192FC0E0D0E0C3DF992344F0F80181934A
S1130B708F012196EC16FD06B1F701C07E01C70175
S1130B80DF91CF911F910F91FF90EF900895E09125
S1130B90AE03F0E0E051FC4F20818091AE0390E081
S1130BA001968F739078992324F40197806C9F6F3A
S1130BB001968093AE032093C600E0ECF0E08081C0
S1130BC0837080648083909163038091AE03981353
S1130BD005C0E1ECF0E080818F7D808308950F9360
S1130BE01F93CF93DF93209163039091AE03291356
S1130BF010C09091C00095FF0CC09FB7F8948093EB
S1130C00C600E0ECF0E080818370806480839FBF45
S1130C102FC02091630330E02F5F3F4F2F73307854
S1130C20332334F421503109206C3F6F2F5F3F4F41
S1130C30D82FC22F00EC10E007C00FB607FC04C089
S1130C40F801808185FDA3DF9091AE03C917A9F354
S1130C50E0916303F0E0E051FC4FD0839FB7F89438
S1130C60C0936303E1ECF0E08081806280839FBFE6
S1130C7081E090E0DF91CF911F910F9108950F9340
S1130C801F93CF93DF93EC018881882351F0219641
S1130C9000E010E0A4DF0F5F1F4F89918111FACFAC
S1130CA002C000E010E0C801DF91CF911F910F91C5
S1130CB008958091C00082FD13C02091C6008091E8
S1130CC0EF038F5F8F7390916C03891759F0E09154
S1130CD0EF03F0E0EB5CFB4F20838093EF03089578
S1130CE08091C60008951F920F920FB60F9211249F
S1130CF00BB60F922F933F934F935F936F937F9312
S1130D008F939F93AF93BF93EF93FF93D2DFFF91A2
S1130D10EF91BF91AF919F918F917F916F915F916F
S1130D204F913F912F910F900BBE0F900FBE0F90DC
S1130D301F9018951F920F920FB60F9211240BB6A5
S1130D400F922F933F934F935F936F937F938F9360
S1130D509F93AF93BF93EF93FF9319DFFF91EF91AD
S1130D60BF91AF919F918F917F916F915F914F91BF
S1130D703F912F910F900BBE0F900FBE0F901F90BD
S1130D8018950895883008F079C0E82FF0E0EE0F48
S1130D90FF1FE050FE4F7183608390E0883091051F
S1130DA008F06CC0FC018827EE58FF4F8F4F0C945D
S1130DB07117E9E6F0E080818C7F482B4083E89A44
S1130DC00895E9E6F0E08081837F440F551F440FC6
S1130DD0551F482B4083E99A0895E9E6F0E08081A5
S1130DE08F7C42955295507F5427407F5427482B3F
S1130DF04083EA9A0895E9E6F0E080818F73002445
S1130E00569547950794569547950794542F402D2A
S1130E10482B4083EB9A0895EAE6F0E080818C7FCA
S1130E20482B4083EC9A0895EAE6F0E08081837FC2
S1130E30440F551F440F551F482B4083ED9A0895C6
S1130E40EAE6F0E080818F7C42955295507F5427EA
S1130E50407F5427482B4083EE9A0895EAE6F0E059
S1130E6080818F730024569547950794569547952E
S1130E700794542F402D482B4083EF9A08951F92D6
S1130E800F920FB60F9211240BB60F922F933F932C
S1130E904F935F936F937F938F939F93AF93BF937E
S1130EA0EF93FF93E0910002F09101021995FF91F5
S1130EB0EF91BF91AF919F918F917F916F915F91CE
S1130EC04F913F912F910F900BBE0F900FBE0F903B
S1130ED01F9018951F920F920FB60F9211240BB604
S1130EE00F922F933F934F935F936F937F938F93BF
S1130EF09F93AF93BF93EF93FF93E0910202F0911E
S1130F0003021995FF91EF91BF91AF919F918F913A
S1130F107F916F915F914F913F912F910F900BBEF5
S1130F200F900FBE0F901F9018951F920F920FB63F
S1130F300F9211240BB60F922F933F934F935F930D
S1130F406F937F938F939F93AF93BF93EF93FF938D
S1130F50E0910402F09105021995FF91EF91BF9180
S1130F60AF919F918F917F916F915F914F913F913D
S1130F702F910F900BBE0F900FBE0F901F901895DE
S1130F801F920F920FB60F9211240BB60F922F934C
S1130F903F934F935F936F937F938F939F93AF93FD
S1130FA0BF93EF93FF93E0910602F0910702199526
S1130FB0FF91EF91BF91AF919F918F917F916F912D
S1130FC05F914F913F912F910F900BBE0F900FBEE9
S1130FD00F901F9018951F920F920FB60F92112425
S1130FE00BB60F922F933F934F935F936F937F931F
S1130FF08F939F93AF93BF93EF93FF93E091080276
S1131000F09109021995FF91EF91BF91AF919F91D2
S11310108F917F916F915F914F913F912F910F909D
S11310200BBE0F900FBE0F901F9018951F920F923A
S11310300FB60F9211240BB60F922F933F934F9339
S11310405F936F937F938F939F93AF93BF93EF932C
S1131050FF93E0910A02F0910B021995FF91EF9131
S1131060BF91AF919F918F917F916F915F914F91BC
S11310703F912F910F900BBE0F900FBE0F901F90BA
S113108018951F920F920FB60F9211240BB60F9260
S11310902F933F934F935F936F937F938F939F937C
S11310A0AF93BF93EF93FF93E0910C02F0910D0285
S11310B01995FF91EF91BF91AF919F918F917F917E
S11310C06F915F914F913F912F910F900BBE0F90B5
S11310D00FBE0F901F9018951F920F920FB60F928C
S11310E011240BB60F922F933F934F935F936F93FB
S11310F07F938F939F93AF93BF93EF93FF93E0916D
S11311000E02F0910F021995FF91EF91BF91AF91EB
S11311109F918F917F916F915F914F913F912F910B
S11311200F900BBE0F900FBE0F901F901895982F25
S1131130813059F018F08230A1F01BC083B1E42F44
S1131140F0E0E45BFD4F80831AC02CB18091030171
S1131150E42FF0E0E45BFD4F2170880F822B808345
S113116014C080910601E42FF0E0E45BFD4F80831E
S113117012C0813051F018F0823091F40CC0EBE6CB
S1131180F0E08081682B60830BC0ECE6F0E08081A6
S1131190682B608305C0EDE6F0E08081682B6083F6
S11311A0E8E6F0E0408121E030E0B90102C0660FDA
S11311B0771F9A95E2F7CB01842B80830895982FAB
S11311C0969596959695282F27707894911139C005
S11311D0811105C070938404609383040EC0813030
S11311E029F470938A04609389040EC0823029F430
S11311F070939C0460939B040EC0833029F4709315
S1131200AE046093AD040EC0843029F470939E0440
S113121060939D040EC0853029F47093A8046093F4
S1131220A70484C0863029F47093980460939704CB
S11312307DC0873009F07AC070938C0460938B046E
S113124075C09130C9F5883029F470939A0460937D
S113125099040EC0893029F4709392046093910428
S11312600EC08A3029F47093A4046093A3040EC0C2
S11312708B3029F470939604609395040EC08C30DF
S113128029F47093B0046093AF040EC08D3029F438
S11312907093A2046093A10449C08E3029F4709322
S11312A0A00460939F0442C08F3009F03FC0709344
S11312B0AC046093AB043AC0923009F056C080315C
S11312C029F470938E0460938D040EC0813129F447
S11312D07093A6046093A5040EC0823129F4709320
S11312E08604609385040EC0833129F470939004BE
S11312F060938F040EC0843129F47093B204609318
S1131300B1040EC0853129F4709388046093870476
S11313100DC0863129F47093AA046093A90406C011
S1131320873121F4709394046093930461E070E036
S113133002C0660F771F2A95E2F7842F8D7F8130D4
S113134039F4E92FF0E0EA5BFD4F8081862B80833E
S11313504150423038F4E92FF0E0E75BFD4F8081E3
S1131360862B8083492F892FE2CE0895E091830450
S1131370F091840419950895E0918904F0918A0408
S113138019950895E0919B04F0919C041995089592
S1131390E091AD04F091AE0419950895E0919D0497
S11313A0F0919E0419950895E091A704F091A80482
S11313B019950895E0919704F0919804199508956A
S11313C0E0918B04F0918C04199508951F920F926B
S11313D00FB60F9211240BB60F922F933F934F9396
S11313E05F936F937F938F939F93AF93BF93CF93A9
S11313F0EF93FF9323B1ECE4F2E0C081822F8C27BA
S113140090914602922330914902C323C92BC823E9
S11314102083C4FDC3DFC5FDC7DFC6FDCBDFCC23FE
S11314200CF4CEDFC0FDA2DFC1FDA6DFC2FDAADF42
S1131430C3FDAEDFFF91EF91CF91BF91AF919F912B
S11314408F917F916F915F914F913F912F910F9069
S11314500BBE0F900FBE0F901F901895E09199044A
S1131460F0919A0419950895E0919104F0919204F1
S113147019950895E091A304F091A4041995089591
S1131480E0919504F091960419950895E091AF04C4
S1131490F091B00419950895E091A104F091A2048B
S11314A019950895E0919F04F091A0041995089569
S11314B0E091AB04F091AC04199508951F920F923A
S11314C00FB60F9211240BB60F922F933F934F93A5
S11314D05F936F937F938F939F93AF93BF93CF93B8
S11314E0EF93FF938CB1909103018170990F982B26
S11314F0ECE4F2E0C181892F8C2720914702292353
S113150030914A02C323C22BC8239183C0FDA6DFB6
S1131510C1FDAADFC2FDAEDFC3FDB2DFC4FDB6DF8D
S1131520C5FDBADFC6FDBEDFCC230CF4C1DFFF91DD
S1131530EF91CF91BF91AF919F918F917F916F91D7
S11315405F914F913F912F910F900BBE0F900FBE63
S11315500F901F901895E0918D04F0918E041995C9
S11315600895E091A504F091A60419950895E091D9
S11315708504F091860419950895E0918F04F09103
S1131580900419950895E091B104F091B20419956D
S11315900895E0918704F091880419950895E091E5
S11315A0A904F091AA0419950895E0919304F09187
S11315B09404199508951F920F920FB60F92112457
S11315C00BB60F922F933F934F935F936F937F9339
S11315D08F939F93AF93BF93CF93EF93FF932091F8
S11315E00601ECE4F2E0C281822F8C27909148023C
S11315F0922330914B02C323C92BC8232283C0FDFD
S1131600AADFC1FDAEDFC2FDB2DFC3FDB6DFC4FD9C
S1131610BADFC5FDBEDFC6FDC2DFCC230CF4C5DFD7
S1131620FF91EF91CF91BF91AF919F918F917F9156
S11316306F915F914F913F912F910F900BBE0F903F
S11316400FBE0F901F901895E1E8F0E010828081A2
S113165082608083808181608083E0E8F0E0808123
S113166081608083E1EBF0E0808184608083E0EB43
S1131670F0E0808181608083E1E9F0E08081826034
S11316808083808181608083E0E9F0E080818160F3
S11316908083E1EAF0E080818260808380818160E0
S11316A08083E0EAF0E0808181608083E1E2F1E020
S11316B0808182608083808181608083E0E2F1E0C8
S11316C080818160808308951F93CF93DF93182FC7
S11316D0EB0161E005D9209721F460E0812F3FD927
S11316E0B6C0CF3FD10521F461E0812F38D9AFC016
S11316F0E12FF0E0E655FD4FE4918E2F90E0FC01E0
S11317003197E231F10508F098C08827E658FF4F79
S11317108F4F0C94711784B5806884BDC7BD97C082
S113172085B5806285BDC8BD92C0E0E8F0E08081E7
S113173080688083D0938900C093880088C0E0E8E3
S1131740F0E0808180628083D0938B00C0938A0014
S11317507EC0E0E8F0E0808188608083D0938D00D3
S1131760C0938C0074C0E0EBF0E0808180688083DB
S1131770C093B3006CC0E0EBF0E0808180628083B2
S1131780C093B40064C0E0E9F0E0808180688083A5
S1131790D0939900C09398005AC0E0E9F0E08081AA
S11317A080628083D0939B00C0939A0050C0E0E98C
S11317B0F0E0808188608083D0939D00C0939C007A
S11317C046C0E0EAF0E0808180688083D093A9007D
S11317D0C093A8003CC0E0EAF0E08081806280838E
S11317E0D093AB00C093AA0032C0E0EAF0E080815D
S11317F088608083D093AD00C093AC0028C0E0E241
S1131800F1E0808180688083D0932901C09328010E
S11318101EC0E0E2F1E0808180628083D0932B01DE
S1131820C0932A0114C0E0E2F1E0808188608083E3
S1131830D0932D01C0932C010AC0C038D10524F4E3
S113184060E0812F8CD803C061E0812F88D8DF91BC
S1131850CF911F910895E0916D03F0E0E259FC4FA0
S1131860208180916D0390E001968F739078992385
S113187024F40197806C9F6F019680936D032093ED
S1131880D600E0EDF0E080818370806480839091E5
S1131890300480916D03981305C0E1EDF0E0808180
S11318A08F7D808308958091D00082FD13C02091A4
S11318B0D60080917E048F5F8F7390917504891791
S11318C059F0E0917E04F0E0E155FC4F20838093D1
S11318D07E0408958091D60008951F920F920FB64A
S11318E00F9211240BB60F922F933F934F935F9354
S11318F06F937F938F939F93AF93BF93EF93FF93D4
S1131900D2DFFF91EF91BF91AF919F918F917F9122
S11319106F915F914F913F912F910F900BBE0F905C
S11319200FBE0F901F9018951F920F920FB60F9233
S113193011240BB60F922F933F934F935F936F93A2
S11319407F938F939F93AF93BF93EF93FF9383DF23
S1131950FF91EF91BF91AF919F918F917F916F9183
S11319605F914F913F912F910F900BBE0F900FBE3F
S11319700F901F9018951F920F920FB60F9211247B
S11319800BB60F922F933F934F935F936F937F9375
S11319908F939F93AF93BF93EF93FF9380915202E2
S11319A090E001968F7399272091510230E08217BD
S11319B0930739F0809352022EB5FC01EB5AFD4F88
S11319C020839091540280915302981771F0809172
S11319D0530290E001968F73992780935302FC0180
S11319E0EB56FD4F80818EBD12C080914F0288233B
S11319F039F080914F02815080934F021EBC07C082
S1131A0061E083E10E94AF0481E080935002FF9182
S1131A10EF91BF91AF919F918F917F916F915F9162
S1131A204F913F912F910F900BBE0F900FBE0F90CF
S1131A301F901895789484B5826084BD84B58160C4
S1131A4084BD85B5826085BD85B5816085BDEEE6C2
S1131A50F0E080818160808308952FB7F8946091CD
S1131A60D6027091D7028091D8029091D9022FBFEB
S1131A7008953FB7F8948091DA029091DB02A09127
S1131A80DC02B091DD0226B5A89B05C02F3F19F0FA
S1131A900196A11DB11D3FBFBA2FA92F982F8827EA
S1131AA0820F911DA11DB11DBC01CD01660F771FD1
S1131AB0881F991F660F771F881F991F08958F929B
S1131AC09F92AF92BF92CF92DF92EF92FF926B01FF
S1131AD07C01CFDF4B015C01C114D104E104F104AA
S1131AE089F421C021E0C21AD108E108F10888EE86
S1131AF0880E83E0981EA11CB11CC114D104E1041A
S1131B00F10489F0B6DFDC01CB0188199909AA092F
S1131B10BB09883E9340A105B10520F7C114D10447
S1131B20E104F10479F7FF90EF90DF90CF90BF903C
S1131B30AF909F908F9008951F920F920FB60F92BF
S1131B4011242F933F938F939F93AF93BF938091CF
S1131B50D6029091D702A091D802B091D9023091C7
S1131B60D50223E0230F2D3720F40196A11DB11DCA
S1131B7005C026E8230F0296A11DB11D2093D502AE
S1131B808093D6029093D702A093D802B093D9023F
S1131B908091DA029091DB02A091DC02B091DD0227
S1131BA00196A11DB11D8093DA029093DB02A093EC
S1131BB0DC02B093DD02BF91AF919F918F913F9171
S1131BC02F910F900FBE0F901F9018958F929F9298
S1131BD0AF92BF92CF92DF92EF92FF920F931F9337
S1131BE0CF938B0149015A01789490911002891383
S1131BF00DC3EDE0F4E0C491F6C080931002EDE073
S1131C00F4E0C491CF3F09F447C3C23009F457C08C
S1131C1028F4CC2361F0C13071F1E5C0C43009F47B
S1131C209AC008F474C0C53009F4B9C0DCC014BC4F
S1131C3015BC94B5926094BD95B5916095BD282F5F
S1131C4030E0F901EC58FC4FE491F0E0EE0FFF1F97
S1131C50E752FC4F459154915093CC044093CB04EC
S1131C60F901E15FFC4F24912093B30461E00E94E9
S1131C707004C0E093C210928000E1E8F0E01082AA
S1131C80908198609083908191609083282F30E0B8
S1131C90F901EC58FC4FE491F0E0EE0FFF1FE7521E
S1131CA0FC4F459154915093D3044093D204F901CD
S1131CB0E15FFC4F24912093D104C1E0E9C2A0EB81
S1131CC0B0E01C92E1EBF0E010829C9192609C9356
S1131CD0908191609083282F30E0F901EC58FC4FFB
S1131CE0E491F0E0EE0FFF1FE752FC4F4591549151
S1131CF05093BA044093B904F901E15FFC4F249175
S1131D002093C60461E00E947004C2E00EC21092E7
S1131D109000E1E9F0E010829081986090839081D6
S1131D2091609083282F30E0F901EC58FC4FE49146
S1131D30F0E0EE0FFF1FE752FC4F45915491509392
S1131D40BD044093BC04F901E15FFC4F249120934E
S1131D50B404C3E09DC21092A000E1EAF0E0108256
S1131D60908198609083908191609083282F30E0D7
S1131D70F901EC58FC4FE491F0E0EE0FFF1FE7523D
S1131D80FC4F459154915093CA044093C904F901FE
S1131D90E15FFC4F24912093BB04C4E079C210920C
S1131DA02001E1E2F1E010829081986090839081BB
S1131DB091609083282F30E0F901EC58FC4FE491B6
S1131DC0F0E0EE0FFF1FE752FC4F45915491509302
S1131DD0C8044093C704F901E15FFC4F24912093A8
S1131DE0D804C5E055C2CC230CF456C261E00E946D
S1131DF07004CC2309F4D2C1C23009F07AC095C171
S1131E006801E12CF12C60E970ED83E090E0A7011A
S1131E1096010E944F1769017A0181E0C81AD1081E
S1131E20E108F1089FEFC916D104E104F10411F0AF
S1131E3008F0CEC183E056C098013695322F222790
S1131E403795279540E050E060E074E284EF90E03D
S1131E500E944F1769017A0181E0C81AD108E1088C
S1131E60F10883E012C0302F222740E050E060E008
S1131E7074E284EF90E00E944F1769017A0191E0C7
S1131E80C91AD108E108F10885E09FEFC916D10409
S1131E90E104F104B9F0B0F09801322F2227330F96
S1131EA040E050E060E074E284EF90E0F8D769012C
S1131EB07A0181E0C81AD108E108F108CC2309F4B9
S1131EC0BFC1DDC1C1110EC095B5987F892B85BDF9
S1131ED081149104A104B10409F082C02FEF3FEFF3
S1131EE0A9019DC0E1EBF0E09081987F892B80836C
S1131EF072C09801220F331F40E050E060E074E2AA
S1131F0084EF90E0CCD769017A0191E0C91AD10835
S1131F10E108F108C114D10481E0E806F104B0F04D
S1131F2098013695322F22273795279540E050E0C7
S1131F3060E074E284EF90E0B2D769017A0191E045
S1131F40C91AD108E108F10883E001C081E0C13079
S1131F5079F4E1E8F0E09081987F892B8083811403
S1131F609104A104B104E1F52FEF3FEFA90166C08C
S1131F70C33079F4E1E9F0E09081987F892B808384
S1131F8081149104A104B10459F52FEF3FEFA90185
S1131F9077C0C43079F4E1EAF0E09081987F892B2E
S1131FA0808381149104A104B104D1F42FEF3FEF95
S1131FB0A90178C0C53079F4E1E2F1E09081987F1D
S1131FC0892B808381149104A104B10449F42FEF77
S1131FD03FEFA90179C081149104A104B10461F017
S1131FE0D801AA0FBB1FA501940183D728EE33E0C3
S1131FF040E050E054D703C02FEF3FEFA901C230B7
S113200079F12CF4CC2359F0C130C1F045C1C4306E
S113201009F448C0ACF1C53009F456C03DC1C7BC91
S11320202093D4043093D5044093D6045093D7041A
S1132030EEE6F0E08081826080832EC1D092890038
S1132040C09288002093CD043093CE044093CF04F3
S11320505093D004EFE6F0E08081826080831CC15D
S1132060C092B3002093D9043093DA044093DB0484
S11320705093DC04E0E7F0E08081826080830CC14F
S1132080D0929900C09298002093C2043093C30464
S11320904093C4045093C504E1E7F0E0808182607A
S11320A08083FAC0D092A900C092A8002093BE04F5
S11320B03093BF044093C0045093C104E2E7F0E0BE
S11320C0808182608083E8C0D0922901C092280177
S11320D02093B5043093B6044093B7045093B804E6
S11320E0E3E7F0E0808182608083D6C09801229586
S11320F03295307F3227207F322740E050E060E085
S113210074E284EF90E0CBD669017A0181E0C81AC9
S1132110D108E108F1089FEFC916D104E104F104E4
S113212011F008F06DCE82E0DDCE9801220F331F4E
S113213040E050E060E074E284EF90E0B0D66901E2
S11321407A0181E0C81AD108E108F1089FEFC916A5
S1132150D104E104F10409F048F681E0C3CE98010A
S113216022953295307F3227207F322740E050E09D
S113217060E074E284EF90E092D669017A0181E034
S1132180C81AD108E108F1089FEFC916D104E10487
S1132190F10411F008F050CE82E096CE9801220F9F
S11321A0331F40E050E060E074E284EF90E077D6C3
S11321B069017A0181E0C81AD108E108F1089FEFAA
S11321C0C916D104E104F10409F048F681E07CCE9B
S11321D098013695322F22273795279540E050E015
S11321E060E074E284EF90E05AD669017A0181E0FC
S11321F0C81AD108E108F1089FEFC916D104E10417
S1132200F10411F008F02FCE84E06CCE9F3F09F06A
S113221043C0F3CC9801322F2227330F330F330FEF
S113222040E050E060E074E284EF90E038D6690169
S11322307A0181E0C81AD108E108F10885E044CEAA
S11322409FEFC916D104E104F10409F018F784E002
S113225039CE9801322F2227330F330F330F40E04A
S113226050E060E074E284EF90E019D669017A01ED
S113227081E0C81AD108E108F10887E033CE9FEF66
S1132280C916D104E104F10409F018F786E01ACE66
S113229061E00E9470042DCECF911F910F91FF90A9
S11322A0EF90DF90CF90BF90AF909F908F90089564
S11322B08230A9F028F4882349F0813051F0089540
S11322C0843021F1E8F0853039F1089510926E00E0
S11322D00895EFE6F0E080818D7F80830895E0E744
S11322E0F0E080818D7F808381E08093B000E1EB1A
S11322F0F0E08081887F846080831092B300089529
S1132300E1E7F0E080818D7F80830895E2E7F0E0EB
S113231080818D7F80830895E3E7F0E080818D7F65
S113232080830895CF93C82F80911002C81307C0EB
S1132330EDE0F4E084919FEF9093100201C08FEFE1
S1132340B7DF60E08C2F0E94AF04CF9108951F92F5
S11323500F920FB60F9211240BB60F922F933F9347
S11323604F935F936F937F938F939F93AF93BF9399
S1132370EF93FF938091C2049091C304A091C4048D
S1132380B091C504892B8A2B8B2B51F19091B40405
S1132390E091BC04F091BD04808189278083809101
S11323A0C2049091C304A091C404B091C50418164A
S11323B019061A061B0604F58091C2049091C30401
S11323C0A091C404B091C5040197A109B1098093F7
S11323D0C2049093C304A093C404B093C5040CC076
S11323E083E066DF8091B404E091BC04F091BD0405
S11323F09081809589238083FF91EF91BF91AF9164
S11324009F918F917F916F915F914F913F912F9108
S11324100F900BBE0F900FBE0F901F901895109247
S1132420510381E080934F0310924E0382E0809326
S1132430B800E9EBF0E080818360808385E48093D9
S1132440BC000895ECEBF0E080818A7B808360E03F
S11324508CE20E94AF0460E08BE20C94AF04089518
S113246085EC8093BC00109251030895EF92FF9283
S11324700F931F93CF93DF9391E0909349038823A5
S113248061F0C8EBD0E0F8800AEB10E0F801E080DE
S1132490D9DFC5DFF801E082F882DF91CF911F9187
S11324A00F91FF90EF9008954F925F926F927F92F9
S11324B08F929F92AF92BF92CF92DF92FF920F932F
S11324C01F93CF93DF93182FF62E072FD42FD22EDE
S11324D0413208F0C3C0CDDA4B015C0125C08091C4
S11324E04A0390914B03A0914C03B0914D03892B67
S11324F08A2B8B2BC9F0BDDA40904A0350904B03D2
S113250060904C0370904D03DC01CB01881999094C
S1132510AA09BB09481659066A067B0628F4809165
S11325204803A4DFC0E09BC0C0915103C111D7CFC1
S113253081E080935103D0924F039FEF9093DE028A
S1132540109223039D0F9093220380935003809154
S11325505003110F182B1093500380914E038130B8
S1132560B1F510924E0385DA4B015C010F2EFCEBA2
S1132570CF2ED12CF02D80914A0390914B03A09142
S11325804C03B0914D03892B8A2B8B2BC1F071DA4C
S113259040904A0350904B0360904C0370904D035D
S11325A0DC01CB0188199909AA09BB094816590607
S11325B06A067B0620F48091480358DF50C0F60178
S11325C0808183FDD8CF85EC8093BC0003C085EE69
S11325D08093BC004EDA4B015C0124C080914A0315
S11325E090914B03A0914C03B0914D03892B8A2BFE
S11325F08B2BC1F03EDA40904A0350904B0360901D
S11326004C0370904D03DC01CB0188199909AA0988
S1132610BB09481659066A067B0620F480914803D4
S113262025DF1DC0809151038130C1F280912303C5
S11326308D1710F4D0912303DD2389F0E4E2F3E055
S1132640AF2DB02F2FEF2D0F30E02B5D3C4F81913C
S11326508D93E217F307D9F7CD2F01C0C0E08C2F7B
S1132660DF91CF911F910F91FF90DF90CF90BF909A
S1132670AF909F908F907F906F905F904F90089550
S11326804F925F926F927F928F929F92AF92BF927E
S1132690DF92EF92FF920F931F93CF93DF93413218
S11326A008F0EBC0122FD42E7B01D82FE2D94B01B6
S11326B05C0125C080914A0390914B03A0914C0387
S11326C0B0914D03892B8A2B8B2BC9F0D2D9409022
S11326D04A0350904B0360904C0370904D03DC010F
S11326E0CB0188199909AA09BB09481659066A0633
S11326F07B0628F480914803B9DEC5E0C3C0C091CD
S11327005103C111D7CF82E08093510300934F034B
S11327108FEF8093DE0210922303D0922203DD20F8
S113272079F0F701A4E2B3E06FEF6D0D70E06F5F35
S11327307F4F6E0D7F1D91919D93E617F707D9F793
S11327401092500380915003DD0FD82BD093500387
S113275080914E03813009F040C010924E0389D914
S11327602B013C010F2EFBEBEF2EF12CF02D0F2E45
S1132770FCEBAF2EB12CF02D80915003F701808338
S113278080914A0390914B03A0914C03B0914D0367
S1132790892B8A2B8B2BC9F06CD920914A03309159
S11327A04B0340914C0350914D03DC01CB01841940
S11327B09509A609B709281739074A075B0728F4BA
S11327C08091480353DEC5E05DC0F501808183FD3F
S11327D0D3CF85EC8093BC0003C085EE8093BC000E
S11327E048D94B015C0125C080914A0390914B0369
S11327F0A0914C03B0914D03892B8A2B8B2B59F15B
S113280038D940904A0350904B0360904C03709029
S11328104D03DC01CB0188199909AA09BB094816A3
S113282059066A067B0628F4809148031FDEC5E03A
S113283029C01123A1F080915103823081F4809149
S11328404A0390914B03A0914C03B0914D03892B03
S11328508A2B8B2BA9F680915103823029F2809127
S1132860DE028F3F79F08091DE02803241F0809168
S1132870DE02803331F0C4E005C0C1E003C0C2E031
S113288001C0C3E08C2FDF91CF911F910F91FF9076
S1132890EF90DF90BF90AF909F908F907F906F905C
S11328A05F904F90089585ED8093BC0040914A035A
S11328B050914B0360914C0370914D03495F5F4FFE
S11328C06F4F7F4F689412F87695679557954795A3
S11328D01694D1F7ECEBF0E01EC080914A0390917E
S11328E04B03A0914C03B0914D03892B8A2B8B2B66
S11328F091F0411551056105710549F08AE28A9507
S1132900F1F700C0415051096109710904C0809177
S11329104803ACCD0895808184FDDFCF109251032C
S113292008951F920F920FB60F9211240BB60F92B7
S11329302F933F934F935F936F937F938F939F93C3
S1132940AF93BF93EF93FF938091B900887F90E09A
S1132950893C910508F0EEC0FC018827E457FF4F3D
S11329608F4FBFC2809150038093BB0085EC80934E
S1132970BC00E0C09091230380912203981780F457
S1132980E091230381E08E0F80932303F0E0EC5D5C
S1132990FC4F80818093BB0085EC8093BC00CAC04F
S11329A080914F03882311F07EDFC4C081E08093BF
S11329B04E0384EA8093BC0010925103BBC080E2B2
S11329C08093DE0270DFB6C080E38093DE026BDFAB
S11329D0B1C088E38093DE0243DDACC0E091230301
S11329E081E08E0F809323038091BB00F0E0EC5DC7
S11329F0FC4F80839091230380912203981720F445
S1132A0085EC8093BC0096C085E88093BC0092C09E
S1132A10E091230381E08E0F809323038091BB0018
S1132A20F0E0EC5DFC4F808380914F03882311F02C
S1132A303ADF80C081E080934E0384EA8093BC0037
S1132A401092510377C02FDF75C083E08093510348
S1132A501092DF0285EC8093BC006CC08091DF0291
S1132A60803280F4E091DF0281E08E0F8093DF02F8
S1132A708091BB00F0E0E052FD4F808385EC8093B1
S1132A80BC0058C085E88093BC0054C0E9DC809148
S1132A90DF02803230F4E091DF02F0E0E052FD4FDB
S1132AA010826091DF0270E0E0914403F0914503ED
S1132AB080EE92E019951092DF023CC085E8809385
S1132AC0BC0038C084E0809351031092010310923B
S1132AD00003E0914603F0914703199580910003A8
S1132AE0811105C081E08093000310920203E091FC
S1132AF0010381E08E0F80930103F0E0EE5FFC4F51
S1132B0080818093BB00909101038091000398170A
S1132B1020F485EC8093BC000DC085E88093BC0054
S1132B2009C085EC8093BC001092510303C010923D
S1132B30DE02B9DEFF91EF91BF91AF919F918F912A
S1132B407F916F915F914F913F912F910F900BBEA9
S1132B500F900FBE0F901F90189541E060E08DE13B
S1132B6092E00C947903089589E50E94D10489E2E6
S1132B7092E00C943F06089588E50C94D1040895DE
S1132B8087E50C94D104089564E670E080E090E059
S1132B900E945F0D2AEF30E040E050E063E870E00F
S1132BA085E014D885E0BEDB6DE770E080E090E05E
S1132BB00E945F0D2AEF30E040E050E063E870E0EF
S1132BC085E004D824EF31E040E050E063E970E0B0
S1132BD085E00E94E60D24EF31E040E050E063E838
S1132BE070E085E00E94E60D24EF31E040E050E023
S1132BF06FEA70E085E00E94E60D28EE33E040E0E5
S1132C0050E065EA70E085E00E94E60D2AEF30E0CE
S1132C1040E050E063E870E085E00E94E60D85E066
S1132C2081DB6DE770E080E090E00E945F0D2AEFA9
S1132C3030E040E050E063E870E085E00E94E60D9B
S1132C4024EF31E040E050E063E970E085E00E9469
S1132C50E60D24EF31E040E050E063E870E085E009
S1132C600E94E60D24EF31E040E050E064EC70E0B7
S1132C7085E00E94E60D28EE33E040E050E06FEA84
S1132C8070E085E00E94E60D2AEF30E040E050E07D
S1132C9063E870E085E00E94E60D85E043DB6DE7C4
S1132CA070E080E090E00E945F0D2AEF30E040E0A9
S1132CB050E063E870E085E00E94E60D24EF31E027
S1132CC040E050E066E071E085E00E94E60D24EF0C
S1132CD031E040E050E06CED70E085E00E94E60DEC
S1132CE024EF31E040E050E06FEA70E085E00E94BC
S1132CF0E60D24EF31E040E050E065EA70E085E065
S1132D000E94E60D24EF31E040E050E063E970E01A
S1132D1085E00E94E60D2AEF30E040E050E069EEE5
S1132D2070E085E00E94E60D85E0FCDA6DE770E076
S1132D3080E090E00E945F0D2AEF30E040E050E038
S1132D4069EE70E085E00E94E60D24EF31E040E09A
S1132D5050E06CED70E085E00E94E60D24EF31E078
S1132D6040E050E06FEA70E085E00E94E60D24EF59
S1132D7031E040E050E064EC70E085E00E94E60D54
S1132D8028EE33E040E050E06FEA70E085E00E9416
S1132D90E60D85E0C7DA64E670E080E090E00C942C
S1132DA05F0D0895CF93DF93CDB7DEB765970FB668
S1132DB0F894DEBF0FBECDBF0E941A0D0E94240BF3
S1132DC00E94610446E060E875E280E090E00E94C1
S1132DD0EB040E94DD020E94B00240E060E084E364
S1132DE092E00E9479030E94D70361E089E50E9482
S1132DF0700461E088E50E94700461E087E50E9448
S1132E00700460E081E40E94700460E082E40E9447
S1132E10700460E083E40E94700443E064EB75E1B5
S1132E208BE00E94DF0843E06CEB75E18CE00E94CC
S1132E30DF0843E060EC75E18DE00E94DF0843E0C9
S1132E4050E06DEA75E185E00E94C2066FE370E030
S1132E508FE00E94640B98DECE010B960E94090459
S1132E6041E062E0CE010B960E94790361E080E0CC
S1132E700E94B9020E945405892B71F368EE73E035
S1132E8080E090E00E945F0D6AE070E0CE01019660
S1132E900E94A605CE0101960E943F06DDCFA1E265
S1132EA01A2EAA1BBB1BFD010DC0AA1FBB1FEE1FC0
S1132EB0FF1FA217B307E407F50720F0A21BB30B0B
S1132EC0E40BF50B661F771F881F991F1A9469F787
S1132ED060957095809590959B01AC01BD01CF01E3
S1132EE00895EE0FFF1F881F8BBF0790F691E02D0A
S1132EF0199409D0A59F900DB49F900DA49F800DA7
S1132F00911D11240895A29FB001B39FC001A39FF6
S1132F10700D811D1124911DB29F700D811D11240E
S10B2F20911D0895F894FFCF00
S1132F28C106C106C106C106C106C106C106C1065D
S1132F38FF436C6F636B20696E69743100534420DE
S1132F48446574656374656400476F6F64207374C3
S1132F58756666004D435520545241494E494E47C3
S1092F68204B4954000057
S9030000FC
