S00E0000544B323536302E73726563AA
S1130000F1C000000EC100000CC100000AC10000D4
S113001008C1000006C1000004C1000002C10000C4
S113002000C10000FEC00000FCC00000FAC00000D7
S1130030F8C00000F6C00000F4C00000F2C00000E8
S1130040F0C00000EEC00000ECC00000EAC00000F8
S1130050E8C00000E6C00000E4C00000E2C0000008
S1130060E0C00000DEC00000DCC00000DAC0000018
S1130070D8C00000D6C00000D4C00000D2C0000028
S11300800DC50000CEC00000CCC00000CAC00000F6
S1130090C8C00000C6C00000C4C00000C2C0000048
S11300A0C0C00000BEC00000BCC00000BAC0000058
S11300B0B8C00000B6C00000B4C00000B2C0000068
S11300C0B0C00000AEC00000ACC00000AAC0000078
S11300D0A8C00000A6C00000A4C00000A2C0000088
S11300E0A0C000000020010204081020408000008D
S11300F001020408102040010204081020408080FE
S113010008100000000000010204081020408001D3
S1130110020408102040800102010204081020405B
S113012080000001020408102040048040201008D0
S11301300402018000008040201008040201804075
S1130140201008040201000000000705050505054C
S1130150050505000008080808080808020202024C
S11301600202020208070700000000000C0C0C0C3D
S11301700C0C0C0C04040404040404040707030317
S113018003030303030300000A0A0A0A0A0A0A070C
S113019001010101010101010A00000B0B0B0B0B12
S11301A00B0B0B06060606060606060000000000FA
S11301B02200250028002B002E003100340002010B
S11301C00000050108010B010000210024002700A4
S11301D02A002D0030003300010100000401070152
S11301E00A01030011241FBECFEFD1E2DEBFCDBF51
S11301F000E00CBF12E0A0E0B2E0E8E2FCE000E0C6
S11302000BBF02C007900D92A230B107D9F722E0CC
S1130210A2E0B2E001C01D92AC32B207E1F7A6D46D
S113022001C5EECECF93DF9390E0FC01EC51FF4F7C
S11302302491FC01E75BFE4F8491882379F190E0DF
S1130240880F991FFC01E853FE4FA591B491FC015E
S1130250E255FE4FC591D49161110CC09FB7F8943B
S11302608C91E22FE0958E238C932881E223E883FE
S11302709FBF14C0623061F49FB7F8948C91322F01
S1130280309583238C93E881E22BE8839FBF06C0DB
S11302908FB7F894EC91E22BEC938FBFDF91CF9161
S11302A0089590E0FC01EC51FF4F2491FC01E75BC1
S11302B0FE4F84918823B1F0E82FF0E0EE0FFF1F8A
S11302C0E255FE4FA591B4918FB7F894611106C021
S11302D09C91E22FE095E923EC9303C0EC91E22B8F
S11302E0EC938FBF08954F925F926F927F928F929B
S11302F09F92AF92BF92CF92DF92EF92FF920F93B1
S11303001F93CF93DF93CDB7DEB729970FB6F89439
S1130310DEBF0FBECDBF8B0149015A01909100028F
S1130320891316C3E2EEF1E024912987FDC080937E
S11303300002E2EEF1E0949199839F3F09F449C3EE
S1130340923009F458C028F4992369F0913071F17E
S1130350E9C0A981A43009F49BC008F474C0A53095
S113036009F4BBC0DFC014BC15BC94B5926094BD45
S113037095B5916095BD282F30E0F901E75BFE4FFC
S1130380E491F0E0EE0FFF1FE255FE4F45915491CA
S113039050931B0240931A02F901EC51FF4F249130
S11303A02093020261E03EDF198693C2109280001E
S11303B0E1E8F0E0108290819860908390819160F0
S11303C09083282F30E0F901E75BFE4FE491F0E0E1
S11303D0EE0FFF1FE255FE4F4591549150932202B8
S11303E040932102F901EC51FF4F24912093200204
S11303F0B1E0B987EBC2A0EBB0E01C92E1EBF0E016
S113040010829C9192609C93908191609083282F9C
S113041030E0F901E75BFE4FE491F0E0EE0FFF1FDF
S1130420E255FE4F459154915093090240930802BE
S1130430F901EC51FF4F24912093150261E0F2DEA3
S113044022E0298706C210929000E1E9F0E01082D0
S1130450908198609083908191609083282F30E000
S1130460F901E75BFE4FE491F0E0EE0FFF1FE25568
S1130470FE4F4591549150930C0240930B02F901A5
S1130480EC51FF4F24912093030293E099879EC27D
S11304901092A000E1EAF0E01082908198609083CD
S11304A0908191609083282F30E0F901E75BFE4F43
S11304B0E491F0E0EE0FFF1FE255FE4F4591549199
S11304C05093190240931802F901EC51FF4F249103
S11304D020930A02A4E0A98779C210922001E1E2E4
S11304E0F1E0108290819860908390819160908374
S11304F0282F30E0F901E75BFE4FE491F0E0EE0FC6
S1130500FF1FE255FE4F45915491509317024093BB
S11305101602F901EC51FF4F249120932702B5E014
S1130520B98754C229812987998599230CF451C22A
S113053061E078DEA985AA2309F4CBC1A23009F0D1
S11305406DC087C169E07DE380E090E029813A8154
S11305504B815C812CD369017A01B1E0CB1AD108BB
S1130560E108F1082FEFC216D104E104F10411F0FF
S113057008F0D5C185E04BC073016201689415F899
S1130580F694E794D794C7941694D1F781E0C81AE7
S1130590D108E108F10883E010C073016201689496
S11305A016F8F694E794D794C7941694D1F791E08B
S11305B0C91AD108E108F10885E0AFEFCA16D104E1
S11305C0E104F10499F090F08D819E81AF81B885AA
S11305D0C92EDA2EEB2EFF2491E0C91AD108E108C6
S11305E0F108A985AA2309F4CBC1E7C1B985B111E2
S11305F00EC095B5987F892B85BD81149104A10403
S1130600B10409F084C02FEF3FEFA901A1C0E1EBD1
S1130610F0E09081987F892B808374C06801E12C7D
S1130620F12C60E271EA87E090E0A7019601BFD265
S113063069017A0181E0C81AD108E108F108C114FE
S1130640D10491E0E906F10498F0DA01C901689453
S113065015F8B695A795979587951694D1F76C01DB
S11306607D0121E0C21AD108E108F10883E001C04C
S113067081E09985913081F4E1E8F0E09081987F00
S1130680892B808381149104A104B10409F03FC033
S11306902FEF3FEFA9016BC0A985A33079F4E1E9FD
S11306A0F0E09081987F892B808381149104A104C8
S11306B0B10469F52FEF3FEFA9017BC0B985B430D0
S11306C079F4E1EAF0E09081987F892B80838114AA
S11306D09104A104B104D9F42FEF3FEFA9017BC029
S11306E02985253079F4E1E2F1E09081987F892B26
S11306F0808381149104A104B10449F42FEF3FEFE6
S1130700A9017BC081149104A104B10461F0D80152
S1130710AA0FBB1FA50194016CD228EE33E040E080
S113072050E045D203C02FEF3FEFA9018985823005
S113073081F12CF4882361F08130C9F04AC1998594
S1130740943009F448C0ACF1953009F456C041C165
S1130750C7BC209323023093240240932502509374
S11307602602EEE6F0E080818260808332C1D0927E
S11307708900C092880020931C0230931D0240938C
S11307801E0250931F02EFE6F0E0808182608083B6
S113079020C1C092B30020932802309329024093D1
S11307A02A0250932B02E0E7F0E08081826080838C
S11307B010C1D0929900C0929800209311023093F6
S11307C012024093130250931402E1E7F0E0808197
S11307D082608083FEC0D092A900C092A8002093BA
S11307E00D0230930E0240930F0250931002E2E781
S11307F0F0E0808182608083ECC0D0922901C092B5
S1130800280120930402309305024093060250937A
S11308100702E3E7F0E0808182608083DAC064E26B
S113082074EF80E090E029813A814B815C81BFD1F3
S113083069017A01A1E0CA1AD108E108F108BFEF01
S1130840CB16D104E104F10411F008F07BCE82E070
S1130850DECEC801A0E0B0E089839A83AB83BC8379
S113086060E271EA87E090E029813A814B815C8102
S11308709ED129013A012D833E834F835887690114
S11308807A0191E0C91AD108E108F108AFEFCA165C
S1130890D104E104F10409F010F681E0B8CE64E279
S11308A074EF80E090E029813A814B815C817FD1B3
S11308B069017A01B1E0CB1AD108E108F1082FEF00
S11308C0C216D104E104F10411F008F055CE82E01F
S11308D090CEC801A0E0B0E089839A83AB83BC8347
S11308E060E271EA87E090E029813A814B815C8182
S11308F05ED129013A012D833E834F8358876901D4
S11309007A0191E0C91AD108E108F108AFEFCA16DB
S1130910D104E104F10409F010F681E06ACE730118
S11309206201689415F8F694E794D794C7941694E2
S1130930D1F7B1E0CB1AD108E108F1082FEFC216C4
S1130940D104E104F10411F008F027CE84E05FCE75
S11309509F3F09F03EC0EBCCCD80DE80EF80F88471
S11309600B2EBAE0F694E794D794C794BA95D1F7CE
S1130970B02D81E0C81AD108E108F10885E039CE2C
S11309809FEFC916D104E104F10409F028F784E0CB
S11309902DCECD80DE80EF80F8840B2EBAE0F69465
S11309A0E794D794C794BA95D1F7B02DA1E0CA1AA9
S11309B0D108E108F10887E02ACEBFEFCB16D104B5
S11309C0E104F10409F028F786E010CE61E02ADCA6
S11309D025CE29960FB6F894DEBF0FBECDBFDF91AA
S11309E0CF911F910F91FF90EF90DF90CF90BF9028
S11309F0AF909F908F907F906F905F904F900895ED
S1130A008230A9F028F4882349F0813051F0089508
S1130A10843021F1E8F0853039F1089510926E00A8
S1130A200895EFE6F0E080818D7F80830895E0E70C
S1130A30F0E080818D7F808381E08093B000E1EBE2
S1130A40F0E08081887F846080831092B3000895F1
S1130A50E1E7F0E080818D7F80830895E2E7F0E0B4
S1130A6080818D7F80830895E3E7F0E080818D7F2E
S1130A7080830895CF93C82F80910002C81307C0C4
S1130A80E2EEF1E084919FEF9093000201C08FEFBA
S1130A90B7DF60E08C2F05DCCF9108951F920F9291
S1130AA00FB60F9211240BB60F922F933F934F93CF
S1130AB05F936F937F938F939F93AF93BF93EF93C2
S1130AC0FF938091110290911202A0911302B091B0
S1130AD01402892B8A2B8B2B51F190910302E09104
S1130AE00B02F0910C02808189278083809111028E
S1130AF090911202A0911302B091140218161906D3
S1130B001A061B0604F58091110290911202A0911D
S1130B101302B09114020197A109B1098093110243
S1130B2090931202A0931302B09314020CC083E0BA
S1130B3067DF80910302E0910B02F0910C02908137
S1130B40809589238083FF91EF91BF91AF919F910D
S1130B508F917F916F915F914F913F912F910F9062
S1130B600BBE0F900FBE0F901F90189561E089E5A2
S1130B7059DB61E086E556DB60E081E453DBC8E0E5
S1130B80D0E02CE231E040E050E060EB71E085E041
S1130B90AADB2FE681E191E0215080409040E1F70B
S1130BA000C0000085E066DF219759F7FFCFA1E27E
S1130BB01A2EAA1BBB1BFD010DC0AA1FBB1FEE1FD3
S1130BC0FF1FA217B307E407F50720F0A21BB30B1E
S1130BD0E40BF50B661F771F881F991F1A9469F79A
S1130BE060957095809590959B01AC01BD01CF01F6
S1130BF0089509D0A59F900DB49F900DA49F800DDA
S1130C00911D11240895A29FB001B39FC001A39F19
S1130C10700D811D1124911DB29F700D811D112431
S10B0C20911D0895F894FFCF23
S1050C28FF00C7
S9030000FC
