:1000000006C200003CC7000065C700008EC70000A4
:10001000B7C70000E0C700000C9416080C94410814
:100020000C946C080C94E6090C945E0A0C94DB0AA0
:100030000FC200000DC200000BC2000009C2000088
:1000400007C2000005C2000003C2000001C2000098
:10005000FFC10000FDC10000FBC100000C943C0D7D
:10006000F7C1000040C6000065C60000F1C10000F5
:10007000EFC10000EDC10000EBC10000E9C10000CC
:100080000C94C00DE5C10000E3C10000E1C1000017
:10009000DFC10000DDC10000DBC100000C94A8102E
:1000A000D7C10000D5C10000D3C10000D1C10000FC
:1000B000CFC10000CDC10000CBC10000C9C100000C
:1000C000C7C10000C5C10000C3C100000C946C0C86
:1000D0000C94930CBDC10000BBC10000B9C100006D
:1000E000B7C10000D906E106ED06FB060C071407B0
:1000F00020072E078A0B8F0B940B9E0BA80B1C0C52
:10010000B20BBA0BC20BCC0BD60BE00BEA0BF40B09
:100110001C0CFE0B080C120CAE11B111B111B11177
:10012000B111B111B111B111C910B111B111B111A8
:10013000B111B111B111B111C910B111B111B11198
:10014000B111B111B111B111D110B111B111B11180
:10015000B111B111B111B111F610B111B111B1114B
:10016000B111B111B111B111D110B111B111B11160
:10017000B111B111B111B111FB10B111B111B11126
:10018000B111B111B111B1110011B111B111B11110
:10019000B111B111B111B1111111B111B111B111EF
:1001A000B111B111B111B1113A11B111B111B111B6
:1001B000B111B111B111B1110511B111B111B111DB
:1001C000B111B111B111B1111F11B111B111B111B1
:1001D000B111B111B111B1113C11B111B111B11184
:1001E000B111B111B111B1113C11B111B111B11174
:1001F000B111B111B111B1113C11B111B111B11164
:10020000B111B111B111B1113C11B111B111B11153
:10021000B111B111B111B1114511B111B111B1113A
:10022000B111B111B111B1117511B111B111B111FA
:10023000B111B111B111B1114511B111B111B1111A
:10024000B111B111B111B1117511B111B111B111DA
:10025000B111B111B111B1115D11B111B111B111E2
:10026000B111B111B111B1117911B111B111B111B6
:10027000B111B111B111B1117911B111B111B111A6
:10028000B111B111B111B1118E11B111B111B11181
:10029000B111B111B111B111A811B111B111B11157
:1002A000B111B111B111B111A81100020000000982
:1002B0000A0B000000000000000C0D0E08000000FA
:1002C000000703040100000000000000000000001F
:1002D00010111200000000000000000000000000EB
:1002E000000000000000000000000000000000000E
:1002F00000000000000000000000000000000000FE
:1003000000000000000000000000000000000000ED
:10031000200102040810204080000001020408109F
:1003200020400102040810204080800810000000D6
:10033000000001020408102040800102040810207F
:1003400040800102010204081020408000000102E8
:10035000040810204004804020100804020180009E
:100360000080402010080402018040201008040290
:10037000010000000007050505050505050500004D
:10038000080808080808080202020202020202081D
:10039000070700000000000C0C0C0C0C0C0C0C04EB
:1003A000040404040404040707030303030303030E
:1003B0000300000A0A0A0A0A0A0A070101010101E8
:1003C0000101010A00000B0B0B0B0B0B0B0B0606BC
:1003D000060606060606000000000022002500288A
:1003E000002B002E0031003400020100000501083E
:1003F000010B0100002100240027002A002D0030FD
:1004000000330001010000040107010A010011246A
:100410001FBECFEFD1E2DEBFCDBF00E00CBF12E0C8
:10042000A0E0B2E0EEEFF4E200E00BBF02C0079004
:100430000D92A434B107D9F724E0A4E4B2E001C0DE
:100440001D92A535B207E1F70E94DB110C947D12D5
:10045000D7CD159885E08A95F1F70000159A95E0BB
:100460009A95F1F7000015988FE891E00197F1F760
:1004700000C000000895CF93DF93E0EDF2E020E0AC
:1004800030E0A82FB0E0C1E0D0E0AD01022E02C004
:10049000559547950A94E2F740FF0BC082B1AE0133
:1004A000008002C0440F551F0A94E2F7482B42B95E
:1004B0000CC042B1BE01008002C0660F771F0A94D3
:1004C000E2F7962F9095942392B92F5F3F4F319684
:1004D00024303105D1F6BDDFDF91CF9108958695A7
:1004E0008170E0EDF2E068ED72E0A1E0B0E0882319
:1004F00059F092B19D01008002C0220F331F0A946F
:10050000E2F7292B22B90CC022B1AD01008002C054
:10051000440F551F0A94E2F7942F9095922392B9B5
:100520003196E617F70719F794CF0895CF93C82FA0
:10053000662311F0179A01C0179816988091D90276
:1005400084FF03C08C2FCBDF06C08C2F82958F7069
:1005500092DF8C2F90DFCF91089560E0E7CF089570
:1005600081E0FBDF8FE39FE10197F1F700C000001E
:100570000895EAECF2E0108290E4918394E1928392
:1005800094E59383643008F063E09091CF0269179B
:1005900010F06FEF690FE62FF0E0E653FD4F90810A
:1005A000890F8068DACF08958091CE02982F9460E9
:1005B0009093CE028C60D1CF0895CF93E0EDF2E01E
:1005C00083E0808382E0818391E0928313821482AE
:1005D00015821682178298E09093D9028093CF02F9
:1005E0000F9A0E9A0D9A0C9A149A20E030E0C8E007
:1005F000B0E0A4E050E061E070E00CC041B1CB019C
:10060000019002C0880F991F0A94E2F7842B81B9E8
:100610002F5F3F4F8091D90284FD03C08A2F952F11
:1006200002C08C2F9B2F2817390744F32FEF80E748
:1006300092E0215080409040E1F700C00000179800
:10064000159816988091D90284FD1BC083E013DFB2
:100650008FE496E40197F1F700C0000083E00BDF20
:100660008FE496E40197F1F700C0000083E003DF18
:1006700087E592E00197F1F700C0000082E0FBDE21
:1006800016C080626ADF8FE496E40197F1F700C03C
:1006900000008091D902806260DF87E592E00197D7
:1006A000F1F700C000008091D902806256DF80918E
:1006B000D902806252DF84E08093CE0275DF50DF82
:1006C00082E08093D80286E048DFCF91089561E010
:1006D0002DDF81E00895CF93DF93EC01888188239B
:1006E00029F02196F4DF89918111FCCFDF91CF9120
:1006F0000895CF93DF93EC01862F642F3ADFCE016C
:10070000EADFDF91CF910895EF92FF920F93CF939D
:10071000DF931F92CDB7DEB789837B0100E021E034
:1007200041E0BE016F5F7F4F88E60E94570F811145
:100730000BC021E041E0B70188E60E946B0E91E01A
:10074000811103C090E001C090E0892F0F90DF91EC
:10075000CF910F91FF90EF9008950F93CF93DF9378
:100760001F921F92CDB7DEB789836A8300E021E034
:1007700041E0BE016F5F7F4F88E60E94570F8111F5
:100780000EC001E021E041E0BE016E5F7F4F88E6D0
:100790000E94570F91E0882319F090E001C090E08B
:1007A000892F0F900F90DF91CF910F910895CF93E4
:1007B000DF931F92CDB7DEB70E94280EBE016F5F98
:1007C0007F4F80E0A1DF982F8823F1F041E062E0C5
:1007D00080E192E08EDF69816F77698380E0BDDF21
:1007E000982F882389F0BE016F5F7F4F82E08CDFF6
:1007F000982F882349F069816064698382E0ADDFC6
:1008000091E0811101C090E0892F0F90DF91CF918D
:1008100008950F931F93CF93DF931F92CDB7DEB749
:100820008C01BE016F5F7F4F80E06EDF882309F48B
:1008300042C0F80113868DE4828780E28087898137
:10084000982F9F70905D9783807782958F70805DE1
:1008500086838AE38583BE016F5F7F4F81E054DF2B
:10086000882349F18981982F9F70905DF8019483C6
:10087000807782958F70805D83838AE38283BE0157
:100880006F5F7F4F82E040DF8823A9F08981982F36
:100890009F70905DF801918384FB992790F9905D9A
:1008A000908385FF04C080E5818781E004C081E4F6
:1008B000F801818781E00F90DF91CF911F910F9117
:1008C0000895EAE7F0E0808184608083808182601F
:1008D00080838081816080838081806880830895A7
:1008E000CF93DF9390E0FC01E15FFC4F2491FC018A
:1008F000EC58FC4F8491882379F190E0880F991F80
:10090000FC01ED50FC4FA591B491FC01E752FC4F66
:10091000C591D49161110CC09FB7F8948C91E22FCE
:10092000E0958E238C932881E223E8839FBF14C037
:10093000623061F49FB7F8948C91322F3095832305
:100940008C93E881E22BE8839FBF06C08FB7F894B1
:10095000EC91E22BEC938FBFDF91CF91089590E063
:10096000FC01E15FFC4F2491FC01EC58FC4F8491A9
:100970008823B1F0E82FF0E0EE0FFF1FE752FC4FA5
:10098000A591B4918FB7F894611106C09C91E22FA4
:10099000E095E923EC9303C0EC91E22BEC938FBF3D
:1009A000089590E0FC01E15FFC4F2491FC01EC58BC
:1009B000FC4F8491882371F0E82FF0E0EE0FFF1FC9
:1009C000E752FC4FA591B4918FB7F894EC91E227D0
:1009D000EC938FBF0895CF92DF92EF92FF92CF9367
:1009E0006B017C01C42F109267031092E4021092F5
:1009F000DB021092260388EE93E0A0E0B0E0809343
:100A0000F7039093F803A093F903B093FA0382E0FD
:100A10008093C000C11481EED806E104F104B1F066
:100A200060E079E08DE390E0A70196010E94531207
:100A3000DA01C9010197A109B109B695A795979562
:100A400087959C01211580E13807A0F01092C00025
:100A500060E874E88EE190E0A70196010E945312CD
:100A6000DA01C9010197A109B109B695A795979532
:100A700087959C013093C5002093C400C093C200A9
:100A8000E1ECF0E0808180618083808188608083F8
:100A900080818068808380818F7D8083CF91FF906B
:100AA000EF90DF90CF900895809167032091E4024A
:100AB00090E0805C9F4F821B91098F739927089566
:100AC000909167038091E402981771F0E091E4023D
:100AD000F0E0E355FC4F80819091E4029F5F9F73AB
:100AE0009093E40290E008958FEF9FEF08950F93A5
:100AF0001F9353D76093E0027093E1028093E20268
:100B00009093E302DDDF9923F4F447D70091E002EC
:100B10001091E1022091E2023091E302DC01CB016D
:100B2000801B910BA20BB30B0091F7031091F803FC
:100B30002091F9033091FA0380179107A207B307B8
:100B400008F38FEF9FEF1F910F910895EF92FF929F
:100B50000F931F93CF93DF937B01672B81F0082FB7
:100B6000192FC0E0D0E0C3DF992344F0F80181934E
:100B70008F012196EC16FD06B1F701C07E01C70179
:100B8000DF91CF911F910F91FF90EF900895E09129
:100B90002603F0E0E859FC4F20818091260390E085
:100BA00001968F739078992324F40197806C9F6F3E
:100BB0000196809326032093C600E0ECF0E080814C
:100BC0008370806480839091DB0280912603981368
:100BD00005C0E1ECF0E080818F7D808308950F9364
:100BE0001F93CF93DF932091DB029091260329136B
:100BF00010C09091C00095FF0CC09FB7F8948093EF
:100C0000C600E0ECF0E080818370806480839FBF49
:100C10002FC02091DB0230E02F5F3F4F2F733078E1
:100C2000332334F421503109206C3F6F2F5F3F4F45
:100C3000D82FC22F00EC10E007C00FB607FC04C08D
:100C4000F801808185FDA3DF90912603C917A9F3E0
:100C5000E091DB02F0E0E859FC4FD0839FB7F894B5
:100C6000C093DB02E1ECF0E08081806280839FBF73
:100C700081E090E0DF91CF911F910F9108950F9344
:100C80001F93CF93DF93EC018881882351F0219645
:100C900000E010E0A4DF0F5F1F4F89918111FACFB0
:100CA00002C000E010E0C801DF91CF911F910F91C9
:100CB00008958091C00082FD13C02091C6008091EC
:100CC00067038F5F8F739091E402891759F0E09169
:100CD0006703F0E0E355FC4F20838093670308959A
:100CE0008091C60008951F920F920FB60F921124A3
:100CF0000BB60F922F933F934F935F936F937F9316
:100D00008F939F93AF93BF93EF93FF93D2DFFF91A6
:100D1000EF91BF91AF919F918F917F916F915F9173
:100D20004F913F912F910F900BBE0F900FBE0F90E0
:100D30001F9018951F920F920FB60F9211240BB6A9
:100D40000F922F933F934F935F936F937F938F9364
:100D50009F93AF93BF93EF93FF9319DFFF91EF91B1
:100D6000BF91AF919F918F917F916F915F914F91C3
:100D70003F912F910F900BBE0F900FBE0F901F90C1
:100D800018950895883008F079C0E82FF0E0EE0F4C
:100D9000FF1FE050FE4F7183608390E08830910523
:100DA00008F06CC0FC018827EE58FF4F8F4F0C9461
:100DB0007512E9E6F0E080818C7F482B4083E89A49
:100DC0000895E9E6F0E08081837F440F551F440FCA
:100DD000551F482B4083E99A0895E9E6F0E08081A9
:100DE0008F7C42955295507F5427407F5427482B43
:100DF0004083EA9A0895E9E6F0E080818F73002449
:100E0000569547950794569547950794542F402D2E
:100E1000482B4083EB9A0895EAE6F0E080818C7FCE
:100E2000482B4083EC9A0895EAE6F0E08081837FC6
:100E3000440F551F440F551F482B4083ED9A0895CA
:100E4000EAE6F0E080818F7C42955295507F5427EE
:100E5000407F5427482B4083EE9A0895EAE6F0E05D
:100E600080818F7300245695479507945695479532
:100E70000794542F402D482B4083EF9A08951F92DA
:100E80000F920FB60F9211240BB60F922F933F9330
:100E90004F935F936F937F938F939F93AF93BF9382
:100EA000EF93FF93E0910002F09101021995FF91F9
:100EB000EF91BF91AF919F918F917F916F915F91D2
:100EC0004F913F912F910F900BBE0F900FBE0F903F
:100ED0001F9018951F920F920FB60F9211240BB608
:100EE0000F922F933F934F935F936F937F938F93C3
:100EF0009F93AF93BF93EF93FF93E0910202F09122
:100F000003021995FF91EF91BF91AF919F918F913E
:100F10007F916F915F914F913F912F910F900BBEF9
:100F20000F900FBE0F901F9018951F920F920FB643
:100F30000F9211240BB60F922F933F934F935F9311
:100F40006F937F938F939F93AF93BF93EF93FF9391
:100F5000E0910402F09105021995FF91EF91BF9184
:100F6000AF919F918F917F916F915F914F913F9141
:100F70002F910F900BBE0F900FBE0F901F901895E2
:100F80001F920F920FB60F9211240BB60F922F9350
:100F90003F934F935F936F937F938F939F93AF9301
:100FA000BF93EF93FF93E0910602F091070219952A
:100FB000FF91EF91BF91AF919F918F917F916F9131
:100FC0005F914F913F912F910F900BBE0F900FBEED
:100FD0000F901F9018951F920F920FB60F92112429
:100FE0000BB60F922F933F934F935F936F937F9323
:100FF0008F939F93AF93BF93EF93FF93E09108027A
:10100000F09109021995FF91EF91BF91AF919F91D6
:101010008F917F916F915F914F913F912F910F90A1
:101020000BBE0F900FBE0F901F9018951F920F923E
:101030000FB60F9211240BB60F922F933F934F933D
:101040005F936F937F938F939F93AF93BF93EF9330
:10105000FF93E0910A02F0910B021995FF91EF9135
:10106000BF91AF919F918F917F916F915F914F91C0
:101070003F912F910F900BBE0F900FBE0F901F90BE
:1010800018951F920F920FB60F9211240BB60F9264
:101090002F933F934F935F936F937F938F939F9380
:1010A000AF93BF93EF93FF93E0910C02F0910D0289
:1010B0001995FF91EF91BF91AF919F918F917F9182
:1010C0006F915F914F913F912F910F900BBE0F90B9
:1010D0000FBE0F901F9018951F920F920FB60F9290
:1010E00011240BB60F922F933F934F935F936F93FF
:1010F0007F938F939F93AF93BF93EF93FF93E09171
:101100000E02F0910F021995FF91EF91BF91AF91EF
:101110009F918F917F916F915F914F913F912F910F
:101120000F900BBE0F900FBE0F901F901895982F29
:10113000813059F018F08230A1F01BC083B1E42F48
:10114000F0E0E65BFD4F80831AC02CB18091030173
:10115000E42FF0E0E65BFD4F2170880F822B808347
:1011600014C080910601E42FF0E0E65BFD4F808320
:1011700012C0813051F018F0823091F40CC0EBE6CF
:10118000F0E08081682B60830BC0ECE6F0E08081AA
:10119000682B608305C0EDE6F0E08081682B6083FA
:1011A000E8E6F0E0408121E030E0B90102C0660FDE
:1011B000771F9A95E2F7CB01842B80830895982FAF
:1011C000969596959695282F27707894911139C009
:1011D000811105C07093FC036093FB030EC0813046
:1011E00029F470930204609301040EC0823029F444
:1011F00070931404609313040EC0833029F4709329
:101200002604609325040EC0843029F470931604DC
:10121000609315040EC0853029F470932004609308
:101220001F0484C0863029F47093100460930F0467
:101230007DC0873009F07AC0709304046093030482
:1012400075C09130C9F5883029F470931204609309
:1012500011040EC0893029F470930A0460930904C4
:101260000EC08A3029F470931C0460931B040EC0D6
:101270008B3029F470930E0460930D040EC08C30F3
:1012800029F470932804609327040EC08D3029F44C
:1012900070931A046093190449C08E3029F4709336
:1012A00018046093170442C08F3009F03FC0709358
:1012B0002404609323043AC0923009F056C0803170
:1012C00029F470930604609305040EC0813129F45B
:1012D00070931E0460931D040EC0823129F4709334
:1012E000FE036093FD030EC0833129F4709308045C
:1012F000609307040EC0843129F470932A0460932C
:1013000029040EC0853129F4709300046093FF0313
:101310000DC0863129F4709322046093210406C025
:10132000873121F470930C0460930B0461E070E04A
:1013300002C0660F771F2A95E2F7842F8D7F8130D8
:1013400039F4E92FF0E0EC5BFD4F8081862B808340
:101350004150423038F4E92FF0E0E95BFD4F8081E5
:10136000862B8083492F892FE2CE0895E091FB03DD
:10137000F091FC0319950895E0910104F0910204A5
:1013800019950895E0911304F091140419950895A6
:10139000E0912504F091260419950895E091150433
:1013A000F091160419950895E0911F04F09120041E
:1013B00019950895E0910F04F0911004199508957E
:1013C000E0910304F0910404199508951F920F927F
:1013D0000FB60F9211240BB60F922F933F934F939A
:1013E0005F936F937F938F939F93AF93BF93CF93AD
:1013F000EF93FF9323B1EAE4F2E0C081822F8C27C0
:1014000090914402922330914702C323C92BC823F1
:101410002083C4FDC3DFC5FDC7DFC6FDCBDFCC2302
:101420000CF4CEDFC0FDA2DFC1FDA6DFC2FDAADF46
:10143000C3FDAEDFFF91EF91CF91BF91AF919F912F
:101440008F917F916F915F914F913F912F910F906D
:101450000BBE0F900FBE0F901F901895E0911104D6
:10146000F091120419950895E0910904F0910A048D
:1014700019950895E0911B04F0911C0419950895A5
:10148000E0910D04F0910E0419950895E091270460
:10149000F091280419950895E0911904F0911A0427
:1014A00019950895E0911704F0911804199508957D
:1014B000E0912304F0912404199508951F920F924E
:1014C0000FB60F9211240BB60F922F933F934F93A9
:1014D0005F936F937F938F939F93AF93BF93CF93BC
:1014E000EF93FF938CB1909103018170990F982B2A
:1014F000EAE4F2E0C181892F8C272091450229235B
:1015000030914802C323C22BC8239183C0FDA6DFBC
:10151000C1FDAADFC2FDAEDFC3FDB2DFC4FDB6DF91
:10152000C5FDBADFC6FDBEDFCC230CF4C1DFFF91E1
:10153000EF91CF91BF91AF919F918F917F916F91DB
:101540005F914F913F912F910F900BBE0F900FBE67
:101550000F901F901895E0910504F09106041995DD
:101560000895E0911D04F0911E0419950895E091ED
:10157000FD03F091FE0319950895E0910704F091A1
:10158000080419950895E0912904F0912A04199509
:101590000895E091FF03F091000419950895E091FA
:1015A0002104F091220419950895E0910B04F09123
:1015B0000C04199508951F920F920FB60F921124E3
:1015C0000BB60F922F933F934F935F936F937F933D
:1015D0008F939F93AF93BF93CF93EF93FF932091FC
:1015E0000601EAE4F2E0C281822F8C279091460244
:1015F000922330914902C323C92BC8232283C0FD03
:10160000AADFC1FDAEDFC2FDB2DFC3FDB6DFC4FDA0
:10161000BADFC5FDBEDFC6FDC2DFCC230CF4C5DFDB
:10162000FF91EF91CF91BF91AF919F918F917F915A
:101630006F915F914F913F912F910F900BBE0F9043
:101640000FBE0F901F901895E1E8F0E010828081A6
:1016500082608083808181608083E0E8F0E0808127
:1016600081608083E1EBF0E0808184608083E0EB47
:10167000F0E0808181608083E1E9F0E08081826038
:101680008083808181608083E0E9F0E080818160F7
:101690008083E1EAF0E080818260808380818160E4
:1016A0008083E0EAF0E0808181608083E1E2F1E024
:1016B000808182608083808181608083E0E2F1E0CC
:1016C00080818160808308951F93CF93DF93182FCB
:1016D000EB0161E005D9209721F460E0812F3FD92B
:1016E000B5C0CF3FD10521F461E0812F38D9AEC01C
:1016F000E12FF0E0E655FD4FE4918E2F90E0FC01E4
:101700003197E231F10508F097C08827E658FF4F7E
:101710008F4FEBC684B5806884BDC7BD97C085B5C3
:10172000806285BDC8BD92C0E0E8F0E0808180683D
:101730008083D0938900C093880088C0E0E8F0E0FF
:10174000808180628083D0938B00C0938A007EC0AA
:10175000E0E8F0E0808188608083D0938D00C093C2
:101760008C0074C0E0EBF0E0808180688083C093DF
:10177000B3006CC0E0EBF0E0808180628083C093B6
:10178000B40064C0E0E9F0E0808180688083D09399
:101790009900C09398005AC0E0E9F0E0808180622F
:1017A0008083D0939B00C0939A0050C0E0E9F0E0A2
:1017B000808188608083D0939D00C0939C0046C048
:1017C000E0EAF0E0808180688083D093A900C09334
:1017D000A8003CC0E0EAF0E0808180628083D09382
:1017E000AB00C093AA0032C0E0EAF0E080818860DC
:1017F0008083D093AD00C093AC0028C0E0E2F1E05C
:10180000808180688083D0932901C09328011EC005
:10181000E0E2F1E0808180628083D0932B01C0936D
:101820002A0114C0E0E2F1E0808188608083D093D7
:101830002D01C0932C010AC0C038D10524F460E00A
:10184000812F8DD803C061E0812F89D8DF91CF919E
:101850001F910895E091E502F0E0EA51FD4F2081EB
:101860008091E50290E001968F739078992324F49B
:101870000197806C9F6F01968093E5022093D600BC
:10188000E0EDF0E080818370806480839091A80314
:101890008091E502981305C0E1EDF0E080818F7D35
:1018A000808308958091D00082FD13C02091D600DE
:1018B0008091F6038F5F8F739091ED03891759F034
:1018C000E091F603F0E0E95DFC4F20838093F6039E
:1018D00008958091D60008951F920F920FB60F922F
:1018E00011240BB60F922F933F934F935F936F93F7
:1018F0007F938F939F93AF93BF93EF93FF93D2DF29
:10190000FF91EF91BF91AF919F918F917F916F91D7
:101910005F914F913F912F910F900BBE0F900FBE93
:101920000F901F9018951F920F920FB60F921124CF
:101930000BB60F922F933F934F935F936F937F93C9
:101940008F939F93AF93BF93EF93FF9383DFFF91A9
:10195000EF91BF91AF919F918F917F916F915F9127
:101960004F913F912F910F900BBE0F900FBE0F9094
:101970001F901895789484B5826084BD84B5816089
:1019800084BD85B5826085BD85B5816085BDEEE687
:10199000F0E080818160808308952FB7F894609192
:1019A0004E0270914F0280915002909151022FBFD0
:1019B00008953FB7F8948091520290915302A091FC
:1019C0005402B091550226B5A89B05C02F3F19F0CF
:1019D0000196A11DB11D3FBFBA2FA92F982F8827AF
:1019E000820F911DA11DB11DBC01CD01660F771F96
:1019F000881F991F660F771F881F991F08958F9260
:101A00009F92AF92BF92CF92DF92EF92FF926B01C3
:101A10007C01CFDF4B015C01C114D104E104F1046E
:101A200089F421C021E0C21AD108E108F10888EE4A
:101A3000880E83E0981EA11CB11CC114D104E104DE
:101A4000F10489F0B6DFDC01CB0188199909AA09F4
:101A5000BB09883E9340A105B10520F7C114D1040C
:101A6000E104F10479F7FF90EF90DF90CF90BF9001
:101A7000AF909F908F9008951F920F920FB60F9284
:101A800011242F933F938F939F93AF93BF93809194
:101A90004E0290914F02A0915002B09151023091AC
:101AA0004D0223E0230F2D3720F40196A11DB11D17
:101AB00005C026E8230F0296A11DB11D20934D02FB
:101AC00080934E0290934F02A0935002B093510224
:101AD0008091520290915302A0915402B09155020C
:101AE0000196A11DB11D8093520290935302A093C1
:101AF0005402B0935502BF91AF919F918F913F9146
:101B00002F910F900FBE0F901F9018958230A9F063
:101B100028F4882349F0813051F00895843021F170
:101B2000E8F0853039F1089510926E000895EFE6DF
:101B3000F0E080818D7F80830895E0E7F0E0808190
:101B40008D7F808381E08093B000E1EBF0E08081C5
:101B5000887F846080831092B3000895E1E7F0E00D
:101B600080818D7F80830895E2E7F0E080818D7F22
:101B700080830895E3E7F0E080818D7F808308957E
:101B80001F920F920FB60F9211240BB60F922F9344
:101B90003F934F935F936F937F938F939F93AF93F5
:101BA000BF93EF93FF9380913A0490913B04A091EF
:101BB0003C04B0913D04892B8A2B8B2B51F19091E1
:101BC0002C04E0913404F0913504808189278083CE
:101BD00080913A0490913B04A0913C04B0913D0463
:101BE000181619061A061B0604F580913A049091FE
:101BF0003B04A0913C04B0913D040197A109B109B7
:101C000080933A0490933B04A0933C04B0933D042A
:101C10000CC083E07BDF80912C04E0913404F091D0
:101C200035049081809589238083FF91EF91BF9146
:101C3000AF919F918F917F916F915F914F913F9164
:101C40002F910F900BBE0F900FBE0F901F90189505
:101C50001092C90281E08093C7021092C60282E00E
:101C60008093B80083E08093B90085E48093BC0042
:101C70000895ECEBF0E080818A7B808360E08CE269
:101C80000E94AF0460E08BE20C94AF04089585ECF1
:101C90008093BC001092C9020895EF92FF920F93B7
:101CA0001F93CF93DF9391E09093C102882361F05B
:101CB000C8EBD0E0F8800AEB10E0F801E080D9DF53
:101CC000C7DFF801E082F882DF91CF911F910F9179
:101CD000FF90EF9008954F925F926F927F928F9254
:101CE0009F92AF92BF92CF92DF92FF920F931F937A
:101CF000CF93DF93182FF62E072FD42FD22E4132F9
:101D000008F0C3C056DE4B015C0125C08091C202C1
:101D10009091C302A091C402B091C502892B8A2B75
:101D20008B2BC9F046DE4090C2025090C3026090F7
:101D3000C4027090C502DC01CB0188199909AA0977
:101D4000BB09481659066A067B0628F48091C00232
:101D5000A4DFC0E09BC0C091C902C111D7CF81E010
:101D60008093C902D092C7029FEF909356021092BF
:101D70009B029D0F90939A028093C8028091C802A3
:101D8000110F182B1093C8028091C6028130B1F553
:101D90001092C6020EDE4B015C010F2EFCEBCF2E23
:101DA000D12CF02D8091C2029091C302A091C40267
:101DB000B091C502892B8A2B8B2BC1F0FADD4090A4
:101DC000C2025090C3026090C4027090C502DC0150
:101DD000CB0188199909AA09BB09481659066A0650
:101DE0007B0620F48091C00258DF50C0F60180814C
:101DF00083FDD8CF85EC8093BC0003C085EE809333
:101E0000BC00D7DD4B015C0124C08091C2029091DF
:101E1000C302A091C402B091C502892B8A2B8B2BDF
:101E2000C1F0C7DD4090C2025090C3026090C4026E
:101E30007090C502DC01CB0188199909AA09BB0978
:101E4000481659066A067B0620F48091C00225DFF9
:101E50001DC08091C9028130C1F280919B028D1713
:101E600010F4D0919B02DD2389F0ECE9F2E0AF2D74
:101E7000B02F2FEF2D0F30E023563D4F81918D93E2
:101E8000E217F307D9F7CD2F01C0C0E08C2FDF9107
:101E9000CF911F910F91FF90DF90CF90BF90AF90A7
:101EA0009F908F907F906F905F904F9008954F928A
:101EB0005F926F927F928F929F92AF92BF92DF92CA
:101EC000EF92FF920F931F93CF93DF93413208F06D
:101ED000EBC0122FD42E7B01D82F6BDD4B015C01A0
:101EE00025C08091C2029091C302A091C402B0911A
:101EF000C502892B8A2B8B2BC9F05BDD4090C20277
:101F00005090C3026090C4027090C502DC01CB0106
:101F100088199909AA09BB09481659066A067B0659
:101F200028F48091C002B9DEC5E0C3C0C091C902E7
:101F3000C111D7CF82E08093C9020093C7028FEF0F
:101F40008093560210929B02D0929A02DD2079F083
:101F5000F701ACE9B2E06FEF6D0D70E06F5F7F4F9E
:101F60006E0D7F1D91919D93E617F707D9F710929B
:101F7000C8028091C802DD0FD82BD093C80280918F
:101F8000C602813009F040C01092C60212DD2B015A
:101F90003C010F2EFBEBEF2EF12CF02D0F2EFCEB66
:101FA000AF2EB12CF02D8091C802F7018083809173
:101FB000C2029091C302A091C402B091C502892BC4
:101FC0008A2B8B2BC9F0F5DC2091C2023091C30221
:101FD0004091C4025091C502DC01CB0184199509DE
:101FE000A609B709281739074A075B0728F4809123
:101FF000C00253DEC5E05DC0F501808183FDD3CF13
:1020000085EC8093BC0003C085EE8093BC00D1DCDE
:102010004B015C0125C08091C2029091C302A09146
:10202000C402B091C502892B8A2B8B2B59F1C1DCDC
:102030004090C2025090C3026090C4027090C502EA
:10204000DC01CB0188199909AA09BB094816590670
:102050006A067B0628F48091C0021FDEC5E029C015
:102060001123A1F08091C902823081F48091C202D3
:102070009091C302A091C402B091C502892B8A2B12
:102080008B2BA9F68091C902823029F280915602E9
:102090008F3F79F080915602803241F08091560254
:1020A000803331F0C4E005C0C1E003C0C2E001C02C
:1020B000C3E08C2FDF91CF911F910F91FF90EF9094
:1020C000DF90BF90AF909F908F907F906F905F90C8
:1020D0004F90089585ED8093BC004091C2025091CD
:1020E000C3026091C4027091C502495F5F4F6F4F98
:1020F0007F4F689412F87695679557954795169493
:10210000D1F7ECEBF0E01EC08091C2029091C302C7
:10211000A091C402B091C502892B8A2B8B2B91F020
:10212000411551056105710549F08AE28A95F1F77B
:1021300000C0415051096109710904C08091C00279
:10214000ACCD0895808184FDDFCF1092C90208953F
:102150001F920F920FB60F9211240BB60F922F936E
:102160003F934F935F936F937F938F939F93AF931F
:10217000BF93EF93FF938091B900887F90E0893CF3
:10218000910508F0EEC0FC018827E457FF4F8F4F00
:10219000ACC18091C8028093BB0085EC8093BC00E9
:1021A000E0C090919B0280919A02981780F4E09190
:1021B0009B0281E08E0F80939B02F0E0E456FD4F7E
:1021C00080818093BB0085EC8093BC00CAC0809165
:1021D000C702882311F07EDFC4C081E08093C6026D
:1021E00084EA8093BC001092C902BBC080E2809355
:1021F000560270DFB6C080E3809356026BDFB1C039
:1022000088E38093560243DDACC0E0919B0281E0FD
:102210008E0F80939B028091BB00F0E0E456FD4F4F
:10222000808390919B0280919A02981720F485EC0C
:102230008093BC0096C085E88093BC0092C0E0917A
:102240009B0281E08E0F80939B028091BB00F0E0A7
:10225000E456FD4F80838091C702882311F03ADF56
:1022600080C081E08093C60284EA8093BC00109213
:10227000C90277C02FDF75C083E08093C902109236
:10228000570285EC8093BC006CC08091570280326D
:1022900080F4E091570281E08E0F80935702809185
:1022A000BB00F0E0E85AFD4F808385EC8093BC00D2
:1022B00058C085E88093BC0054C0E9DC8091570287
:1022C000803230F4E0915702F0E0E85AFD4F10827E
:1022D0006091570270E0E091BC02F091BD0288E588
:1022E00092E01995109257023CC085E88093BC009B
:1022F00038C084E08093C90210927902109278026B
:10230000E091BE02F091BF0219958091780281118F
:1023100005C081E08093780210927A02E091790200
:1023200081E08E0F80937902F0E0E658FD4F8081C6
:102330008093BB009091790280917802981720F4E5
:1023400085EC8093BC000DC085E88093BC0009C07B
:1023500085EC8093BC001092C90203C01092560213
:10236000B9DEFF91EF91BF91AF919F918F917F91D6
:102370006F915F914F913F912F910F900BBE0F90F6
:102380000FBE0F901F90189541E060E08CE192E045
:102390000C947903089589E50E94D10488E292E0C3
:1023A0000C943F06089588E50C94D104089587E5C0
:1023B0000C94D1040895CF93DF93CDB7DEB7659722
:1023C0000FB6F894DEBF0FBECDBFD4DA3DD90E9460
:1023D000610446E060E875E280E090E00E94EB0472
:1023E0000E94DD020E94B00240E060E083E392E0E0
:1023F0000E9479030E94D70361E089E50E9470047E
:1024000061E088E50E94700461E087E50E94700445
:1024100060E081E40E94700460E082E40E94700445
:1024200060E083E40E94700443E06BEC71E18BE0B8
:102430000E94DF0843E063ED71E18CE00E94DF0859
:1024400043E067ED71E18DE00E94DF0843E050E07A
:1024500064EC71E185E00E94C2066FE370E08FE0FA
:1024600033D9CE010B960E94090441E062E0CE010F
:102470000B960E94790361E080E00E94B9020E94FD
:102480005405892B71F368EE73E080E090E0B7DAD1
:102490006AE070E0CE0101960E94A605CE01019689
:1024A0000E943F06DECFA1E21A2EAA1BBB1BFD0134
:1024B0000DC0AA1FBB1FEE1FFF1FA217B307E40723
:1024C000F50720F0A21BB30BE40BF50B661F771F7B
:1024D000881F991F1A9469F760957095809590955B
:1024E0009B01AC01BD01CF010895EE0FFF1F881FB6
:0E24F0008BBF0790F691E02D1994F894FFCF62
:1024FE00C106C106C106C106C106C106C106C10696
:10250E00436C6F636B20696E6974310053442044D1
:10251E006574656374656400476F6F6420737475CA
:10252E006666004D435520545241494E494E472050
:04253E004B495400B1
:00000001FF
