:1000000088C00000A5C00000A3C00000A1C000007F
:100010009FC000009DC000009BC0000099C0000070
:1000200097C0000095C0000013C4000091C00000FC
:100030008FC000008DC000008BC0000089C0000090
:1000400087C00000C4C1000083C0000081C0000060
:100050007FC000007DC000007BC0000079C00000B0
:1000600077C0000075C0000073C0000071C00000C0
:100070006FC000006DC000006BC0000069C00000D0
:1000800067C0000065C0000063C0000061C00000E0
:100090005FC000005DC000005BC0000059C00000F0
:1000A00057C0000055C0000053C0000051C0000000
:1000B0004FC000004DC000004BC0000049C0000010
:1000C00047C0000045C0000043C0000041C0000020
:1000D0003FC000003DC000003BC0000039C0000030
:1000E00037C00000120118011E0124012A0130014D
:1000F00036013C01420148014E0154015A016001A0
:1001000066016C019D01A401AB01B201B901C001FE
:10011000C70111241FBECFEFD1E2DEBFCDBF00E08B
:100120000CBF12E0A0E0B2E0E8E5FCE000E00BBFAD
:1001300002C007900D92A635B107D9F722E0A6E5D7
:10014000B2E001C01D92AA35B207E1F7E6D382C53D
:1001500057CF8FE087B98FEF88B90895CF938EEF8F
:1001600088B900C086B1807F803E41F0803D41F07B
:10017000803B41F0803741F4CCE007C0C1E005C0CE
:10018000C2E003C0C3E001C0CFEF8DEF88B900C06B
:1001900086B1807F803E41F0803D41F0803B41F060
:1001A000803739F4CDE005C0C4E003C0C5E001C02C
:1001B000C6E08BEF88B900C086B1807F803E41F0F9
:1001C000803D41F0803B41F0803739F4CEE005C0FE
:1001D000C7E003C0C8E001C0C9E087EF88B900C02C
:1001E00086B1807F803E09F489C0803D09F47AC0E1
:1001F000803B09F489C0803709F47AC0CF3F09F405
:1002000089C043E060E08CE092E09DD48C2F90E0C8
:100210008031910508F07EC0FC018827EE58FF4F21
:100220008F4FDDC443E069E087E192E08CD472C077
:1002300043E069E089E192E086D46CC043E069E084
:100240008BE192E080D466C043E069E08DE192E00A
:100250007AD460C043E069E08FE192E074D45AC080
:1002600043E069E081E292E06ED454C043E069E08B
:1002700083E292E068D44EC043E069E085E292E018
:1002800062D448C043E069E087E292E05CD442C0B7
:1002900043E069E089E292E056D43CC043E069E083
:1002A0008BE292E050D436C043E069E08DE292E008
:1002B0004AD430C043E069E08FE292E044D42AC0DF
:1002C00043E069E081E392E03ED424C043E069E08A
:1002D00083E392E038D41EC043E069E085E392E016
:1002E00032D418C043E060E08CE092E02CD49ACF86
:1002F00043E060E08CE092E026D4EECF43E060E0A3
:100300008CE092E020D4CACF43E060E08CE092E041
:100310001AD4CACF80E0CF910895E7E0F1E0808160
:100320008F6780830895019787309105B0F5FC01B0
:100330008827EE57FF4F8F4F52C4E8E0F1E09081DD
:1003400081E0892780830895E8E0F1E0908182E0F0
:10035000892780830895E8E0F1E0908184E089278F
:1003600080830895E8E0F1E0908188E08927808328
:100370000895E8E0F1E0908180E189278083089585
:10038000E8E0F1E0908180E2892780830895E8E049
:10039000F1E0908180E4892780830895F894109299
:1003A0008000E1E8F0E0108280818A608083109212
:1003B00089008DE780938800EFE6F0E0808182601D
:1003C00080831092850010928400789408951F9283
:1003D0000F920FB60F9211248F939F93AF93BF93F9
:1003E0008091560290915702A0915802B091590203
:1003F0008091560290915702A0915802B0915902F3
:100400008091560290915702A0915802B0915902E2
:100410000196A11DB11D8093560290935702A0939F
:100420005802B0935902BF91AF919F918F910F9055
:100430000FBE0F901F901895ECE7F0E0808180646C
:100440008083EAE7F0E08081836880830895ECE7A9
:10045000F0E09081907F8F70892B8083EAE7F0E055
:10046000808180648083808186FDFDCF80917800CB
:1004700090917900089582E08093B800E9EBF0E074
:10048000808183608083ECEBF0E0808184608083F6
:10049000089584EA8093BC00ECEBF0E0808188232F
:1004A000ECF7089584E98093BC00ECEBF0E08081E8
:1004B00084FDFDCF08958093BB0084E88093BC0049
:1004C000ECEBF0E080818823ECF78091B900887F25
:1004D000883169F08091B900887F883251F090911D
:1004E000B900987F81E0903429F080E0089581E0A0
:1004F000089581E00895DC01662331F0ECEBF0E033
:1005000090819064908305C0ECEBF0E090819F7B3C
:100510009083ECEBF0E09081906890839081992338
:10052000ECF79091B900987F983529F09091B90037
:10053000987F903529F48091BB008C9381E00895D9
:1005400080E008950F931F93CF93C82F8B01A1DFF5
:1005500080EDB1DF882389F08C2FADDF882379F01F
:1005600098DF81EDA8DF882361F060E0C801C3DF78
:10057000882349F097DF81E007C080E005C080E074
:1005800003C080E001C080E0CF911F910F910895DA
:10059000CF93DF93C82FD62F7CDF80ED8CDF8823AD
:1005A00059F08C2F88DF882349F08D2F84DF882332
:1005B00039F078DF81E005C080E003C080E001C051
:1005C00080E0DF91CF910895CF93DF931F92CDB755
:1005D000DEB751DFBE016F5F7F4F80E0B3DF982F42
:1005E0008823C9F069816F77698380E0D1DF982F14
:1005F000882389F0BE016F5F7F4F82E0A3DF982FD1
:10060000882349F069816064698382E0C1DF91E0F9
:10061000811101C090E0892F0F90DF91CF91089553
:100620000F931F93CF93DF931F92CDB7DEB78C014B
:10063000BE016F5F7F4F80E085DF882309F442C0F1
:10064000F80113868DE4828780E280878981982F64
:100650009F70905D9783807782958F70805D868391
:100660008AE38583BE016F5F7F4F81E06BDF882364
:1006700049F18981982F9F70905DF801948380776C
:1006800082958F70805D83838AE38283BE016F5F72
:100690007F4F82E057DF8823A9F08981982F9F70D0
:1006A000905DF801918384FB992790F9905D908388
:1006B00085FF04C080E5818781E004C081E4F80102
:1006C000818781E00F90DF91CF911F910F91089565
:1006D0008AB180678AB908955E9A5E9808955D9A96
:1006E00081E0982F9A95F1F75D988A95F1F7089532
:1006F000CF93DF93D82FC8E0DD2314F45C9A01C0B8
:100700005C98EADFDD0FC150B9F7E9DFDF91CF91E7
:1007100008958A3020F080910B02EACF0895E82FE7
:10072000F0E0E050FE4F8081E3CF08951092B200D8
:10073000E0EBF0E0808183688083E1EBF0E0808192
:1007400081608083249AE1E0F1E08081806480838D
:1007500008951F93CF93DF93FC0184B141E050E0F3
:1007600002C0440F551F6A95E2F7842B84B985B106
:10077000942F9095892385B9A3E9B1E11197F1F7F9
:1007800000C0000085B1842B85B9B6E0BA95F1F7B9
:1007900000C084B1982394B985B1842B85B99BE0BE
:1007A00003C0915009F447C023B130E0242335231E
:1007B000232BB9F39BE003C0915009F43EC023B151
:1007C00030E024233523232BB9F788E2B0E060E042
:1007D000A0E077E01AE003C0915011F430C097E038
:1007E00023B130E024233523232BB1F39AE002C058
:1007F000915039F123B130E024233523232BC1F765
:10080000660FC12FC91BC53008F0616071110CC0A3
:100810009F012A0F311DE9016883A43008F4B60F47
:10082000AF5F60E077E001C071508150C1F6948104
:10083000B91309C009C08FEF07C08FEF05C08EEF55
:1008400003C08EEF01C08DEFDF91CF911F9108950E
:100850001F920F920FB60F9211240BB60F922F9387
:100860003F934F935F936F937F938F939F93AF9338
:10087000BF93EF93FF938091030182FF03C081E058
:1008800090E051DD8091030183FF03C082E090E09E
:100890004ADD8091030184FF03C083E090E043DDE3
:1008A0008091030185FF03C084E090E03CDDFF916F
:1008B000EF91BF91AF919F918F917F916F915F91D8
:1008C0004F913F912F910F900BBE0F900FBE0F9045
:1008D0001F9018950F931F93CF93DF93CDB7DEB77B
:1008E0002A970FB6F894DEBF0FBECDBF162F042F88
:1008F0004AE0BE016F5F7F4F7AD1402F612FCE015A
:10090000019621D12A960FB6F894DEBF0FBECDBF57
:10091000DF91CF911F910F910895CF93DF93CDB7C2
:10092000DEB760970FB6F894DEBF0FBECDBFB8D06C
:1009300010DCF3DC33DD80DD47DECADEF7DEF89461
:10094000109204018FEF80930501E8E6F0E08081CA
:1009500082608083D99AECE6F0E0808188678083AA
:100960007894E0D02FE78AE196E0215080409040D3
:10097000E1F700C000000F2EF3EBEF2EF12CF02D6D
:1009800080E065DD8C019695879596958795F701B2
:10099000808340E063E087E392E0D5D0CE0101960A
:1009A0003FDE41E064E0CE010196CDD042E060E060
:1009B00088E492E0C8D042E060E0C8018BDFCEDB83
:1009C00086E0A7DE66E0CE010C96C3DE81110BC087
:1009D0008C8542E068E090E07DDF8E8542E06AE051
:1009E00090E078DF05C042E068E080E592E0ABD0BF
:1009F000FFE72AE186E0F15020408040E1F700C0A7
:100A00000000BECF982F907F92B9179A159AE9EF00
:100A1000F0E03197F1F700C0000015981798E9EF62
:100A2000F0E03197F1F700C00000F0E18F9FC001C6
:100A3000112482B9179A159A89EF90E00197F1F77E
:100A400000C0000015981798E9EFF0E03197F1F732
:100A500000C000000895982F907F92B9159AE9EF91
:100A6000F0E03197F1F700C000001598E9EFF0E0F1
:100A70003197F1F700C00000F0E18F9FC001112411
:100A800082B9159A89EF90E00197F1F700C0000054
:100A90001598E9EFF0E03197F1F700C000000895F4
:100AA00085EA9EE00197F1F700C0000012B812B885
:100AB00081B18F6081B981B1806E81B98CE082B9DA
:100AC000159AE9EFF0E03197F1F700C000001598B2
:100AD000E9EFF0E03197F1F700C0000082B9159A14
:100AE00089EF90E00197F1F700C000001598E9EF59
:100AF000F0E03197F1F700C0000084E082B9159A68
:100B000089EF90E00197F1F700C000001598E9EF38
:100B1000F0E03197F1F700C0000088E29CDF8CE044
:100B20009ACF089581E097CF0895623031F0633015
:100B300031F0613029F4805C03C08C5E01C08C5AB6
:100B4000806889CF0895CF92DF92EF92FF920F9342
:100B50001F93CF93DF936C01862F642FE6DFF6019E
:100B600001900020E9F731978F010C191D09F02E33
:100B700088E0801718F401110DC026C0002331F160
:100B80008601D0E0F80181918F013CDFDF5FFD122B
:100B9000F9CF1CC0E601E12C899134DFE394FE100B
:100BA000FBCFEFEFE00FF0E03196E601CE0FDF1F55
:100BB00080EC51DFF0E1FF1548F410E1899122DF6C
:100BC0001F5FF112FBCF02C080EC45DFDF91CF91B8
:100BD0001F910F91FF90EF90DF90CF900895EE0F4F
:100BE000FF1F881F8BBF0790F691E02D1994BB273C
:100BF0004A3031F4992322F4BDE2909581959F4FBC
:100C000001C0BB27FB015527AA27880F991FAA1FE0
:100C1000A41710F0A41B83955051B9F7A05DAA3317
:100C200008F0A95DA193009779F7B111B1931192E2
:100C3000CB0100C0DC01FC01672F71917723E1F744
:100C4000329704C07C916D9370836291AE17BF0799
:080C5000C8F30895F894FFCFEA
:100C58003F065B4F666D7D077F6F80404B6579501F
:100C6800726573733A20004100390043003800234D
:100C780000440030003600420035003300320037AF
:100C8800002A00340031004D435520545241494E4A
:100C9800494E47204B495400202020202020200086
:060CA8004552522020001D
:00000001FF
