S01D00004D435520547261696E696E67204B69742056312E302E7372656379
S113000087C00000A4C00000A2C00000A0C000007F
S11300109EC000009CC000009AC0000098C0000070
S113002096C0000094C00000A6C4000090C0000068
S11300308EC000008CC000008AC0000088C0000090
S113004086C00000CBC2000082C0000080C0000057
S11300507EC000007CC000007AC0000078C00000B0
S113006076C0000074C0000072C0000070C00000C0
S11300706EC000006CC000006AC0000068C00000D0
S113008066C0000064C0000062C0000060C00000E0
S11300905EC000005CC000005AC0000058C00000F0
S11300A056C0000054C0000052C0000050C0000000
S11300B04EC000004CC000004AC0000048C0000010
S11300C046C0000044C0000042C0000040C0000020
S11300D03EC000003CC000003AC0000038C0000030
S11300E036C000004B02500255025A025F026402FD
S11300F069026E0273027D0287028C0291029602EB
S1130100A002C402C602C802CA02CC02CE02D002B5
S113011011241FBECFEFD1E2DEBFCDBF00E00CBF84
S113012012E0A0E0B2E0E6E0FAE000E00BBF02C0BB
S113013007900D92A834B107D9F722E0A8E4B2E001
S113014001C01D92AD35B207E1F7D4D35AC458CFDC
S113015015980000159A0000159881E28A95F1F728
S113016000000895E2E5F2E020E030E090E0A1E054
S1130170B0E0AC01022E02C0559547950A94E2F70F
S113018040FF0AC062B1AD01008002C0440F551F98
S11301900A94E2F7462B0BC052B1BD01008002C0A5
S11301A0660F771F0A94E2F7462F4095452342B91C
S11301B02F5F3F4F319624303105D9F6C9CF86954C
S11301C08170E2E5F2E061E070E0882359F092B1D9
S11301D09B01008002C0220F331F0A94E2F7292BEF
S11301E022B90CC022B1AB01008002C0440F551FDC
S11301F00A94E2F7942F9095922392B9319692E063
S1130200EA35F90711F7A4CFCF93662311F0179AB3
S113021001C01798169890915B0294FF02C0CF9189
S1130220CECFC82F82958F709DDF8C2FCF919ACF20
S113023060E0EACF81E0FCDF83EF91E00197F1F722
S113024000C00000089510924C0290E490934D0277
S113025094E190934E0294E590934F02643008F039
S113026063E090915102691710F06FEF690FE62F68
S1130270F0E0E45BFD4F9081890F8068D9CF8091D5
S11302805002982F9460909350028C60D1CF83E0F9
S11302908093520282E08093530291E0909354023F
S11302A01092550210925602109257021092580260
S11302B01092590298E090935B02809351020F9A36
S11302C00E9A0D9A0C9A149AE2E5F2E041E050E09D
S11302D09F012255324080915B0284FD03C084E07B
S11302E090E002C088E090E0281739075CF421B15F
S11302F0CA01019002C0880F991F0A94E2F7822B69
S113030081B9E6CF83ED90E30197F1F700C00000D7
S113031017981598169880915B0284FD18C083E0A5
S113032021DF84E694E00197F1F700C0000083E048
S113033019DF84E694E00197F1F700C0000083E040
S113034011DF92E39A95F1F782E00CDF13C080622B
S11303506FDF84E694E00197F1F700C0000080911C
S11303605B02806265DF92E39A95F1F780915B020C
S113037080625EDF80915B0280625ADF84E080935A
S113038050027DDF57DF82E080935A0286E050CF2F
S113039061E03ADF81E00895CF93DF93EC01899126
S11303A0882311F0F5DFFBCFDF91CF910895CF9330
S11303B0DF93EC01862F642F46DFCE01DF91CF91CE
S11303C0EBCF8FE087B98FEF88B90895CF938EEF85
S11303D088B900C086B1807F803E41F0803D41F005
S11303E0803B41F0803741F4CCE007C0C1E005C058
S11303F0C2E003C0C3E001C0CFEF8DEF88B900C0F5
S113040086B1807F803E41F0803D41F0803B41F0E9
S1130410803739F4CDE005C0C4E003C0C5E001C0B5
S1130420C6E08BEF88B900C086B1807F803E41F082
S1130430803D41F0803B41F0803739F4CEE005C087
S1130440C7E003C0C8E001C0C9E087EF88B900C0B5
S113045086B1807F803E09F44BC0803D09F475C0AD
S1130460803B09F44FC0803709F465C0CF3F09F4DD
S113047076C043E060E08CE092E099DF8C2F90E05E
S1130480FC013197EF30F10508F069C08827EE5878
S1130490FF4F8F4FAEC243E069E087E192E05EC058
S11304A043E069E089E192E059C043E069E08BE10F
S11304B092E054C043E069E08DE192E04FC043E034
S11304C069E08FE192E04AC043E069E081E292E0B2
S11304D045C043E069E083E292E040C043E069E064
S11304E085E292E03BC043E069E087E292E036C0F7
S11304F043E060E08CE092E05ADF43E069E089E2A7
S113050092E02CC043E060E08CE092E050DF43E0F6
S113051069E08BE292E022C043E069E08DE292E080
S11305201DC043E069E08FE292E018C043E069E057
S113053081E392E013C043E060E08CE092E037DFB7
S113054043E069E083E392E009C043E060E08CE0CB
S113055092E02DDF43E069E085E392E028DF80E06C
S1130560CF910895E7E0F1E080818F67808308955B
S1130570FC013197E730F105B8F490910801882720
S1130580EF57FF4F8F4F35C281E00BC082E009C0A7
S113059084E007C088E005C080E103C080E201C0B8
S11305A080E48927809308010895F89410928000CC
S11305B0E1E8F0E0108280818A60808310928900F3
S11305C08DE780938800EFE6F0E08081826080838D
S11305D01092850010928400789408951F920F92CF
S11305E00FB60F9211248F939F93AF93BF93809173
S11305F0480290914902A0914A02B0914B02809125
S1130600480290914902A0914A02B0914B02809114
S1130610480290914902A0914A02B0914B0201967E
S1130620A11DB11D8093480290934902A0934A02F0
S1130630B0934B02BF91AF919F918F910F900FBEDA
S11306400F901F90189582E08093B800E9EBF0E0DA
S1130650808183608083ECEBF0E080818460808320
S1130660089584EA8093BC008091BC0087FFFCCF8E
S1130670089584E98093BC008091BC0084FDFCCF84
S113068008958093BB0084E88093BC008091BC00F3
S113069087FFFCCF8091B900887F883169F0809111
S11306A0B900887F883241F09091B900987F81E049
S11306B0903419F080E0089581E00895FC01909150
S11306C0BC00662311F0906401C09F7B9093BC0032
S11306D09091BC0090689093BC008091BC0087FF0F
S11306E0FCCF9091B900987F983529F09091B9008A
S11306F0987F903529F48091BB00808381E0089530
S113070080E008951F93CF93DF93182FEB01A9DFA7
S113071080EDB7DF811102C080E010C0812FB1DF0E
S11307208823D1F39EDF81EDACDF8823A9F360E059
S1130730CE01C4DF882381F39CDF81E0DF91CF9178
S11307401F910895CF93DF93D82FC62F8ADF80EDB2
S113075098DF811102C080E00AC08D2F92DF8823C8
S1130760D1F38C2F8EDF8823B1F383DF81E0DF9117
S1130770CF910895CF93DF931F92CDB7DEB763DF98
S1130780BE016F5F7F4F80E0BDDF8823B1F06981D8
S11307906F77698380E0D6DF882379F0BE016F5FCD
S11307A07F4F82E0AFDF882341F069816064698311
S11307B082E0C8DF91E0811101C090E0892F0F90A1
S11307C0DF91CF910895FF920F931F93CF93DF93FF
S11307D01F92CDB7DEB78C01BE016F5F7F4F80E003
S11307E091DF811102C080E040C0F80113868DE4DE
S11307F0828780E280878981982F9F70905D97839C
S1130800807782958F70805D86838AE3F82EF582E7
S1130810BE016F5F7F4F81E075DF882321F38981FB
S1130820982F9F70905DF8019483807782958F70E4
S1130830805D8383F282BE016F5F7F4F82E062DF5F
S1130840882389F28981982F9F70905DF8019183A4
S113085084FB992790F9905D908385FF02C080E521
S113086002C081E4F801818781E00F90DF91CF918C
S11308701F910F91FF9008958AB180678AB90895F6
S11308805E9A5E9808955D9A81E0982F9A95F1F7A3
S11308905D988A95F1F70895CF93DF93D82FC8E038
S11308A0D7FF02C05C9A01C05C98EADFDD0FC1503B
S11308B0B9F7DF91CF91E7CF8A3018F080910B021E
S11308C005C0E82FF0E0E050FE4F8081E5CF1092A4
S11308D0B200E0EBF0E0808183688083E1EBF0E03C
S11308E0808181608083249AE1E0F1E080818064EA
S11308F080830895CF93DF93CDB7DEB72B970FB6E0
S1130900F894DEBF0FBECDBFC2DC5BDD2BDE4DDE57
S113091031DFB2DFDCDFF894109204018FEF8093B3
S1130920050180916800826080936800D99A809163
S11309306C00886780936C0078947CDC60E080E0D5
S113094082DC2FE78AE196E0215080409040E1F775
S113095000C0000040E060E087E392E028DDCE01C3
S1130960019631DF41E062E0CE01019620DD2EDD0B
S113097086E0A2DFEFCF1F920F920FB60F921124E1
S11309800BB60F922F933F934F935F936F937F9385
S11309908F939F93AF93BF93EF93FF938091030142
S11309A082FF06C09091080181E0892780930801A5
S11309B08091030183FF03C082E090E0D9DD809140
S11309C0030184FF03C083E090E0D2DDFF91EF9147
S11309D0BF91AF919F918F917F916F915F914F9153
S11309E03F912F910F900BBE0F900FBE0F901F9051
S11309F01895EE0FFF1F881F8BBF0790F691E02D0F
S1090A001994F894FFCFE5
S1130A063F065B4F666D7D077F6F80404B6579506F
S1130A16726573733A20003900430038002300449A
S1130A260030003600420035003300320037002A19
S1130A36003400310041004D435520545241494E83
S10B0A46494E47204B495400BE
S9030000FC
