:1000000087C00000A4C00000A2C00000A0C0000083
:100010009EC000009CC000009AC0000098C0000074
:1000200096C0000094C00000C3C3000090C0000050
:100030008EC000008CC000008AC0000088C0000094
:1000400086C0000092C1000082C0000080C0000095
:100050007EC000007CC000007AC0000078C00000B4
:1000600076C0000074C0000072C0000070C00000C4
:100070006EC000006CC000006AC0000068C00000D4
:1000800066C0000064C0000062C0000060C00000E4
:100090005EC000005CC000005AC0000058C00000F4
:1000A00056C0000054C0000052C0000050C0000004
:1000B0004EC000004CC000004AC0000048C0000014
:1000C00046C0000044C0000042C0000040C0000024
:1000D0003EC000003CC000003AC0000038C0000034
:1000E00036C00000120117011C01210126012B015D
:1000F000300135013A0144014E01530158015D01BF
:1001000067018B018D018F01910193019501970189
:1001100011241FBECFEFD1E2DEBFCDBF00E00CBF88
:1001200012E0A0E0B2E0EEE8FBE000E00BBF02C0AE
:1001300007900D92A635B107D9F722E0A6E5B2E007
:1001400001C01D92AA35B207E1F79AD31EC558CF58
:100150008FE087B98FEF88B90895CF938EEF88B974
:1001600000C086B1807F803E41F0803D41F0803B01
:1001700041F0803741F4CCE007C0C1E005C0C2E0E7
:1001800003C0C3E001C0CFEF8DEF88B900C086B1D6
:10019000807F803E41F0803D41F0803B41F08037E0
:1001A00039F4CDE005C0C4E003C0C5E001C0C6E03D
:1001B0008BEF88B900C086B1807F803E41F0803DE2
:1001C00041F0803B41F0803739F4CEE005C0C7E014
:1001D00003C0C8E001C0C9E087EF88B900C086B19C
:1001E000807F803E09F44BC0803D09F475C0803BA0
:1001F00009F44FC0803709F465C0CF3F09F476C0D9
:1002000043E060E08CE092E040D48C2F90E0FC0171
:100210003197EF30F10508F069C08827EE58FF4F9D
:100220008F4F78C443E069E087E192E05EC043E02D
:1002300069E089E192E059C043E069E08BE192E036
:1002400054C043E069E08DE192E04FC043E069E0D3
:100250008FE192E04AC043E069E081E292E045C06C
:1002600043E069E083E292E040C043E069E085E278
:1002700092E03BC043E069E087E292E036C043E0B1
:1002800060E08CE092E001D443E069E089E292E032
:100290002CC043E060E08CE092E0F7D343E069E0FB
:1002A0008BE292E022C043E069E08DE292E01DC063
:1002B00043E069E08FE292E018C043E069E081E347
:1002C00092E013C043E060E08CE092E0DED343E0D4
:1002D00069E083E392E009C043E060E08CE092E0F3
:1002E000D4D343E069E085E392E0CFD380E0CF91BF
:1002F0000895E7E0F1E080818F6780830895FC0135
:100300003197E730F105B8F4909108018827EF574D
:10031000FF4F8F4FFFC381E00BC082E009C084E034
:1003200007C088E005C080E103C080E201C080E42E
:100330008927809308010895F89410928000E1E8DD
:10034000F0E0108280818A608083109289008DE7BE
:1003500080938800EFE6F0E08081826080831092D5
:10036000850010928400789408951F920F920FB622
:100370000F9211248F939F93AF93BF938091560256
:1003800090915702A0915802B09159028091560263
:1003900090915702A0915802B09159028091560253
:1003A00090915702A0915802B09159020196A11D57
:1003B000B11D8093560290935702A0935802B093B8
:1003C0005902BF91AF919F918F910F900FBE0F90E7
:1003D0001F901895ECE7F0E0808180648083EAE765
:1003E000F0E0808183688083089590917C00907F05
:1003F0008F70892B80937C0080917A008064809339
:100400007A0080917A0086FDFCCF809178009091EF
:100410007900089582E08093B800E9EBF0E08081F4
:1004200083608083ECEBF0E08081846080830895BA
:1004300084EA8093BC008091BC0087FFFCCF0895C4
:1004400084E98093BC008091BC0084FDFCCF0895BA
:100450008093BB0084E88093BC008091BC0087FF40
:10046000FCCF8091B900887F883169F08091B90014
:10047000887F883241F09091B900987F81E0903474
:1004800019F080E0089581E00895FC019091BC008E
:10049000662311F0906401C09F7B9093BC00909103
:1004A000BC0090689093BC008091BC0087FFFCCF9B
:1004B0009091B900987F983529F09091B900987F74
:1004C000903529F48091BB00808381E0089580E01D
:1004D00008951F93CF93DF93182FEB01A9DF80EDD1
:1004E000B7DF811102C080E010C0812FB1DF882307
:1004F000D1F39EDF81EDACDF8823A9F360E0CE016C
:10050000C4DF882381F39CDF81E0DF91CF911F91CD
:100510000895CF93DF93D82FC62F8ADF80ED98DF21
:10052000811102C080E00AC08D2F92DF8823D1F3B1
:100530008C2F8EDF8823B1F383DF81E0DF91CF91B1
:100540000895CF93DF931F92CDB7DEB763DFBE016F
:100550006F5F7F4F80E0BDDF8823B1F069816F77E7
:10056000698380E0D6DF882379F0BE016F5F7F4F1B
:1005700082E0AFDF882341F069816064698382E0B3
:10058000C8DF91E0811101C090E0892F0F90DF91C9
:10059000CF910895FF920F931F93CF93DF931F92F4
:1005A000CDB7DEB78C01BE016F5F7F4F80E091DF7A
:1005B000811102C080E040C0F80113868DE482877B
:1005C00080E280878981982F9F70905D97838077E4
:1005D00082958F70805D86838AE3F82EF582BE0156
:1005E0006F5F7F4F81E075DF882321F38981982F2A
:1005F0009F70905DF8019483807782958F70805D05
:100600008383F282BE016F5F7F4F82E062DF8823C7
:1006100089F28981982F9F70905DF801918384FB06
:10062000992790F9905D908385FF02C080E502C014
:1006300081E4F801818781E00F90DF91CF911F91D4
:100640000F91FF9008958AB180678AB908955E9AE4
:100650005E9808955D9A81E0982F9A95F1F75D98DC
:100660008A95F1F70895CF93DF93D82FC8E0D7FF8D
:1006700002C05C9A01C05C98EADFDD0FC150B9F797
:10068000DF91CF91E7CF8A3018F080910B0205C03F
:10069000E82FF0E0E050FE4F8081E5CF1092B200ED
:1006A000E0EBF0E0808183688083E1EBF0E0808123
:1006B00081608083249AE1E0F1E08081806480831E
:1006C00008951F93CF93DF93FC0184B121E030E0C4
:1006D00002C0220F331F6A95E2F7822B84B995B1CD
:1006E000822F8095982395B9A3E9B1E11197F1F78D
:1006F00000C0000095B1922B95B9B6E0BA95F1F71C
:1007000000C094B1892384B985B1822B85B94BE0AF
:1007100083B190E082239323892B19F44150C1F7D0
:1007200040C08BE043B150E042235323452B19F0E6
:100730008150C1F736C088E2B0E090E070E067E039
:100740001AE0A7E043B150E042235323452B19F4AC
:10075000A150C1F728C0AAE043B150E0422353237F
:10076000452B19F0A150C1F71EC0990F412F4A1B0C
:10077000453008F0916061110CC0AF01470F511D69
:10078000EA019883743008F4B90F7F5F90E067E066
:1007900001C061508150A9F69481B91729F08DEFFD
:1007A00003C08FEF01C08EEFDF91CF911F910895AD
:1007B0001F920F920FB60F9211240BB60F922F9328
:1007C0003F934F935F936F937F938F939F93AF93D9
:1007D000BF93EF93FF938091030182FF06C0909136
:1007E000080181E08927809308018091030183FF3C
:1007F00003C082E090E083DD8091030184FF03C0A9
:1008000083E090E07CDD8091030185FF03C084E0FC
:1008100090E075DDFF91EF91BF91AF919F918F9126
:100820007F916F915F914F913F912F910F900BBEF0
:100830000F900FBE0F901F9018950F931F93CF939B
:10084000DF93CDB7DEB72A970FB6F894DEBF0FBEA1
:10085000CDBF162F042F4AE0BE016F5F7F4F62D1DC
:10086000402F612FCE01019610D12A960FB6F89431
:10087000DEBF0FBECDBFDF91CF911F910F910895C5
:10088000CF93DF93CDB7DEB760970FB6F894DEBF96
:100890000FBECDBFAAD05CDC2CDD4EDD9BDD51DE72
:1008A000D2DEFCDEF894109204018FEF80930501F4
:1008B00080916800826080936800D99A80916C0072
:1008C000886780936C007894D1D02FE78AE196E016
:1008D000215080409040E1F700C0000080E085DDBD
:1008E0008C0196958795969587958093B30040E007
:1008F00063E087E392E0C9D0CE0101964BDE41E090
:1009000064E0CE010196C1D042E060E088E492E06C
:10091000BCD042E060E0C80190DF1FDC86E0B3DEBF
:1009200066E0CE010C96CDDE81110BC08C8542E0D5
:1009300068E090E082DF8E8542E06AE090E07DDF53
:10094000C4CF42E068E080E592E09FD0BECF982F10
:10095000907F92B9179A159AE9EFF0E03197F1F785
:1009600000C0000015981798E9EFF0E03197F1F713
:1009700000C00000F0E18F9FC001112482B9179AD6
:10098000159A89EF90E00197F1F700C000001598E3
:100990001798E9EFF0E03197F1F700C000000895F3
:1009A000982F907F92B9159AE9EFF0E03197F1F71F
:1009B00000C000001598E9EFF0E03197F1F700C0B2
:1009C0000000F0E18F9FC001112482B9159A89EFD0
:1009D00090E00197F1F700C000001598E9EFF0E012
:1009E0003197F1F700C00000089585EA9EE0019775
:1009F000F1F700C0000012B812B881B18F6081B960
:100A000081B1806E81B98CE082B9159AE9EFF0E08E
:100A10003197F1F700C000001598E9EFF0E0319749
:100A2000F1F700C0000082B9159A89EF90E00197B4
:100A3000F1F700C000001598E9EFF0E03197F1F709
:100A400000C0000084E082B9159A89EF90E0019718
:100A5000F1F700C000001598E9EFF0E03197F1F7E9
:100A600000C0000088E29CDF8CE09ACF81E098CF44
:100A7000623031F0633031F0613029F4805C03C0C2
:100A80008C5E01C08C5A80688BCFCF92DF92EF9240
:100A9000FF920F931F93CF93DF938C01862F642FC8
:100AA000E7DFF80101900020E9F73197EF01C01B63
:100AB000D10BDC2E88E08C1750F0F02EC02FD12FF8
:100AC0008C2F8F198D15E8F4899141DFF9CFC02E55
:100AD0007801F70181917F013ADF8E2D8C198D15F8
:100AE000C0F3EC2FE150CE2FD0E02196C00FD11FE4
:100AF00080EC56DF10E11D1520F4899128DF1F5F7F
:100B0000FACFDF91CF911F910F91FF90EF90DF907F
:100B1000CF900895EE0FFF1F881F8BBF0790F691AF
:100B2000E02D1994BB274A3031F4992322F4BDE219
:100B3000909581959F4F01C0BB27FB015527AA27A0
:100B4000880F991FAA1FA41710F0A41B839550515A
:100B5000B9F7A05DAA3308F0A95DA193009779F7D2
:100B6000B111B1931192CB0100C0DC01FC01672FE0
:100B700071917723E1F7329704C07C916D93708374
:0E0B80006291AE17BF07C8F30895F894FFCF37
:100B8E003F065B4F666D7D077F6F80404B657950EA
:100B9E00726573733A200039004300380023004415
:100BAE000030003600420035003300320037002A94
:100BBE00003400310041004D435520545241494EFE
:100BCE00494E47204B495400202020202020200051
:060BDE00455252202000E8
:00000001FF
